{
  "contractName": "ComplexStorage",
  "abi": [
    {
      "inputs": [],
      "payable": false,
      "stateMutability": "nonpayable",
      "type": "constructor"
    },
    {
      "constant": true,
      "inputs": [
        {
          "internalType": "uint256",
          "name": "",
          "type": "uint256"
        }
      ],
      "name": "groupArray",
      "outputs": [
        {
          "internalType": "string",
          "name": "name",
          "type": "string"
        },
        {
          "internalType": "uint8",
          "name": "members",
          "type": "uint8"
        }
      ],
      "payable": false,
      "stateMutability": "view",
      "type": "function"
    },
    {
      "constant": true,
      "inputs": [],
      "name": "singleGroup",
      "outputs": [
        {
          "internalType": "string",
          "name": "name",
          "type": "string"
        },
        {
          "internalType": "uint8",
          "name": "members",
          "type": "uint8"
        }
      ],
      "payable": false,
      "stateMutability": "view",
      "type": "function"
    },
    {
      "constant": true,
      "inputs": [
        {
          "internalType": "address",
          "name": "",
          "type": "address"
        },
        {
          "internalType": "uint256",
          "name": "",
          "type": "uint256"
        }
      ],
      "name": "userToGroups",
      "outputs": [
        {
          "internalType": "string",
          "name": "name",
          "type": "string"
        },
        {
          "internalType": "uint8",
          "name": "members",
          "type": "uint8"
        }
      ],
      "payable": false,
      "stateMutability": "view",
      "type": "function"
    }
  ],
  "bytecode": "0x608060405234801561001057600080fd5b506000735ee68f3bfa0b2cc8b1bed1e457f6825466dd62219050600160405180604001604052806040518060400160405280600a81526020017f5061792050616c734023000000000000000000000000000000000000000000008152508152602001600460ff168152509080600181540180825580915050906001820390600052602060002090600202016000909192909190915060008201518160000190805190602001906100c19291906101f7565b5060208201518160010160006101000a81548160ff021916908360ff160217905550505050600160405180604001604052806040518060400160405280600a81526020017f477265656e205465616d000000000000000000000000000000000000000000008152508152602001600960ff1681525090806001815401808255809150509060018203906000526020600020906002020160009091929091909150600082015181600001908051906020019061017d9291906101f7565b5060208201518160010160006101000a81548160ff021916908360ff16021790555050505060016000808373ffffffffffffffffffffffffffffffffffffffff1673ffffffffffffffffffffffffffffffffffffffff1681526020019081526020016000209080546101f0929190610277565b505061045c565b828054600181600116156101000203166002900490600052602060002090601f016020900481019282601f1061023857805160ff1916838001178555610266565b82800160010185558215610266579182015b8281111561026557825182559160200191906001019061024a565b5b5090506102739190610325565b5090565b8280548282559060005260206000209060020281019282156103145760005260206000209160020282015b82811115610313578282600082018160000190805460018160011615610100020316600290046102d392919061034a565b506001820160009054906101000a900460ff168160010160006101000a81548160ff021916908360ff1602179055505050916002019190600201906102a2565b5b50905061032191906103d1565b5090565b61034791905b8082111561034357600081600090555060010161032b565b5090565b90565b828054600181600116156101000203166002900490600052602060002090601f016020900481019282601f1061038357805485556103c0565b828001600101855582156103c057600052602060002091601f016020900482015b828111156103bf5782548255916001019190600101906103a4565b5b5090506103cd9190610325565b5090565b61041191905b8082111561040d57600080820160006103f09190610414565b6001820160006101000a81549060ff0219169055506002016103d7565b5090565b90565b50805460018160011615610100020316600290046000825580601f1061043a5750610459565b601f0160209004906000526020600020908101906104589190610325565b5b50565b6105038061046b6000396000f3fe608060405234801561001057600080fd5b50600436106100415760003560e01c806398cc49151461004657806398cf490d146100fa578063f698b7cc1461018a575b600080fd5b6100726004803603602081101561005c57600080fd5b810190808035906020019092919050505061025e565b60405180806020018360ff1660ff168152602001828103825284818151815260200191508051906020019080838360005b838110156100be5780820151818401526020810190506100a3565b50505050905090810190601f1680156100eb5780820380516001836020036101000a031916815260200191505b50935050505060405180910390f35b610102610334565b60405180806020018360ff1660ff168152602001828103825284818151815260200191508051906020019080838360005b8381101561014e578082015181840152602081019050610133565b50505050905090810190601f16801561017b5780820380516001836020036101000a031916815260200191505b50935050505060405180910390f35b6101d6600480360360408110156101a057600080fd5b81019080803573ffffffffffffffffffffffffffffffffffffffff169060200190929190803590602001909291905050506103eb565b60405180806020018360ff1660ff168152602001828103825284818151815260200191508051906020019080838360005b83811015610222578082015181840152602081019050610207565b50505050905090810190601f16801561024f5780820380516001836020036101000a031916815260200191505b50935050505060405180910390f35b6001818154811061026b57fe5b9060005260206000209060020201600091509050806000018054600181600116156101000203166002900480601f0160208091040260200160405190810160405280929190818152602001828054600181600116156101000203166002900480156103175780601f106102ec57610100808354040283529160200191610317565b820191906000526020600020905b8154815290600101906020018083116102fa57829003601f168201915b5050505050908060010160009054906101000a900460ff16905082565b6002806000018054600181600116156101000203166002900480601f0160208091040260200160405190810160405280929190818152602001828054600181600116156101000203166002900480156103ce5780601f106103a3576101008083540402835291602001916103ce565b820191906000526020600020905b8154815290600101906020018083116103b157829003601f168201915b5050505050908060010160009054906101000a900460ff16905082565b6000602052816000526040600020818154811061040457fe5b906000526020600020906002020160009150915050806000018054600181600116156101000203166002900480601f0160208091040260200160405190810160405280929190818152602001828054600181600116156101000203166002900480156104b15780601f10610486576101008083540402835291602001916104b1565b820191906000526020600020905b81548152906001019060200180831161049457829003601f168201915b5050505050908060010160009054906101000a900460ff1690508256fea265627a7a723158209d6fb4e2973a27fd3578341f21df4f0f4cc08b84c9ef72829ae0820b28c0ee8d64736f6c63430005100032",
  "source": "pragma solidity >=0.4.21 <0.7.0;\n\ncontract ComplexStorage {\n    mapping (address => Group[]) public userToGroups;\n\n    Group[] public groupArray;\n    Group public singleGroup;\n\n    struct Group {\n        string name;\n        uint8 members;\n    }\n\n    constructor() public {\n        address address1 = 0x5EE68F3BFa0b2cc8b1bED1e457F6825466dd6221;\n\n        groupArray.push(Group(\"Pay Pals@#\", 4));\n        groupArray.push(Group(\"Green Team\", 9));\n        \n        userToGroups[address1] = groupArray;\n    }\n}\n",
  "sourcePath": "/home/kc/Development/CS481A3/the-payment-pals/contracts/ComplexStorage.sol",
  "compiler": {
    "name": "solc",
    "version": "0.5.16+commit.9c3226ce.Emscripten.clang"
  },
  "schemaVersion": "3.0.22",
  "updatedAt": "2020-05-03T05:46:57.433Z",
  "networkType": "ethereum",
  "devdoc": {
    "methods": {}
  },
  "userdoc": {
    "methods": {}
  }
}