{
  "contractName": "PaymentHub",
  "abi": [
    {
      "inputs": [],
      "payable": false,
      "stateMutability": "nonpayable",
      "type": "constructor"
    },
    {
      "constant": true,
      "inputs": [
        {
          "internalType": "uint256",
          "name": "",
          "type": "uint256"
        }
      ],
      "name": "groups",
      "outputs": [
        {
          "internalType": "string",
          "name": "name",
          "type": "string"
        },
        {
          "internalType": "uint256",
          "name": "id",
          "type": "uint256"
        }
      ],
      "payable": false,
      "stateMutability": "view",
      "type": "function"
    },
    {
      "constant": true,
      "inputs": [],
      "name": "memberName",
      "outputs": [
        {
          "internalType": "string",
          "name": "",
          "type": "string"
        }
      ],
      "payable": false,
      "stateMutability": "view",
      "type": "function"
    },
    {
      "constant": true,
      "inputs": [
        {
          "internalType": "address",
          "name": "",
          "type": "address"
        }
      ],
      "name": "userToBalance",
      "outputs": [
        {
          "internalType": "int256",
          "name": "",
          "type": "int256"
        }
      ],
      "payable": false,
      "stateMutability": "view",
      "type": "function"
    },
    {
      "constant": true,
      "inputs": [
        {
          "internalType": "address",
          "name": "",
          "type": "address"
        },
        {
          "internalType": "uint256",
          "name": "",
          "type": "uint256"
        }
      ],
      "name": "userToGroups",
      "outputs": [
        {
          "internalType": "string",
          "name": "name",
          "type": "string"
        },
        {
          "internalType": "uint256",
          "name": "id",
          "type": "uint256"
        }
      ],
      "payable": false,
      "stateMutability": "view",
      "type": "function"
    },
    {
      "constant": true,
      "inputs": [
        {
          "internalType": "address",
          "name": "",
          "type": "address"
        }
      ],
      "name": "userToMember",
      "outputs": [
        {
          "internalType": "string",
          "name": "name",
          "type": "string"
        },
        {
          "internalType": "int256",
          "name": "balance",
          "type": "int256"
        },
        {
          "internalType": "address",
          "name": "addy",
          "type": "address"
        },
        {
          "internalType": "bool",
          "name": "nameSet",
          "type": "bool"
        }
      ],
      "payable": false,
      "stateMutability": "view",
      "type": "function"
    },
    {
      "constant": true,
      "inputs": [],
      "name": "getName",
      "outputs": [
        {
          "internalType": "string",
          "name": "",
          "type": "string"
        }
      ],
      "payable": false,
      "stateMutability": "view",
      "type": "function"
    },
    {
      "constant": false,
      "inputs": [
        {
          "internalType": "string",
          "name": "_name",
          "type": "string"
        }
      ],
      "name": "setName",
      "outputs": [],
      "payable": false,
      "stateMutability": "nonpayable",
      "type": "function"
    },
    {
      "constant": false,
      "inputs": [
        {
          "internalType": "string",
          "name": "_groupName",
          "type": "string"
        },
        {
          "internalType": "string",
          "name": "_groupOwnerName",
          "type": "string"
        }
      ],
      "name": "createGroup",
      "outputs": [
        {
          "internalType": "uint256",
          "name": "",
          "type": "uint256"
        }
      ],
      "payable": false,
      "stateMutability": "nonpayable",
      "type": "function"
    },
    {
      "constant": true,
      "inputs": [
        {
          "internalType": "uint256",
          "name": "_gid",
          "type": "uint256"
        }
      ],
      "name": "getGroup",
      "outputs": [
        {
          "internalType": "uint256",
          "name": "",
          "type": "uint256"
        }
      ],
      "payable": false,
      "stateMutability": "view",
      "type": "function"
    },
    {
      "constant": true,
      "inputs": [],
      "name": "getGroupSize",
      "outputs": [
        {
          "internalType": "uint256",
          "name": "",
          "type": "uint256"
        }
      ],
      "payable": false,
      "stateMutability": "view",
      "type": "function"
    },
    {
      "constant": true,
      "inputs": [
        {
          "internalType": "uint256",
          "name": "_gid",
          "type": "uint256"
        },
        {
          "internalType": "uint256",
          "name": "_fid",
          "type": "uint256"
        }
      ],
      "name": "friendInGroup",
      "outputs": [
        {
          "components": [
            {
              "internalType": "string",
              "name": "name",
              "type": "string"
            },
            {
              "internalType": "int256",
              "name": "balance",
              "type": "int256"
            },
            {
              "internalType": "address",
              "name": "addy",
              "type": "address"
            },
            {
              "internalType": "bool",
              "name": "nameSet",
              "type": "bool"
            }
          ],
          "internalType": "struct PaymentHub.Member",
          "name": "",
          "type": "tuple"
        }
      ],
      "payable": false,
      "stateMutability": "view",
      "type": "function"
    },
    {
      "constant": true,
      "inputs": [
        {
          "internalType": "uint256",
          "name": "_gid",
          "type": "uint256"
        }
      ],
      "name": "numFriendsInGroup",
      "outputs": [
        {
          "internalType": "uint256",
          "name": "",
          "type": "uint256"
        }
      ],
      "payable": false,
      "stateMutability": "view",
      "type": "function"
    },
    {
      "constant": false,
      "inputs": [
        {
          "components": [
            {
              "internalType": "string",
              "name": "name",
              "type": "string"
            },
            {
              "internalType": "int256",
              "name": "balance",
              "type": "int256"
            },
            {
              "internalType": "address",
              "name": "addy",
              "type": "address"
            },
            {
              "internalType": "bool",
              "name": "nameSet",
              "type": "bool"
            }
          ],
          "internalType": "struct PaymentHub.Member",
          "name": "_newFriend",
          "type": "tuple"
        },
        {
          "internalType": "uint256",
          "name": "_groupID",
          "type": "uint256"
        }
      ],
      "name": "addFriend",
      "outputs": [],
      "payable": false,
      "stateMutability": "nonpayable",
      "type": "function"
    },
    {
      "constant": false,
      "inputs": [
        {
          "internalType": "address payable",
          "name": "_friend",
          "type": "address"
        },
        {
          "internalType": "uint256",
          "name": "_gid",
          "type": "uint256"
        }
      ],
      "name": "payFriend",
      "outputs": [],
      "payable": true,
      "stateMutability": "payable",
      "type": "function"
    },
    {
      "constant": true,
      "inputs": [
        {
          "internalType": "address",
          "name": "_add",
          "type": "address"
        }
      ],
      "name": "getNumUserGroups",
      "outputs": [
        {
          "internalType": "uint256",
          "name": "",
          "type": "uint256"
        }
      ],
      "payable": false,
      "stateMutability": "view",
      "type": "function"
    },
    {
      "constant": true,
      "inputs": [],
      "name": "isNameSet",
      "outputs": [
        {
          "internalType": "bool",
          "name": "",
          "type": "bool"
        }
      ],
      "payable": false,
      "stateMutability": "view",
      "type": "function"
    },
    {
      "constant": false,
      "inputs": [
        {
          "internalType": "address[]",
          "name": "_payedFor",
          "type": "address[]"
        },
        {
          "internalType": "int256[]",
          "name": "_amounts",
          "type": "int256[]"
        },
        {
          "internalType": "uint256",
          "name": "_gid",
          "type": "uint256"
        }
      ],
      "name": "transaction",
      "outputs": [],
      "payable": false,
      "stateMutability": "nonpayable",
      "type": "function"
    }
  ],
  "bytecode": "0x6080604090815233600090815260026020819052919020805462000036926004929160001961010060018316150201160462000593565b503480156200004457600080fd5b50620000956040518060400160405280600781526020016650617950616c7360c81b8152506040518060400160405280600781526020016621b932b0ba37b960c91b815250620001ef60201b60201c565b50620000ea6040518060400160405280600b81526020016a5061796d656e7450616c7360a81b8152506040518060400160405280600781526020016621b932b0ba37b960c91b815250620001ef60201b60201c565b50620000f56200061f565b506040805160c0810182526009608082019081526821b7b337bab73232b960b91b60a0830152815260c86020820152736a46ef78714f530e995369b03bb9f471583d114d9181019190915260006060820152620001516200061f565b506040805160c0810182526008608082019081526724b73b32b9ba37b960c11b60a083015281526127106020820152732c10f237735e65e777d33348475000d9fae0b7dd91810191909152600060608201819052620001bb9083906001600160e01b036200047116565b620001d18260026001600160e01b036200047116565b620001e78160026001600160e01b036200047116565b5050620008d4565b6003805460009162000205906001830162000652565b50600380546000919060001981019081106200021d57fe5b90600052602060002090600302019050620002376200061f565b506040805160808101825284815260006020808301829052338385018190526001606085015282526002815292902081518051929384936200027d928492019062000686565b506020828101516001808401919091556040840151600290930180546060909501511515600160a01b0260ff60a01b196001600160a01b039095166001600160a01b03199096169590951793909316939093179091558382018054928301808255600091825290829020845180519294869460039091029092019262000307928492019062000686565b5060208281015160018301556040830151600290920180546060909401511515600160a01b0260ff60a01b196001600160a01b039094166001600160a01b0319909516949094179290921692909217905586516200036b9250849188019062000686565b5060038054600019908101600285810191909155336000908152602081815260408220805460018082018084559285529290932088549196899694020193620003c593859387939081161561010002909101160462000593565b5060018281018054620003dc9284019190620006f9565b5060029182015490820155600380546001818101808455600084905287549095508794929093027fc2575a0e9e593c00f959f8c92f12db2869c3395a3b0502d05e2516446f71f85b0192620004469284928692610100918116159190910260001901160462000593565b50600182810180546200045d9284019190620006f9565b506002918201549101555091949350505050565b600381815481106200047f57fe5b6000918252602080832060039283020160019081018054918201808255908552938290208651805188959390930290910192620004c29284929091019062000686565b506020828101516001830155604080840151600293840180546060909601516001600160a01b03199096166001600160a01b039283161760ff60a01b1916600160a01b96151596909602959095179094558681015190931660009081529181529190208451805186945091926200053f9284929091019062000686565b50602082015160018201556040820151600290910180546060909301511515600160a01b0260ff60a01b196001600160a01b039093166001600160a01b031990941693909317919091169190911790555050565b828054600181600116156101000203166002900490600052602060002090601f016020900481019282601f10620005ce57805485556200060d565b828001600101855582156200060d57600052602060002091601f016020900482015b828111156200060d578254825591600101919060010190620005f0565b506200061b929150620007c6565b5090565b6040518060800160405280606081526020016000815260200160006001600160a01b031681526020016000151581525090565b8154818355818111156200068157600302816003028360005260206000209182019101620006819190620007e6565b505050565b828054600181600116156101000203166002900490600052602060002090601f016020900481019282601f10620006c957805160ff19168380011785556200060d565b828001600101855582156200060d579182015b828111156200060d578251825591602001919060010190620006dc565b828054828255906000526020600020906003028101928215620007b85760005260206000209160030282015b82811115620007b8578254839083906200075690829084906002600019610100600184161502019091160462000593565b5060018281015490820155600291820180549290910180546001600160a01b0319166001600160a01b0390931692909217808355905460ff600160a01b918290041615150260ff60a01b19909116179055600392830192919091019062000725565b506200061b92915062000825565b620007e391905b808211156200061b5760008155600101620007cd565b90565b620007e391905b808211156200061b57600062000804828262000866565b62000814600183016000620008b1565b5060006002820155600301620007ed565b620007e391905b808211156200061b57600062000843828262000866565b50600060018201556002810180546001600160a81b03191690556003016200082c565b50805460018160011615610100020316600290046000825580601f106200088e5750620008ae565b601f016020900490600052602060002090810190620008ae9190620007c6565b50565b5080546000825560030290600052602060002090810190620008ae919062000825565b611dba80620008e46000396000f3fe6080604052600436106100fe5760003560e01c806396324bd411610095578063d1a154a311610064578063d1a154a3146102a2578063d5953ae9146102b7578063d67c6888146102e7578063dc33be0e14610307578063f698b7cc14610327576100fe565b806396324bd414610212578063a47514db14610240578063c47f002714610262578063ceb6065414610282576100fe565b806317d7de7c116100d157806317d7de7c146101905780631e4a97dd146101a557806342c91d09146101d25780638fd69931146101f2576100fe565b806302dbc2c714610103578063047adfee1461012557806307c21383146101385780630fa4ff1514610163575b600080fd5b34801561010f57600080fd5b5061012361011e366004611aa7565b610347565b005b61012361013336600461195d565b610464565b34801561014457600080fd5b5061014d6106a5565b60405161015a9190611bea565b60405180910390f35b34801561016f57600080fd5b5061018361017e366004611afb565b610733565b60405161015a9190611c65565b34801561019c57600080fd5b5061014d610849565b3480156101b157600080fd5b506101c56101c0366004611a48565b610931565b60405161015a9190611bdc565b3480156101de57600080fd5b506101c56101ed366004611add565b610ba0565b3480156101fe57600080fd5b5061012361020d366004611997565b610bc9565b34801561021e57600080fd5b5061023261022d366004611add565b610e2b565b60405161015a929190611c45565b34801561024c57600080fd5b50610255610ee1565b60405161015a9190611bce565b34801561026e57600080fd5b5061012361027d366004611a13565b610fc9565b34801561028e57600080fd5b506101c561029d366004611add565b6110e0565b3480156102ae57600080fd5b506101c5611108565b3480156102c357600080fd5b506102d76102d2366004611937565b61110e565b60405161015a9493929190611c02565b3480156102f357600080fd5b506101c5610302366004611937565b6111ca565b34801561031357600080fd5b506101c5610322366004611937565b6111e5565b34801561033357600080fd5b5061023261034236600461195d565b6111f7565b6003818154811061035457fe5b60009182526020808320600392830201600190810180549182018082559085529382902086518051889593909302909101926103959284929091019061143f565b506020828101516001830155604080840151600293840180546060909601516001600160a01b03199096166001600160a01b039283161760ff60a01b1916600160a01b96151596909602959095179094558681015190931660009081529181529190208451805186945091926104109284929091019061143f565b50602082015160018201556040820151600290910180546060909301511515600160a01b0260ff60a01b196001600160a01b039093166001600160a01b031990941693909317919091169190911790555050565b6040516001600160a01b038316903480156108fc02916000818181858888f19350505050158015610499573d6000803e3d6000fd5b506104a26114bd565b336000908152600260208181526040928390208351815460a0601f6000196101006001851615020190921695909504908101849004909302810184019094526080840182815290928492849184018282801561053f5780601f106105145761010080835404028352916020019161053f565b820191906000526020600020905b81548152906001019060200180831161052257829003601f168201915b5050509183525050600182015460208201526002909101546001600160a01b0381166040830152600160a01b900460ff1615156060909101529050670de0b6b3a76400003460208301805192909104909103905261059d818361127e565b506001600160a01b0383166000908152600260208181526040928390208351815460a0601f600019610100600185161502019092169590950490810184900490930281018401909452608084018281529092849284918401828280156106445780601f1061061957610100808354040283529160200191610644565b820191906000526020600020905b81548152906001019060200180831161062757829003601f168201915b505050918352505060018201546020808301919091526002909201546001600160a01b0381166040830152600160a01b900460ff16151560609091015281018051670de0b6b3a76400003404019052905061069f818361127e565b50505050565b6004805460408051602060026001851615610100026000190190941693909304601f8101849004840282018401909252818152929183018282801561072b5780601f106107005761010080835404028352916020019161072b565b820191906000526020600020905b81548152906001019060200180831161070e57829003601f168201915b505050505081565b61073b6114bd565b6003838154811061074857fe5b9060005260206000209060030201600101828154811061076457fe5b600091825260209182902060408051600393909302909101805460026001821615610100026000190190911604601f8101859004909402830160a090810190925260808301848152929390928492909184918401828280156108075780601f106107dc57610100808354040283529160200191610807565b820191906000526020600020905b8154815290600101906020018083116107ea57829003601f168201915b5050509183525050600182015460208201526002909101546001600160a01b0381166040830152600160a01b900460ff16151560609091015290505b92915050565b60606108536114bd565b336000908152600260208181526040928390208351815460a0601f600019610100600185161502019092169590950490810184900490930281018401909452608084018281529092849284918401828280156108f05780601f106108c5576101008083540402835291602001916108f0565b820191906000526020600020905b8154815290600101906020018083116108d357829003601f168201915b5050509183525050600182015460208201526002909101546001600160a01b0381166040830152600160a01b900460ff161515606090910152519150505b90565b6003805460009161094590600183016114f0565b506003805460009190600019810190811061095c57fe5b906000526020600020906003020190506109746114bd565b506040805160808101825284815260006020808301829052338385018190526001606085015282526002815292902081518051929384936109b8928492019061143f565b506020828101516001808401919091556040840151600290930180546060909501511515600160a01b0260ff60a01b196001600160a01b039095166001600160a01b031990961695909517939093169390931790915583820180549283018082556000918252908290208451805192948694600390910290920192610a40928492019061143f565b5060208281015160018301556040830151600290920180546060909401511515600160a01b0260ff60a01b196001600160a01b039094166001600160a01b031990951694909417929092169290921790558651610aa29250849188019061143f565b5060038054600019908101600285810191909155336000908152602081815260408220805460018082018084559285529290932088549196899694020193610afa938593879390811615610100029091011604611521565b5060018281018054610b0f9284019190611596565b5060029182015490820155600380546001818101808455600084905287549095508794929093027fc2575a0e9e593c00f959f8c92f12db2869c3395a3b0502d05e2516446f71f85b0192610b7792849286926101009181161591909102600019011604611521565b5060018281018054610b8c9284019190611596565b506002918201549101555091949350505050565b600060038281548110610baf57fe5b600091825260209091206001600390920201015492915050565b6000610bd36114bd565b60005b8551811015610d315760026000878381518110610bef57fe5b6020908102919091018101516001600160a01b031682528181019290925260409081016000208151815460026001821615610100026000190190911604601f8101859004909402810160a0908101909352608081018481529093919284928491840182828015610ca05780601f10610c7557610100808354040283529160200191610ca0565b820191906000526020600020905b815481529060010190602001808311610c8357829003601f168201915b5050509183525050600182015460208201526002909101546001600160a01b0381166040830152600160a01b900460ff1615156060909101528551909250859082908110610cea57fe5b6020026020010151826020018181510391508181525050610d0b828561127e565b50848181518110610d1857fe5b6020026020010151830192508080600101915050610bd6565b50336000908152600260208181526040928390208351815460a0601f60001961010060018516150201909216959095049081018490049093028101840190945260808401828152909284928491840182828015610dcf5780601f10610da457610100808354040283529160200191610dcf565b820191906000526020600020905b815481529060010190602001808311610db257829003601f168201915b505050918352505060018201546020808301919091526002909201546001600160a01b0381166040830152600160a01b900460ff161515606090910152810180518401905290506000610e22828561127e565b50505050505050565b60038181548110610e3857fe5b60009182526020918290206003919091020180546040805160026001841615610100026000190190931692909204601f810185900485028301850190915280825291935091839190830182828015610ed15780601f10610ea657610100808354040283529160200191610ed1565b820191906000526020600020905b815481529060010190602001808311610eb457829003601f168201915b5050505050908060020154905082565b6000610eeb6114bd565b336000908152600260208181526040928390208351815460a0601f60001961010060018516150201909216959095049081018490049093028101840190945260808401828152909284928491840182828015610f885780601f10610f5d57610100808354040283529160200191610f88565b820191906000526020600020905b815481529060010190602001808311610f6b57829003601f168201915b5050509183525050600182015460208201526002909101546001600160a01b0381166040830152600160a01b900460ff161515606091820152015192915050565b610fd16114bd565b336000908152600260208181526040928390208351815460a0601f6000196101006001851615020190921695909504908101849004909302810184019094526080840182815290928492849184018282801561106e5780601f106110435761010080835404028352916020019161106e565b820191906000526020600020905b81548152906001019060200180831161105157829003601f168201915b50505091835250506001828101546020808401919091526002938401546001600160a01b038116604080860191909152600160a01b90910460ff16151560609485015287865292850191909152336000908152928152912082518051939450849391926104109284929091019061143f565b6000600382815481106110ef57fe5b9060005260206000209060030201600201549050919050565b60035490565b600260208181526000928352604092839020805484516001821615610100026000190190911693909304601f810183900483028401830190945283835292839183018282801561119f5780601f106111745761010080835404028352916020019161119f565b820191906000526020600020905b81548152906001019060200180831161118257829003601f168201915b5050505060018301546002909301549192916001600160a01b0381169150600160a01b900460ff1684565b6001600160a01b031660009081526020819052604090205490565b60016020526000908152604090205481565b6000602052816000526040600020818154811061121057fe5b60009182526020918290206003919091020180546040805160026001841615610100026000190190931692909204601f810185900485028301850190915280825291945092508391830182828015610ed15780601f10610ea657610100808354040283529160200191610ed1565b6000805b6003838154811061128f57fe5b9060005260206000209060030201600101805490508110156114355783604001516001600160a01b0316600384815481106112c657fe5b906000526020600020906003020160010182815481106112e257fe5b60009182526020909120600260039092020101546001600160a01b0316141561142d57836003848154811061131357fe5b9060005260206000209060030201600101828154811061132f57fe5b9060005260206000209060030201600082015181600001908051906020019061135992919061143f565b506020828101516001830155604080840151600293840180546060909601516001600160a01b03199096166001600160a01b039283161760ff60a01b1916600160a01b96151596909602959095179094558781015190931660009081529181529190208551805187936113d092849291019061143f565b5060208201516001808301919091556040830151600290920180546060909401511515600160a01b0260ff60a01b196001600160a01b039094166001600160a01b0319909516949094179290921692909217905591506108439050565b600101611282565b5060009392505050565b828054600181600116156101000203166002900490600052602060002090601f016020900481019282601f1061148057805160ff19168380011785556114ad565b828001600101855582156114ad579182015b828111156114ad578251825591602001919060010190611492565b506114b992915061165c565b5090565b6040518060800160405280606081526020016000815260200160006001600160a01b031681526020016000151581525090565b81548183558181111561151c5760030281600302836000526020600020918201910161151c9190611676565b505050565b828054600181600116156101000203166002900490600052602060002090601f016020900481019282601f1061155a57805485556114ad565b828001600101855582156114ad57600052602060002091601f016020900482015b828111156114ad57825482559160010191906001019061157b565b8280548282559060005260206000209060030281019282156116505760005260206000209160030282015b82811115611650578254839083906115ef908290849060026000196101006001841615020190911604611521565b5060018281015490820155600291820180549290910180546001600160a01b0319166001600160a01b0390931692909217808355905460ff600160a01b918290041615150260ff60a01b1990911617905560039283019291909101906115c1565b506114b99291506116ae565b61092e91905b808211156114b95760008155600101611662565b61092e91905b808211156114b957600061169082826116ea565b61169e600183016000611731565b506000600282015560030161167c565b61092e91905b808211156114b95760006116c882826116ea565b50600060018201556002810180546001600160a81b03191690556003016116b4565b50805460018160011615610100020316600290046000825580601f10611710575061172e565b601f01602090049060005260206000209081019061172e919061165c565b50565b508054600082556003029060005260206000209081019061172e91906116ae565b803561084381611d51565b600082601f83011261176e57600080fd5b813561178161177c82611c9d565b611c76565b915081818352602084019350602081019050838560208402820111156117a657600080fd5b60005b838110156117d257816117bc8882611752565b84525060209283019291909101906001016117a9565b5050505092915050565b600082601f8301126117ed57600080fd5b81356117fb61177c82611c9d565b9150818183526020840193506020810190508385602084028201111561182057600080fd5b60005b838110156117d257816118368882611857565b8452506020928301929190910190600101611823565b803561084381611d65565b803561084381611d6e565b600082601f83011261187357600080fd5b813561188161177c82611cbe565b9150808252602083016020830185838301111561189d57600080fd5b6118a8838284611d0f565b50505092915050565b6000608082840312156118c357600080fd5b6118cd6080611c76565b9050813567ffffffffffffffff8111156118e657600080fd5b6118f284828501611862565b825250602061190384848301611857565b602083015250604061191784828501611752565b604083015250606061192b8482850161184c565b60608301525092915050565b60006020828403121561194957600080fd5b60006119558484611752565b949350505050565b6000806040838503121561197057600080fd5b600061197c8585611752565b925050602061198d85828601611857565b9150509250929050565b6000806000606084860312156119ac57600080fd5b833567ffffffffffffffff8111156119c357600080fd5b6119cf8682870161175d565b935050602084013567ffffffffffffffff8111156119ec57600080fd5b6119f8868287016117dc565b9250506040611a0986828701611857565b9150509250925092565b600060208284031215611a2557600080fd5b813567ffffffffffffffff811115611a3c57600080fd5b61195584828501611862565b60008060408385031215611a5b57600080fd5b823567ffffffffffffffff811115611a7257600080fd5b611a7e85828601611862565b925050602083013567ffffffffffffffff811115611a9b57600080fd5b61198d85828601611862565b60008060408385031215611aba57600080fd5b823567ffffffffffffffff811115611ad157600080fd5b61197c858286016118b1565b600060208284031215611aef57600080fd5b60006119558484611857565b60008060408385031215611b0e57600080fd5b600061197c8585611857565b611b2381611cf3565b82525050565b611b2381611cfe565b611b238161092e565b6000611b4682611ce6565b611b508185611cea565b9350611b60818560208601611d1b565b611b6981611d47565b9093019392505050565b8051608080845260009190840190611b8b8282611b3b565b9150506020830151611ba06020860182611b32565b506040830151611bb36040860182611b1a565b506060830151611bc66060860182611b29565b509392505050565b602081016108438284611b29565b602081016108438284611b32565b60208082528101611bfb8184611b3b565b9392505050565b60808082528101611c138187611b3b565b9050611c226020830186611b32565b611c2f6040830185611b1a565b611c3c6060830184611b29565b95945050505050565b60408082528101611c568185611b3b565b9050611bfb6020830184611b32565b60208082528101611bfb8184611b73565b60405181810167ffffffffffffffff81118282101715611c9557600080fd5b604052919050565b600067ffffffffffffffff821115611cb457600080fd5b5060209081020190565b600067ffffffffffffffff821115611cd557600080fd5b506020601f91909101601f19160190565b5190565b90815260200190565b600061084382611d03565b151590565b6001600160a01b031690565b82818337506000910152565b60005b83811015611d36578181015183820152602001611d1e565b8381111561069f5750506000910152565b601f01601f191690565b611d5a81611cf3565b811461172e57600080fd5b611d5a81611cfe565b611d5a8161092e56fea365627a7a723158201dc34576b1740edf6c0ef8aba63b1235657fa53cdc35bfd30d3b6adb763d943e6c6578706572696d656e74616cf564736f6c63430005100040",
  "source": "pragma experimental ABIEncoderV2;\n\n// Uncomment for console.log support\n// import \"@nomiclabs/buidler/console.sol\";\n\n\ncontract PaymentHub {\n\n    // Mapping for finding a user's groups\n    mapping (address => Group[]) public userToGroups;\n    mapping (address => int256) public userToBalance;\n    mapping (address => Member) public userToMember;\n\n    Group[] public groups; // The contract stores all groups, serves as a hub. Various groups will not interact with each other\n\n\tstring public memberName = string(userToMember[msg.sender].name);\n\n    struct Member {\n        string name;\n        int balance;\n        address addy;\n\t\tbool nameSet;\n    }\n\n    struct Group {\n        string name;\n        Member[] friends;\n        uint256 id;\n    }\n\n    constructor() public {\n        // This data structure found at\n        // https://bit.ly/3azD3fx\n        createGroup(\"PayPals\", \"Creator\");\n        createGroup(\"PaymentPals\", \"Creator\");\n        Member memory member = Member(\"Cofounder\", 200, address(0x6A46eF78714f530e995369B03BB9F471583D114D), false);\n        Member memory member2 = Member(\"Investor\", 10000, address(0x2C10f237735e65e777D33348475000d9FAe0b7Dd), false);\n        addFriend(member, 0);\n        addFriend(member, 2); // For some reason PaymentPals is group 2, not 1?\n        addFriend(member2, 2);\n    }\n\n\tfunction getName() view external returns(string memory){\n\t\tMember memory member = userToMember[msg.sender];\n\t\treturn member.name;\n\t}\n\n\tfunction setName(string memory _name) public {\n\t\tMember memory member = userToMember[msg.sender];\n\t\tmember.name = _name;\n\t\tmember.nameSet = true;\n\t\tuserToMember[msg.sender] = member;\n\t}\n\n    function createGroup(string memory _groupName, string memory _groupOwnerName) public returns(uint) {\n        groups.length++;\n        Group storage group = groups[groups.length - 1];\n\t\t\n        Member memory member = Member(_groupOwnerName, 0, msg.sender, true);\n\t\tuserToMember[msg.sender] = member;\n        group.friends.push(member); // Add the first member, which is the creator\n\n        group.name = _groupName; // Manually set the group name\n        group.id = groups.length - 1;\n\n        userToGroups[msg.sender].push(group);\n\n        groups.push(group);\n    }\n\n    function getGroup(uint _gid) public view returns (uint) {\n        return groups[_gid].id;\n    }\n\n    // Mainly for testing, can be removed later\n    function getGroupSize() public view returns (uint) {\n        return groups.length;\n    }\n\n    // Mainly for testing, can be removed later\n    function friendInGroup(uint _gid, uint _fid) public view returns (Member memory) {\n        return groups[_gid].friends[_fid];\n    }\n\n    // Mainly for testing, can be removed later\n    function numFriendsInGroup(uint _gid) public view returns (uint) {\n        return groups[_gid].friends.length;\n    }\n\n    function addFriend(Member memory _newFriend, uint _groupID) public {\n        groups[_groupID].friends.push(_newFriend);\n        userToMember[_newFriend.addy] = _newFriend;\n    }\n\n    function payFriend(address payable _friend, uint _gid) external payable {\n        _friend.transfer(msg.value);\n        Member memory member = userToMember[msg.sender];\n        member.balance -= int(msg.value/1000000000000000000);\n        updateMember(member, _gid);\n\n        member = userToMember[_friend];\n        member.balance += int(msg.value/1000000000000000000);\n        updateMember(member, _gid);\n    }\n\n    function getNumUserGroups(address _add) public view returns (uint){\n        return userToGroups[_add].length;\n    }\n\n\tfunction isNameSet() public view returns(bool){\n\t\tMember memory member = userToMember[msg.sender];\n\t\treturn member.nameSet;\n\t}\n\n    function updateMember(Member memory member, uint _gid) internal returns (bool) {\n        for (uint i = 0; i < groups[_gid].friends.length; i++) {\n            if(groups[_gid].friends[i].addy == member.addy) {\n                groups[_gid].friends[i] = member;\n                userToMember[member.addy] = member;\n                return true;\n            }\n        }\n        return false;\n    }\n\n    // consider renaming to payForFriends a\n    function transaction(address[] memory _payedFor, int[] memory _amounts, uint _gid) public {\n        int total = 0;\n        Member memory member;\n        for (uint i = 0; i < _payedFor.length; i++) {\n            member = userToMember[_payedFor[i]];\n            member.balance -= _amounts[i];\n            updateMember(member, _gid);\n            total += _amounts[i];\n        }\n        member = userToMember[msg.sender];\n        member.balance += total;\n        //console.log(\"Total being added to sender's balance\", total);\n        //console.log(\"Sender:\", member.name, member.balance);\n        bool result = updateMember(member, _gid);\n        //console.log(\"Result of updating member\", result);\n    }\n\n}\n",
  "sourcePath": "/home/kc/Development/CS481A3/the-payment-pals/contracts/PaymentHub.sol",
  "compiler": {
    "name": "solc",
    "version": "0.5.16+commit.9c3226ce.Emscripten.clang"
  },
  "schemaVersion": "3.0.22",
  "updatedAt": "2020-05-07T20:48:31.027Z",
  "networkType": "ethereum",
  "devdoc": {
    "methods": {}
  },
  "userdoc": {
    "methods": {}
  }
}