{
  "contractName": "PaymentHub",
  "abi": [
    {
      "inputs": [],
      "payable": false,
      "stateMutability": "nonpayable",
      "type": "constructor"
    },
    {
      "constant": true,
      "inputs": [
        {
          "internalType": "uint256",
          "name": "",
          "type": "uint256"
        }
      ],
      "name": "groups",
      "outputs": [
        {
          "internalType": "string",
          "name": "name",
          "type": "string"
        },
        {
          "internalType": "uint256",
          "name": "id",
          "type": "uint256"
        }
      ],
      "payable": false,
      "stateMutability": "view",
      "type": "function"
    },
    {
      "constant": true,
      "inputs": [],
      "name": "memberName",
      "outputs": [
        {
          "internalType": "string",
          "name": "",
          "type": "string"
        }
      ],
      "payable": false,
      "stateMutability": "view",
      "type": "function"
    },
    {
      "constant": true,
      "inputs": [
        {
          "internalType": "address",
          "name": "",
          "type": "address"
        }
      ],
      "name": "userToBalance",
      "outputs": [
        {
          "internalType": "int256",
          "name": "",
          "type": "int256"
        }
      ],
      "payable": false,
      "stateMutability": "view",
      "type": "function"
    },
    {
      "constant": true,
      "inputs": [
        {
          "internalType": "address",
          "name": "",
          "type": "address"
        },
        {
          "internalType": "uint256",
          "name": "",
          "type": "uint256"
        }
      ],
      "name": "userToGroups",
      "outputs": [
        {
          "internalType": "string",
          "name": "name",
          "type": "string"
        },
        {
          "internalType": "uint256",
          "name": "id",
          "type": "uint256"
        }
      ],
      "payable": false,
      "stateMutability": "view",
      "type": "function"
    },
    {
      "constant": true,
      "inputs": [
        {
          "internalType": "address",
          "name": "",
          "type": "address"
        }
      ],
      "name": "userToMember",
      "outputs": [
        {
          "internalType": "string",
          "name": "name",
          "type": "string"
        },
        {
          "internalType": "int256",
          "name": "balance",
          "type": "int256"
        },
        {
          "internalType": "address",
          "name": "addy",
          "type": "address"
        },
        {
          "internalType": "bool",
          "name": "nameSet",
          "type": "bool"
        }
      ],
      "payable": false,
      "stateMutability": "view",
      "type": "function"
    },
    {
      "constant": true,
      "inputs": [],
      "name": "getName",
      "outputs": [
        {
          "internalType": "string",
          "name": "",
          "type": "string"
        }
      ],
      "payable": false,
      "stateMutability": "view",
      "type": "function"
    },
    {
      "constant": false,
      "inputs": [
        {
          "internalType": "string",
          "name": "_name",
          "type": "string"
        }
      ],
      "name": "setName",
      "outputs": [],
      "payable": false,
      "stateMutability": "nonpayable",
      "type": "function"
    },
    {
      "constant": false,
      "inputs": [
        {
          "internalType": "string",
          "name": "_groupName",
          "type": "string"
        },
        {
          "internalType": "string",
          "name": "_groupOwnerName",
          "type": "string"
        }
      ],
      "name": "createGroup",
      "outputs": [
        {
          "internalType": "uint256",
          "name": "",
          "type": "uint256"
        }
      ],
      "payable": false,
      "stateMutability": "nonpayable",
      "type": "function"
    },
    {
      "constant": true,
      "inputs": [
        {
          "internalType": "uint256",
          "name": "_gid",
          "type": "uint256"
        }
      ],
      "name": "getGroup",
      "outputs": [
        {
          "internalType": "uint256",
          "name": "",
          "type": "uint256"
        }
      ],
      "payable": false,
      "stateMutability": "view",
      "type": "function"
    },
    {
      "constant": true,
      "inputs": [],
      "name": "getGroupSize",
      "outputs": [
        {
          "internalType": "uint256",
          "name": "",
          "type": "uint256"
        }
      ],
      "payable": false,
      "stateMutability": "view",
      "type": "function"
    },
    {
      "constant": true,
      "inputs": [
        {
          "internalType": "uint256",
          "name": "_gid",
          "type": "uint256"
        },
        {
          "internalType": "uint256",
          "name": "_fid",
          "type": "uint256"
        }
      ],
      "name": "friendInGroup",
      "outputs": [
        {
          "components": [
            {
              "internalType": "string",
              "name": "name",
              "type": "string"
            },
            {
              "internalType": "int256",
              "name": "balance",
              "type": "int256"
            },
            {
              "internalType": "address",
              "name": "addy",
              "type": "address"
            },
            {
              "internalType": "bool",
              "name": "nameSet",
              "type": "bool"
            }
          ],
          "internalType": "struct PaymentHub.Member",
          "name": "",
          "type": "tuple"
        }
      ],
      "payable": false,
      "stateMutability": "view",
      "type": "function"
    },
    {
      "constant": true,
      "inputs": [
        {
          "internalType": "uint256",
          "name": "_gid",
          "type": "uint256"
        }
      ],
      "name": "numFriendsInGroup",
      "outputs": [
        {
          "internalType": "uint256",
          "name": "",
          "type": "uint256"
        }
      ],
      "payable": false,
      "stateMutability": "view",
      "type": "function"
    },
    {
      "constant": false,
      "inputs": [
        {
          "components": [
            {
              "internalType": "string",
              "name": "name",
              "type": "string"
            },
            {
              "internalType": "int256",
              "name": "balance",
              "type": "int256"
            },
            {
              "internalType": "address",
              "name": "addy",
              "type": "address"
            },
            {
              "internalType": "bool",
              "name": "nameSet",
              "type": "bool"
            }
          ],
          "internalType": "struct PaymentHub.Member",
          "name": "_newFriend",
          "type": "tuple"
        },
        {
          "internalType": "uint256",
          "name": "_groupID",
          "type": "uint256"
        }
      ],
      "name": "addFriend",
      "outputs": [],
      "payable": false,
      "stateMutability": "nonpayable",
      "type": "function"
    },
    {
      "constant": false,
      "inputs": [
        {
          "internalType": "address payable",
          "name": "_friend",
          "type": "address"
        }
      ],
      "name": "payFriend",
      "outputs": [],
      "payable": true,
      "stateMutability": "payable",
      "type": "function"
    },
    {
      "constant": true,
      "inputs": [
        {
          "internalType": "address",
          "name": "_add",
          "type": "address"
        }
      ],
      "name": "getNumUserGroups",
      "outputs": [
        {
          "internalType": "uint256",
          "name": "",
          "type": "uint256"
        }
      ],
      "payable": false,
      "stateMutability": "view",
      "type": "function"
    },
    {
      "constant": true,
      "inputs": [],
      "name": "isNameSet",
      "outputs": [
        {
          "internalType": "bool",
          "name": "",
          "type": "bool"
        }
      ],
      "payable": false,
      "stateMutability": "view",
      "type": "function"
    },
    {
      "constant": false,
      "inputs": [
        {
          "internalType": "address[]",
          "name": "_payedFor",
          "type": "address[]"
        },
        {
          "internalType": "int256[]",
          "name": "_amounts",
          "type": "int256[]"
        }
      ],
      "name": "transaction",
      "outputs": [],
      "payable": false,
      "stateMutability": "nonpayable",
      "type": "function"
    }
  ],
  "bytecode": "0x6080604052600260003373ffffffffffffffffffffffffffffffffffffffff1673ffffffffffffffffffffffffffffffffffffffff168152602001908152602001600020600001600490805460018160011615610100020316600290046200006992919062000740565b503480156200007757600080fd5b50620000f46040518060400160405280600781526020017f50617950616c73000000000000000000000000000000000000000000000000008152506040518060400160405280600781526020017f43726561746f7200000000000000000000000000000000000000000000000000815250620002d460201b60201c565b50620001716040518060400160405280600b81526020017f5061796d656e7450616c730000000000000000000000000000000000000000008152506040518060400160405280600781526020017f43726561746f7200000000000000000000000000000000000000000000000000815250620002d460201b60201c565b506200017c620007ce565b60405180608001604052806040518060400160405280600981526020017f436f666f756e6465720000000000000000000000000000000000000000000000815250815260200160c88152602001736a46ef78714f530e995369b03bb9f471583d114d73ffffffffffffffffffffffffffffffffffffffff1681526020016000151581525090506200020c620007ce565b60405180608001604052806040518060400160405280600881526020017f496e766573746f7200000000000000000000000000000000000000000000000081525081526020016127108152602001732c10f237735e65e777d33348475000d9fae0b7dd73ffffffffffffffffffffffffffffffffffffffff168152602001600015158152509050620002a68260006200065e60201b60201c565b620002b98260026200065e60201b60201c565b620002cc8160026200065e60201b60201c565b505062000c63565b600060038054809190600101620002ec91906200080e565b5060006003600160038054905003815481106200030557fe5b906000526020600020906003020190506200031f620007ce565b6040518060800160405280858152602001600081526020013373ffffffffffffffffffffffffffffffffffffffff16815260200160001515815250905080600260003373ffffffffffffffffffffffffffffffffffffffff1673ffffffffffffffffffffffffffffffffffffffff1681526020019081526020016000206000820151816000019080519060200190620003ba92919062000843565b506020820151816001015560408201518160020160006101000a81548173ffffffffffffffffffffffffffffffffffffffff021916908373ffffffffffffffffffffffffffffffffffffffff16021790555060608201518160020160146101000a81548160ff02191690831515021790555090505081600101819080600181540180825580915050906001820390600052602060002090600302016000909192909190915060008201518160000190805190602001906200047d92919062000843565b506020820151816001015560408201518160020160006101000a81548173ffffffffffffffffffffffffffffffffffffffff021916908373ffffffffffffffffffffffffffffffffffffffff16021790555060608201518160020160146101000a81548160ff021916908315150217905550505050848260000190805190602001906200050c929190620008ca565b5060016003805490500382600201819055506000803373ffffffffffffffffffffffffffffffffffffffff1673ffffffffffffffffffffffffffffffffffffffff168152602001908152602001600020829080600181540180825580915050906001820390600052602060002090600302016000909192909190915060008201816000019080546001816001161561010002031660029004620005b192919062000951565b506001820181600101908054620005ca929190620009df565b506002820154816002015550505060038290806001815401808255809150509060018203906000526020600020906003020160009091929091909150600082018160000190805460018160011615610100020316600290046200062f92919062000951565b50600182018160010190805462000648929190620009df565b5060028201548160020155505050505092915050565b600381815481106200066c57fe5b906000526020600020906003020160010182908060018154018082558091505090600182039060005260206000209060030201600090919290919091506000820151816000019080519060200190620006c792919062000843565b506020820151816001015560408201518160020160006101000a81548173ffffffffffffffffffffffffffffffffffffffff021916908373ffffffffffffffffffffffffffffffffffffffff16021790555060608201518160020160146101000a81548160ff0219169083151502179055505050505050565b828054600181600116156101000203166002900490600052602060002090601f016020900481019282601f106200077b5780548555620007bb565b82800160010185558215620007bb57600052602060002091601f016020900482015b82811115620007ba5782548255916001019190600101906200079d565b5b509050620007ca919062000b04565b5090565b60405180608001604052806060815260200160008152602001600073ffffffffffffffffffffffffffffffffffffffff1681526020016000151581525090565b8154818355818111156200083e576003028160030283600052602060002091820191016200083d919062000b2c565b5b505050565b828054600181600116156101000203166002900490600052602060002090601f016020900481019282601f106200088657805160ff1916838001178555620008b7565b82800160010185558215620008b7579182015b82811115620008b657825182559160200191906001019062000899565b5b509050620008c6919062000b04565b5090565b828054600181600116156101000203166002900490600052602060002090601f016020900481019282601f106200090d57805160ff19168380011785556200093e565b828001600101855582156200093e579182015b828111156200093d57825182559160200191906001019062000920565b5b5090506200094d919062000b04565b5090565b828054600181600116156101000203166002900490600052602060002090601f016020900481019282601f106200098c5780548555620009cc565b82800160010185558215620009cc57600052602060002091601f016020900482015b82811115620009cb578254825591600101919060010190620009ae565b5b509050620009db919062000b04565b5090565b82805482825590600052602060002090600302810192821562000af15760005260206000209160030282015b8281111562000af05782826000820181600001908054600181600116156101000203166002900462000a3f92919062000951565b50600182015481600101556002820160009054906101000a900473ffffffffffffffffffffffffffffffffffffffff168160020160006101000a81548173ffffffffffffffffffffffffffffffffffffffff021916908373ffffffffffffffffffffffffffffffffffffffff1602179055506002820160149054906101000a900460ff168160020160146101000a81548160ff02191690831515021790555050509160030191906003019062000a0b565b5b50905062000b00919062000b7a565b5090565b62000b2991905b8082111562000b2557600081600090555060010162000b0b565b5090565b90565b62000b7791905b8082111562000b73576000808201600062000b4f919062000bf1565b60018201600062000b61919062000c3d565b60028201600090555060030162000b33565b5090565b90565b62000bee91905b8082111562000bea576000808201600062000b9d919062000bf1565b60018201600090556002820160006101000a81549073ffffffffffffffffffffffffffffffffffffffff02191690556002820160146101000a81549060ff02191690555060030162000b81565b5090565b90565b50805460018160011615610100020316600290046000825580601f1062000c19575062000c3a565b601f01602090049060005260206000209081019062000c39919062000b04565b5b50565b508054600082556003029060005260206000209081019062000c60919062000b7a565b50565b6124138062000c736000396000f3fe6080604052600436106100fe5760003560e01c8063c47f002711610095578063d5953ae911610064578063d5953ae91461034f578063d67c68881461038f578063dc33be0e146103cc578063e5bed59e14610409578063f698b7cc14610432576100fe565b8063c47f0027146102a2578063c9ae9173146102cb578063ceb60654146102e7578063d1a154a314610324576100fe565b80631e4a97dd116100d15780631e4a97dd146101bf57806342c91d09146101fc57806396324bd414610239578063a47514db14610277576100fe565b806302dbc2c71461010357806307c213831461012c5780630fa4ff151461015757806317d7de7c14610194575b600080fd5b34801561010f57600080fd5b5061012a60048036036101259190810190611e36565b610470565b005b34801561013857600080fd5b5061014161054f565b60405161014e919061209c565b60405180910390f35b34801561016357600080fd5b5061017e60048036036101799190810190611eb3565b6105ed565b60405161018b919061215c565b60405180910390f35b3480156101a057600080fd5b506101a961075c565b6040516101b691906120be565b60405180910390f35b3480156101cb57600080fd5b506101e660048036036101e19190810190611dca565b6108da565b6040516101f3919061217e565b60405180910390f35b34801561020857600080fd5b50610223600480360361021e9190810190611e8a565b610c51565b604051610230919061217e565b60405180910390f35b34801561024557600080fd5b50610260600480360361025b9190810190611e8a565b610c7c565b60405161026e92919061212c565b60405180910390f35b34801561028357600080fd5b5061028c610d45565b6040516102999190612066565b60405180910390f35b3480156102ae57600080fd5b506102c960048036036102c49190810190611d89565b610ec3565b005b6102e560048036036102e09190810190611cb8565b611123565b005b3480156102f357600080fd5b5061030e60048036036103099190810190611e8a565b611229565b60405161031b919061217e565b60405180910390f35b34801561033057600080fd5b50610339611251565b604051610346919061217e565b60405180910390f35b34801561035b57600080fd5b5061037660048036036103719190810190611c8f565b61125e565b60405161038694939291906120e0565b60405180910390f35b34801561039b57600080fd5b506103b660048036036103b19190810190611c8f565b611353565b6040516103c3919061217e565b60405180910390f35b3480156103d857600080fd5b506103f360048036036103ee9190810190611c8f565b61139e565b6040516104009190612081565b60405180910390f35b34801561041557600080fd5b50610430600480360361042b9190810190611d1d565b6113b6565b005b34801561043e57600080fd5b5061045960048036036104549190810190611ce1565b6114b5565b60405161046792919061212c565b60405180910390f35b6003818154811061047d57fe5b9060005260206000209060030201600101829080600181540180825580915050906001820390600052602060002090600302016000909192909190915060008201518160000190805190602001906104d692919061158b565b506020820151816001015560408201518160020160006101000a81548173ffffffffffffffffffffffffffffffffffffffff021916908373ffffffffffffffffffffffffffffffffffffffff16021790555060608201518160020160146101000a81548160ff0219169083151502179055505050505050565b60048054600181600116156101000203166002900480601f0160208091040260200160405190810160405280929190818152602001828054600181600116156101000203166002900480156105e55780601f106105ba576101008083540402835291602001916105e5565b820191906000526020600020905b8154815290600101906020018083116105c857829003601f168201915b505050505081565b6105f561160b565b6003838154811061060257fe5b9060005260206000209060030201600101828154811061061e57fe5b9060005260206000209060030201604051806080016040529081600082018054600181600116156101000203166002900480601f0160208091040260200160405190810160405280929190818152602001828054600181600116156101000203166002900480156106d05780601f106106a5576101008083540402835291602001916106d0565b820191906000526020600020905b8154815290600101906020018083116106b357829003601f168201915b50505050508152602001600182015481526020016002820160009054906101000a900473ffffffffffffffffffffffffffffffffffffffff1673ffffffffffffffffffffffffffffffffffffffff1673ffffffffffffffffffffffffffffffffffffffff1681526020016002820160149054906101000a900460ff161515151581525050905092915050565b606061076661160b565b600260003373ffffffffffffffffffffffffffffffffffffffff1673ffffffffffffffffffffffffffffffffffffffff168152602001908152602001600020604051806080016040529081600082018054600181600116156101000203166002900480601f0160208091040260200160405190810160405280929190818152602001828054600181600116156101000203166002900480156108495780601f1061081e57610100808354040283529160200191610849565b820191906000526020600020905b81548152906001019060200180831161082c57829003601f168201915b50505050508152602001600182015481526020016002820160009054906101000a900473ffffffffffffffffffffffffffffffffffffffff1673ffffffffffffffffffffffffffffffffffffffff1673ffffffffffffffffffffffffffffffffffffffff1681526020016002820160149054906101000a900460ff1615151515815250509050806000015191505090565b6000600380548091906001016108f0919061164b565b50600060036001600380549050038154811061090857fe5b9060005260206000209060030201905061092061160b565b6040518060800160405280858152602001600081526020013373ffffffffffffffffffffffffffffffffffffffff16815260200160001515815250905080600260003373ffffffffffffffffffffffffffffffffffffffff1673ffffffffffffffffffffffffffffffffffffffff16815260200190815260200160002060008201518160000190805190602001906109b992919061158b565b506020820151816001015560408201518160020160006101000a81548173ffffffffffffffffffffffffffffffffffffffff021916908373ffffffffffffffffffffffffffffffffffffffff16021790555060608201518160020160146101000a81548160ff0219169083151502179055509050508160010181908060018154018082558091505090600182039060005260206000209060030201600090919290919091506000820151816000019080519060200190610a7a92919061158b565b506020820151816001015560408201518160020160006101000a81548173ffffffffffffffffffffffffffffffffffffffff021916908373ffffffffffffffffffffffffffffffffffffffff16021790555060608201518160020160146101000a81548160ff02191690831515021790555050505084826000019080519060200190610b0792919061167d565b5060016003805490500382600201819055506000803373ffffffffffffffffffffffffffffffffffffffff1673ffffffffffffffffffffffffffffffffffffffff168152602001908152602001600020829080600181540180825580915050906001820390600052602060002090600302016000909192909190915060008201816000019080546001816001161561010002031660029004610baa9291906116fd565b506001820181600101908054610bc1929190611784565b50600282015481600201555050506003829080600181540180825580915050906001820390600052602060002090600302016000909192909190915060008201816000019080546001816001161561010002031660029004610c249291906116fd565b506001820181600101908054610c3b929190611784565b5060028201548160020155505050505092915050565b600060038281548110610c6057fe5b9060005260206000209060030201600101805490509050919050565b60038181548110610c8957fe5b9060005260206000209060030201600091509050806000018054600181600116156101000203166002900480601f016020809104026020016040519081016040528092919081815260200182805460018160011615610100020316600290048015610d355780601f10610d0a57610100808354040283529160200191610d35565b820191906000526020600020905b815481529060010190602001808311610d1857829003601f168201915b5050505050908060020154905082565b6000610d4f61160b565b600260003373ffffffffffffffffffffffffffffffffffffffff1673ffffffffffffffffffffffffffffffffffffffff168152602001908152602001600020604051806080016040529081600082018054600181600116156101000203166002900480601f016020809104026020016040519081016040528092919081815260200182805460018160011615610100020316600290048015610e325780601f10610e0757610100808354040283529160200191610e32565b820191906000526020600020905b815481529060010190602001808311610e1557829003601f168201915b50505050508152602001600182015481526020016002820160009054906101000a900473ffffffffffffffffffffffffffffffffffffffff1673ffffffffffffffffffffffffffffffffffffffff1673ffffffffffffffffffffffffffffffffffffffff1681526020016002820160149054906101000a900460ff1615151515815250509050806060015191505090565b610ecb61160b565b600260003373ffffffffffffffffffffffffffffffffffffffff1673ffffffffffffffffffffffffffffffffffffffff168152602001908152602001600020604051806080016040529081600082018054600181600116156101000203166002900480601f016020809104026020016040519081016040528092919081815260200182805460018160011615610100020316600290048015610fae5780601f10610f8357610100808354040283529160200191610fae565b820191906000526020600020905b815481529060010190602001808311610f9157829003601f168201915b50505050508152602001600182015481526020016002820160009054906101000a900473ffffffffffffffffffffffffffffffffffffffff1673ffffffffffffffffffffffffffffffffffffffff1673ffffffffffffffffffffffffffffffffffffffff1681526020016002820160149054906101000a900460ff1615151515815250509050818160000181905250600181606001901515908115158152505080600260003373ffffffffffffffffffffffffffffffffffffffff1673ffffffffffffffffffffffffffffffffffffffff16815260200190815260200160002060008201518160000190805190602001906110aa92919061158b565b506020820151816001015560408201518160020160006101000a81548173ffffffffffffffffffffffffffffffffffffffff021916908373ffffffffffffffffffffffffffffffffffffffff16021790555060608201518160020160146101000a81548160ff0219169083151502179055509050505050565b8073ffffffffffffffffffffffffffffffffffffffff166108fc349081150290604051600060405180830381858888f19350505050158015611169573d6000803e3d6000fd5b50670de0b6b3a7640000348161117b57fe5b04600160003373ffffffffffffffffffffffffffffffffffffffff1673ffffffffffffffffffffffffffffffffffffffff16815260200190815260200160002060008282540392505081905550670de0b6b3a764000034816111d957fe5b04600160008373ffffffffffffffffffffffffffffffffffffffff1673ffffffffffffffffffffffffffffffffffffffff1681526020019081526020016000206000828254019250508190555050565b60006003828154811061123857fe5b9060005260206000209060030201600201549050919050565b6000600380549050905090565b6002602052806000526040600020600091509050806000018054600181600116156101000203166002900480601f01602080910402602001604051908101604052809291908181526020018280546001816001161561010002031660029004801561130a5780601f106112df5761010080835404028352916020019161130a565b820191906000526020600020905b8154815290600101906020018083116112ed57829003601f168201915b5050505050908060010154908060020160009054906101000a900473ffffffffffffffffffffffffffffffffffffffff16908060020160149054906101000a900460ff16905084565b60008060008373ffffffffffffffffffffffffffffffffffffffff1673ffffffffffffffffffffffffffffffffffffffff168152602001908152602001600020805490509050919050565b60016020528060005260406000206000915090505481565b600080905060008090505b8351811015611462578281815181106113d657fe5b6020026020010151600160008684815181106113ee57fe5b602002602001015173ffffffffffffffffffffffffffffffffffffffff1673ffffffffffffffffffffffffffffffffffffffff1681526020019081526020016000206000828254039250508190555082818151811061144957fe5b60200260200101518201915080806001019150506113c1565b5080600160003373ffffffffffffffffffffffffffffffffffffffff1673ffffffffffffffffffffffffffffffffffffffff16815260200190815260200160002060008282540192505081905550505050565b600060205281600052604060002081815481106114ce57fe5b906000526020600020906003020160009150915050806000018054600181600116156101000203166002900480601f01602080910402602001604051908101604052809291908181526020018280546001816001161561010002031660029004801561157b5780601f106115505761010080835404028352916020019161157b565b820191906000526020600020905b81548152906001019060200180831161155e57829003601f168201915b5050505050908060020154905082565b828054600181600116156101000203166002900490600052602060002090601f016020900481019282601f106115cc57805160ff19168380011785556115fa565b828001600101855582156115fa579182015b828111156115f95782518255916020019190600101906115de565b5b50905061160791906118a2565b5090565b60405180608001604052806060815260200160008152602001600073ffffffffffffffffffffffffffffffffffffffff1681526020016000151581525090565b8154818355818111156116785760030281600302836000526020600020918201910161167791906118c7565b5b505050565b828054600181600116156101000203166002900490600052602060002090601f016020900481019282601f106116be57805160ff19168380011785556116ec565b828001600101855582156116ec579182015b828111156116eb5782518255916020019190600101906116d0565b5b5090506116f991906118a2565b5090565b828054600181600116156101000203166002900490600052602060002090601f016020900481019282601f106117365780548555611773565b8280016001018555821561177357600052602060002091601f016020900482015b82811115611772578254825591600101919060010190611757565b5b50905061178091906118a2565b5090565b8280548282559060005260206000209060030281019282156118915760005260206000209160030282015b82811115611890578282600082018160000190805460018160011615610100020316600290046117e09291906116fd565b50600182015481600101556002820160009054906101000a900473ffffffffffffffffffffffffffffffffffffffff168160020160006101000a81548173ffffffffffffffffffffffffffffffffffffffff021916908373ffffffffffffffffffffffffffffffffffffffff1602179055506002820160149054906101000a900460ff168160020160146101000a81548160ff0219169083151502179055505050916003019190600301906117af565b5b50905061189e919061190e565b5090565b6118c491905b808211156118c05760008160009055506001016118a8565b5090565b90565b61190b91905b8082111561190757600080820160006118e69190611980565b6001820160006118f691906119c8565b6002820160009055506003016118cd565b5090565b90565b61197d91905b80821115611979576000808201600061192d9190611980565b60018201600090556002820160006101000a81549073ffffffffffffffffffffffffffffffffffffffff02191690556002820160146101000a81549060ff021916905550600301611914565b5090565b90565b50805460018160011615610100020316600290046000825580601f106119a657506119c5565b601f0160209004906000526020600020908101906119c491906118a2565b5b50565b50805460008255600302906000526020600020908101906119e9919061190e565b50565b6000813590506119fb8161235d565b92915050565b600081359050611a1081612374565b92915050565b600082601f830112611a2757600080fd5b8135611a3a611a35826121c6565b612199565b91508181835260208401935060208101905083856020840282011115611a5f57600080fd5b60005b83811015611a8f5781611a7588826119ec565b845260208401935060208301925050600181019050611a62565b5050505092915050565b600082601f830112611aaa57600080fd5b8135611abd611ab8826121ee565b612199565b91508181835260208401935060208101905083856020840282011115611ae257600080fd5b60005b83811015611b125781611af88882611b31565b845260208401935060208301925050600181019050611ae5565b5050505092915050565b600081359050611b2b8161238b565b92915050565b600081359050611b40816123a2565b92915050565b600082601f830112611b5757600080fd5b8135611b6a611b6582612216565b612199565b91508082526020830160208301858383011115611b8657600080fd5b611b9183828461230a565b50505092915050565b600082601f830112611bab57600080fd5b8135611bbe611bb982612242565b612199565b91508082526020830160208301858383011115611bda57600080fd5b611be583828461230a565b50505092915050565b600060808284031215611c0057600080fd5b611c0a6080612199565b9050600082013567ffffffffffffffff811115611c2657600080fd5b611c3284828501611b46565b6000830152506020611c4684828501611b31565b6020830152506040611c5a848285016119ec565b6040830152506060611c6e84828501611b1c565b60608301525092915050565b600081359050611c89816123b9565b92915050565b600060208284031215611ca157600080fd5b6000611caf848285016119ec565b91505092915050565b600060208284031215611cca57600080fd5b6000611cd884828501611a01565b91505092915050565b60008060408385031215611cf457600080fd5b6000611d02858286016119ec565b9250506020611d1385828601611c7a565b9150509250929050565b60008060408385031215611d3057600080fd5b600083013567ffffffffffffffff811115611d4a57600080fd5b611d5685828601611a16565b925050602083013567ffffffffffffffff811115611d7357600080fd5b611d7f85828601611a99565b9150509250929050565b600060208284031215611d9b57600080fd5b600082013567ffffffffffffffff811115611db557600080fd5b611dc184828501611b9a565b91505092915050565b60008060408385031215611ddd57600080fd5b600083013567ffffffffffffffff811115611df757600080fd5b611e0385828601611b9a565b925050602083013567ffffffffffffffff811115611e2057600080fd5b611e2c85828601611b9a565b9150509250929050565b60008060408385031215611e4957600080fd5b600083013567ffffffffffffffff811115611e6357600080fd5b611e6f85828601611bee565b9250506020611e8085828601611c7a565b9150509250929050565b600060208284031215611e9c57600080fd5b6000611eaa84828501611c7a565b91505092915050565b60008060408385031215611ec657600080fd5b6000611ed485828601611c7a565b9250506020611ee585828601611c7a565b9150509250929050565b611ef8816122a6565b82525050565b611f07816122a6565b82525050565b611f16816122ca565b82525050565b611f25816122ca565b82525050565b611f34816122d6565b82525050565b611f43816122d6565b82525050565b6000611f5482612279565b611f5e8185612295565b9350611f6e818560208601612319565b611f778161234c565b840191505092915050565b6000611f8d8261226e565b611f978185612284565b9350611fa7818560208601612319565b611fb08161234c565b840191505092915050565b6000611fc68261226e565b611fd08185612295565b9350611fe0818560208601612319565b611fe98161234c565b840191505092915050565b600060808301600083015184820360008601526120118282611f82565b91505060208301516120266020860182611f2b565b5060408301516120396040860182611eef565b50606083015161204c6060860182611f0d565b508091505092915050565b61206081612300565b82525050565b600060208201905061207b6000830184611f1c565b92915050565b60006020820190506120966000830184611f3a565b92915050565b600060208201905081810360008301526120b68184611fbb565b905092915050565b600060208201905081810360008301526120d88184611f49565b905092915050565b600060808201905081810360008301526120fa8187611fbb565b90506121096020830186611f3a565b6121166040830185611efe565b6121236060830184611f1c565b95945050505050565b600060408201905081810360008301526121468185611fbb565b90506121556020830184612057565b9392505050565b600060208201905081810360008301526121768184611ff4565b905092915050565b60006020820190506121936000830184612057565b92915050565b6000604051905081810181811067ffffffffffffffff821117156121bc57600080fd5b8060405250919050565b600067ffffffffffffffff8211156121dd57600080fd5b602082029050602081019050919050565b600067ffffffffffffffff82111561220557600080fd5b602082029050602081019050919050565b600067ffffffffffffffff82111561222d57600080fd5b601f19601f8301169050602081019050919050565b600067ffffffffffffffff82111561225957600080fd5b601f19601f8301169050602081019050919050565b600081519050919050565b600081519050919050565b600082825260208201905092915050565b600082825260208201905092915050565b60006122b1826122e0565b9050919050565b60006122c3826122e0565b9050919050565b60008115159050919050565b6000819050919050565b600073ffffffffffffffffffffffffffffffffffffffff82169050919050565b6000819050919050565b82818337600083830152505050565b60005b8381101561233757808201518184015260208101905061231c565b83811115612346576000848401525b50505050565b6000601f19601f8301169050919050565b612366816122a6565b811461237157600080fd5b50565b61237d816122b8565b811461238857600080fd5b50565b612394816122ca565b811461239f57600080fd5b50565b6123ab816122d6565b81146123b657600080fd5b50565b6123c281612300565b81146123cd57600080fd5b5056fea365627a7a72315820eb112163e4aa2b51e6fea442f26ef7044478c9813c15787408575bfe80ae24df6c6578706572696d656e74616cf564736f6c63430005100040",
  "source": "pragma experimental ABIEncoderV2;\n\ncontract PaymentHub {\n\n    // Mapping for finding a user's groups\n    mapping (address => Group[]) public userToGroups;\n    mapping (address => int256) public userToBalance;\n    mapping (address => Member) public userToMember;\n\n    Group[] public groups; // The contract stores all groups, serves as a hub. Various groups will not interact with each other\n\n\tstring public memberName = string(userToMember[msg.sender].name);\n\n    struct Member {\n        string name;\n        int balance;\n        address addy;\n\t\tbool nameSet;\n    }\n\n    struct Group {\n        string name;\n        Member[] friends;\n        uint256 id;\n    }\n\n    constructor() public {\n        // This data structure found at\n        // https://bit.ly/3azD3fx\n        createGroup(\"PayPals\", \"Creator\");\n        createGroup(\"PaymentPals\", \"Creator\");\n        Member memory member = Member(\"Cofounder\", 200, address(0x6A46eF78714f530e995369B03BB9F471583D114D), false);\n        Member memory member2 = Member(\"Investor\", 10000, address(0x2C10f237735e65e777D33348475000d9FAe0b7Dd), false);\n        addFriend(member, 0);\n        addFriend(member, 2); // For some reason PaymentPals is group 2, not 1?\n        addFriend(member2, 2);\n    }\n\n\tfunction getName() view external returns(string memory){\n\t\tMember memory member = userToMember[msg.sender];\n\t\treturn member.name;\n\t}\n\n\tfunction setName(string memory _name) public {\n\t\tMember memory member = userToMember[msg.sender];\n\t\tmember.name = _name;\n\t\tmember.nameSet = true;\n\t\tuserToMember[msg.sender] = member;\n\t}\n\n    function createGroup(string memory _groupName, string memory _groupOwnerName) public returns(uint) {\n        groups.length++;\n        Group storage group = groups[groups.length - 1];\n\t\t\n        Member memory member = Member(_groupOwnerName, 0, msg.sender, false);\n\t\tuserToMember[msg.sender] = member;\n        group.friends.push(member); // Add the first member, which is the creator\n\n        group.name = _groupName; // Manually set the group name\n        group.id = groups.length - 1;\n\n        userToGroups[msg.sender].push(group);\n\n        groups.push(group);\n    }\n\n    function getGroup(uint _gid) public view returns (uint) {\n        return groups[_gid].id;\n    }\n\n    // Mainly for testing, can be removed later\n    function getGroupSize() public view returns (uint) {\n        return groups.length;\n    }\n\n    // Mainly for testing, can be removed later\n    function friendInGroup(uint _gid, uint _fid) public view returns (Member memory) {\n        return groups[_gid].friends[_fid];\n    }\n\n    // Mainly for testing, can be removed later\n    function numFriendsInGroup(uint _gid) public view returns (uint) {\n        return groups[_gid].friends.length;\n    }\n\n    function addFriend(Member memory _newFriend, uint _groupID) public {\n        groups[_groupID].friends.push(_newFriend);\n    }\n\n    function payFriend(address payable  _friend) external payable {\n        _friend.transfer(msg.value);\n        userToBalance[msg.sender] -= int(msg.value/1000000000000000000);\n        userToBalance[_friend] += int(msg.value/1000000000000000000);\n    }\n\n    function getNumUserGroups(address _add) public view returns (uint){\n        return userToGroups[_add].length;\n    }\n\n\tfunction isNameSet() public view returns(bool){\n\t\tMember memory member = userToMember[msg.sender];\n\t\treturn member.nameSet;\n\t}\n\n\n    // consider renaming to payForFriends ok\n    function transaction(address[] memory _payedFor, int[] memory _amounts) public {\n        int total = 0;\n        for (uint i = 0; i < _payedFor.length; i++) {\n            userToBalance[_payedFor[i]] -= _amounts[i];\n            total += _amounts[i];\n        }\n        userToBalance[msg.sender] += total;\n    }\n\n}\n",
  "sourcePath": "/home/kc/Development/CS481A3/the-payment-pals/contracts/PaymentHub.sol",
  "compiler": {
    "name": "solc",
    "version": "0.5.16+commit.9c3226ce.Emscripten.clang"
  },
  "schemaVersion": "3.0.22",
  "updatedAt": "2020-05-07T05:32:31.632Z",
  "networkType": "ethereum",
  "devdoc": {
    "methods": {}
  },
  "userdoc": {
    "methods": {}
  }
}