{
  "contractName": "PaymentHub",
  "abi": [
    {
      "inputs": [],
      "payable": false,
      "stateMutability": "nonpayable",
      "type": "constructor"
    },
    {
      "constant": true,
      "inputs": [
        {
          "internalType": "uint256",
          "name": "",
          "type": "uint256"
        }
      ],
      "name": "groups",
      "outputs": [
        {
          "internalType": "string",
          "name": "name",
          "type": "string"
        },
        {
          "internalType": "uint256",
          "name": "id",
          "type": "uint256"
        }
      ],
      "payable": false,
      "stateMutability": "view",
      "type": "function"
    },
    {
      "constant": true,
      "inputs": [],
      "name": "memberName",
      "outputs": [
        {
          "internalType": "string",
          "name": "",
          "type": "string"
        }
      ],
      "payable": false,
      "stateMutability": "view",
      "type": "function"
    },
    {
      "constant": true,
      "inputs": [
        {
          "internalType": "address",
          "name": "",
          "type": "address"
        }
      ],
      "name": "userToBalance",
      "outputs": [
        {
          "internalType": "int256",
          "name": "",
          "type": "int256"
        }
      ],
      "payable": false,
      "stateMutability": "view",
      "type": "function"
    },
    {
      "constant": true,
      "inputs": [
        {
          "internalType": "address",
          "name": "",
          "type": "address"
        },
        {
          "internalType": "uint256",
          "name": "",
          "type": "uint256"
        }
      ],
      "name": "userToGroups",
      "outputs": [
        {
          "internalType": "string",
          "name": "name",
          "type": "string"
        },
        {
          "internalType": "uint256",
          "name": "id",
          "type": "uint256"
        }
      ],
      "payable": false,
      "stateMutability": "view",
      "type": "function"
    },
    {
      "constant": true,
      "inputs": [
        {
          "internalType": "address",
          "name": "",
          "type": "address"
        }
      ],
      "name": "userToMember",
      "outputs": [
        {
          "internalType": "string",
          "name": "name",
          "type": "string"
        },
        {
          "internalType": "uint256",
          "name": "balance",
          "type": "uint256"
        },
        {
          "internalType": "address",
          "name": "addy",
          "type": "address"
        },
        {
          "internalType": "bool",
          "name": "nameSet",
          "type": "bool"
        }
      ],
      "payable": false,
      "stateMutability": "view",
      "type": "function"
    },
    {
      "constant": true,
      "inputs": [],
      "name": "getName",
      "outputs": [
        {
          "internalType": "string",
          "name": "",
          "type": "string"
        }
      ],
      "payable": false,
      "stateMutability": "view",
      "type": "function"
    },
    {
      "constant": false,
      "inputs": [
        {
          "internalType": "string",
          "name": "_name",
          "type": "string"
        }
      ],
      "name": "setName",
      "outputs": [],
      "payable": false,
      "stateMutability": "nonpayable",
      "type": "function"
    },
    {
      "constant": false,
      "inputs": [
        {
          "internalType": "string",
          "name": "_groupName",
          "type": "string"
        },
        {
          "internalType": "string",
          "name": "_groupOwnerName",
          "type": "string"
        }
      ],
      "name": "createGroup",
      "outputs": [
        {
          "internalType": "uint256",
          "name": "",
          "type": "uint256"
        }
      ],
      "payable": false,
      "stateMutability": "nonpayable",
      "type": "function"
    },
    {
      "constant": true,
      "inputs": [
        {
          "internalType": "uint256",
          "name": "_gid",
          "type": "uint256"
        }
      ],
      "name": "getGroup",
      "outputs": [
        {
          "internalType": "uint256",
          "name": "",
          "type": "uint256"
        }
      ],
      "payable": false,
      "stateMutability": "view",
      "type": "function"
    },
    {
      "constant": true,
      "inputs": [],
      "name": "getGroupSize",
      "outputs": [
        {
          "internalType": "uint256",
          "name": "",
          "type": "uint256"
        }
      ],
      "payable": false,
      "stateMutability": "view",
      "type": "function"
    },
    {
      "constant": true,
      "inputs": [
        {
          "internalType": "uint256",
          "name": "_gid",
          "type": "uint256"
        },
        {
          "internalType": "uint256",
          "name": "_fid",
          "type": "uint256"
        }
      ],
      "name": "friendInGroup",
      "outputs": [
        {
          "components": [
            {
              "internalType": "string",
              "name": "name",
              "type": "string"
            },
            {
              "internalType": "uint256",
              "name": "balance",
              "type": "uint256"
            },
            {
              "internalType": "address",
              "name": "addy",
              "type": "address"
            },
            {
              "internalType": "bool",
              "name": "nameSet",
              "type": "bool"
            }
          ],
          "internalType": "struct PaymentHub.Member",
          "name": "",
          "type": "tuple"
        }
      ],
      "payable": false,
      "stateMutability": "view",
      "type": "function"
    },
    {
      "constant": true,
      "inputs": [
        {
          "internalType": "uint256",
          "name": "_gid",
          "type": "uint256"
        }
      ],
      "name": "numFriendsInGroup",
      "outputs": [
        {
          "internalType": "uint256",
          "name": "",
          "type": "uint256"
        }
      ],
      "payable": false,
      "stateMutability": "view",
      "type": "function"
    },
    {
      "constant": false,
      "inputs": [
        {
          "components": [
            {
              "internalType": "string",
              "name": "name",
              "type": "string"
            },
            {
              "internalType": "uint256",
              "name": "balance",
              "type": "uint256"
            },
            {
              "internalType": "address",
              "name": "addy",
              "type": "address"
            },
            {
              "internalType": "bool",
              "name": "nameSet",
              "type": "bool"
            }
          ],
          "internalType": "struct PaymentHub.Member",
          "name": "_newFriend",
          "type": "tuple"
        },
        {
          "internalType": "uint256",
          "name": "_groupID",
          "type": "uint256"
        }
      ],
      "name": "addFriend",
      "outputs": [],
      "payable": false,
      "stateMutability": "nonpayable",
      "type": "function"
    },
    {
      "constant": false,
      "inputs": [
        {
          "internalType": "address payable",
          "name": "_friend",
          "type": "address"
        }
      ],
      "name": "payFriend",
      "outputs": [],
      "payable": true,
      "stateMutability": "payable",
      "type": "function"
    },
    {
      "constant": true,
      "inputs": [
        {
          "internalType": "address",
          "name": "_add",
          "type": "address"
        }
      ],
      "name": "getNumUserGroups",
      "outputs": [
        {
          "internalType": "uint256",
          "name": "",
          "type": "uint256"
        }
      ],
      "payable": false,
      "stateMutability": "view",
      "type": "function"
    },
    {
      "constant": true,
      "inputs": [],
      "name": "isNameSet",
      "outputs": [
        {
          "internalType": "bool",
          "name": "",
          "type": "bool"
        }
      ],
      "payable": false,
      "stateMutability": "view",
      "type": "function"
    },
    {
      "constant": false,
      "inputs": [
        {
          "internalType": "address[]",
          "name": "_payedFor",
          "type": "address[]"
        },
        {
          "internalType": "uint256[]",
          "name": "_amounts",
          "type": "uint256[]"
        },
        {
          "internalType": "uint256",
          "name": "_gid",
          "type": "uint256"
        }
      ],
      "name": "transaction",
      "outputs": [],
      "payable": false,
      "stateMutability": "nonpayable",
      "type": "function"
    }
  ],
  "bytecode": "0x6080604052600260003373ffffffffffffffffffffffffffffffffffffffff1673ffffffffffffffffffffffffffffffffffffffff168152602001908152602001600020600001600490805460018160011615610100020316600290046200006992919062000817565b503480156200007757600080fd5b50620000f46040518060400160405280600781526020017f50617950616c73000000000000000000000000000000000000000000000000008152506040518060400160405280600781526020017f43726561746f7200000000000000000000000000000000000000000000000000815250620002d460201b60201c565b50620001716040518060400160405280600b81526020017f5061796d656e7450616c730000000000000000000000000000000000000000008152506040518060400160405280600781526020017f43726561746f7200000000000000000000000000000000000000000000000000815250620002d460201b60201c565b506200017c620008a5565b60405180608001604052806040518060400160405280600981526020017f436f666f756e6465720000000000000000000000000000000000000000000000815250815260200160c88152602001736a46ef78714f530e995369b03bb9f471583d114d73ffffffffffffffffffffffffffffffffffffffff1681526020016000151581525090506200020c620008a5565b60405180608001604052806040518060400160405280600881526020017f496e766573746f7200000000000000000000000000000000000000000000000081525081526020016127108152602001732c10f237735e65e777d33348475000d9fae0b7dd73ffffffffffffffffffffffffffffffffffffffff168152602001600015158152509050620002a68260006200065e60201b60201c565b620002b98260026200065e60201b60201c565b620002cc8160026200065e60201b60201c565b505062000d3a565b600060038054809190600101620002ec9190620008e5565b5060006003600160038054905003815481106200030557fe5b906000526020600020906003020190506200031f620008a5565b6040518060800160405280858152602001600081526020013373ffffffffffffffffffffffffffffffffffffffff16815260200160011515815250905080600260003373ffffffffffffffffffffffffffffffffffffffff1673ffffffffffffffffffffffffffffffffffffffff1681526020019081526020016000206000820151816000019080519060200190620003ba9291906200091a565b506020820151816001015560408201518160020160006101000a81548173ffffffffffffffffffffffffffffffffffffffff021916908373ffffffffffffffffffffffffffffffffffffffff16021790555060608201518160020160146101000a81548160ff02191690831515021790555090505081600101819080600181540180825580915050906001820390600052602060002090600302016000909192909190915060008201518160000190805190602001906200047d9291906200091a565b506020820151816001015560408201518160020160006101000a81548173ffffffffffffffffffffffffffffffffffffffff021916908373ffffffffffffffffffffffffffffffffffffffff16021790555060608201518160020160146101000a81548160ff021916908315150217905550505050848260000190805190602001906200050c929190620009a1565b5060016003805490500382600201819055506000803373ffffffffffffffffffffffffffffffffffffffff1673ffffffffffffffffffffffffffffffffffffffff168152602001908152602001600020829080600181540180825580915050906001820390600052602060002090600302016000909192909190915060008201816000019080546001816001161561010002031660029004620005b192919062000a28565b506001820181600101908054620005ca92919062000ab6565b506002820154816002015550505060038290806001815401808255809150509060018203906000526020600020906003020160009091929091909150600082018160000190805460018160011615610100020316600290046200062f92919062000a28565b5060018201816001019080546200064892919062000ab6565b5060028201548160020155505050505092915050565b600381815481106200066c57fe5b906000526020600020906003020160010182908060018154018082558091505090600182039060005260206000209060030201600090919290919091506000820151816000019080519060200190620006c79291906200091a565b506020820151816001015560408201518160020160006101000a81548173ffffffffffffffffffffffffffffffffffffffff021916908373ffffffffffffffffffffffffffffffffffffffff16021790555060608201518160020160146101000a81548160ff0219169083151502179055505050508160026000846040015173ffffffffffffffffffffffffffffffffffffffff1673ffffffffffffffffffffffffffffffffffffffff16815260200190815260200160002060008201518160000190805190602001906200079e9291906200091a565b506020820151816001015560408201518160020160006101000a81548173ffffffffffffffffffffffffffffffffffffffff021916908373ffffffffffffffffffffffffffffffffffffffff16021790555060608201518160020160146101000a81548160ff0219169083151502179055509050505050565b828054600181600116156101000203166002900490600052602060002090601f016020900481019282601f1062000852578054855562000892565b828001600101855582156200089257600052602060002091601f016020900482015b828111156200089157825482559160010191906001019062000874565b5b509050620008a1919062000bdb565b5090565b60405180608001604052806060815260200160008152602001600073ffffffffffffffffffffffffffffffffffffffff1681526020016000151581525090565b815481835581811115620009155760030281600302836000526020600020918201910162000914919062000c03565b5b505050565b828054600181600116156101000203166002900490600052602060002090601f016020900481019282601f106200095d57805160ff19168380011785556200098e565b828001600101855582156200098e579182015b828111156200098d57825182559160200191906001019062000970565b5b5090506200099d919062000bdb565b5090565b828054600181600116156101000203166002900490600052602060002090601f016020900481019282601f10620009e457805160ff191683800117855562000a15565b8280016001018555821562000a15579182015b8281111562000a14578251825591602001919060010190620009f7565b5b50905062000a24919062000bdb565b5090565b828054600181600116156101000203166002900490600052602060002090601f016020900481019282601f1062000a63578054855562000aa3565b8280016001018555821562000aa357600052602060002091601f016020900482015b8281111562000aa257825482559160010191906001019062000a85565b5b50905062000ab2919062000bdb565b5090565b82805482825590600052602060002090600302810192821562000bc85760005260206000209160030282015b8281111562000bc75782826000820181600001908054600181600116156101000203166002900462000b1692919062000a28565b50600182015481600101556002820160009054906101000a900473ffffffffffffffffffffffffffffffffffffffff168160020160006101000a81548173ffffffffffffffffffffffffffffffffffffffff021916908373ffffffffffffffffffffffffffffffffffffffff1602179055506002820160149054906101000a900460ff168160020160146101000a81548160ff02191690831515021790555050509160030191906003019062000ae2565b5b50905062000bd7919062000c51565b5090565b62000c0091905b8082111562000bfc57600081600090555060010162000be2565b5090565b90565b62000c4e91905b8082111562000c4a576000808201600062000c26919062000cc8565b60018201600062000c38919062000d14565b60028201600090555060030162000c0a565b5090565b90565b62000cc591905b8082111562000cc1576000808201600062000c74919062000cc8565b60018201600090556002820160006101000a81549073ffffffffffffffffffffffffffffffffffffffff02191690556002820160146101000a81549060ff02191690555060030162000c58565b5090565b90565b50805460018160011615610100020316600290046000825580601f1062000cf0575062000d11565b601f01602090049060005260206000209081019062000d10919062000bdb565b5b50565b508054600082556003029060005260206000209081019062000d37919062000c51565b50565b6128978062000d4a6000396000f3fe6080604052600436106100fe5760003560e01c8063c47f002711610095578063d32a6dd711610064578063d32a6dd71461034f578063d5953ae914610378578063d67c6888146103b8578063dc33be0e146103f5578063f698b7cc14610432576100fe565b8063c47f0027146102a2578063c9ae9173146102cb578063ceb60654146102e7578063d1a154a314610324576100fe565b806342c91d09116100d157806342c91d09146101d357806396324bd414610210578063a47514db1461024e578063a66052c114610279576100fe565b806307c21383146101035780630fa4ff151461012e57806317d7de7c1461016b5780631e4a97dd14610196575b600080fd5b34801561010f57600080fd5b50610118610470565b6040516101259190612537565b60405180910390f35b34801561013a57600080fd5b506101556004803603610150919081019061234e565b61050e565b60405161016291906125f7565b60405180910390f35b34801561017757600080fd5b5061018061067d565b60405161018d9190612559565b60405180910390f35b3480156101a257600080fd5b506101bd60048036036101b89190810190612265565b6107fb565b6040516101ca9190612619565b60405180910390f35b3480156101df57600080fd5b506101fa60048036036101f59190810190612325565b610b72565b6040516102079190612619565b60405180910390f35b34801561021c57600080fd5b5061023760048036036102329190810190612325565b610b9d565b60405161024592919061257b565b60405180910390f35b34801561025a57600080fd5b50610263610c66565b6040516102709190612501565b60405180910390f35b34801561028557600080fd5b506102a0600480360361029b91908101906121a5565b610de4565b005b3480156102ae57600080fd5b506102c960048036036102c49190810190612224565b611027565b005b6102e560048036036102e09190810190612140565b611287565b005b3480156102f357600080fd5b5061030e60048036036103099190810190612325565b61138d565b60405161031b9190612619565b60405180910390f35b34801561033057600080fd5b506103396113b5565b6040516103469190612619565b60405180910390f35b34801561035b57600080fd5b50610376600480360361037191908101906122d1565b6113c2565b005b34801561038457600080fd5b5061039f600480360361039a9190810190612117565b611576565b6040516103af94939291906125ab565b60405180910390f35b3480156103c457600080fd5b506103df60048036036103da9190810190612117565b61166b565b6040516103ec9190612619565b60405180910390f35b34801561040157600080fd5b5061041c60048036036104179190810190612117565b6116b6565b604051610429919061251c565b60405180910390f35b34801561043e57600080fd5b5061045960048036036104549190810190612169565b6116ce565b60405161046792919061257b565b60405180910390f35b60048054600181600116156101000203166002900480601f0160208091040260200160405190810160405280929190818152602001828054600181600116156101000203166002900480156105065780601f106104db57610100808354040283529160200191610506565b820191906000526020600020905b8154815290600101906020018083116104e957829003601f168201915b505050505081565b610516611a28565b6003838154811061052357fe5b9060005260206000209060030201600101828154811061053f57fe5b9060005260206000209060030201604051806080016040529081600082018054600181600116156101000203166002900480601f0160208091040260200160405190810160405280929190818152602001828054600181600116156101000203166002900480156105f15780601f106105c6576101008083540402835291602001916105f1565b820191906000526020600020905b8154815290600101906020018083116105d457829003601f168201915b50505050508152602001600182015481526020016002820160009054906101000a900473ffffffffffffffffffffffffffffffffffffffff1673ffffffffffffffffffffffffffffffffffffffff1673ffffffffffffffffffffffffffffffffffffffff1681526020016002820160149054906101000a900460ff161515151581525050905092915050565b6060610687611a28565b600260003373ffffffffffffffffffffffffffffffffffffffff1673ffffffffffffffffffffffffffffffffffffffff168152602001908152602001600020604051806080016040529081600082018054600181600116156101000203166002900480601f01602080910402602001604051908101604052809291908181526020018280546001816001161561010002031660029004801561076a5780601f1061073f5761010080835404028352916020019161076a565b820191906000526020600020905b81548152906001019060200180831161074d57829003601f168201915b50505050508152602001600182015481526020016002820160009054906101000a900473ffffffffffffffffffffffffffffffffffffffff1673ffffffffffffffffffffffffffffffffffffffff1673ffffffffffffffffffffffffffffffffffffffff1681526020016002820160149054906101000a900460ff1615151515815250509050806000015191505090565b6000600380548091906001016108119190611a68565b50600060036001600380549050038154811061082957fe5b90600052602060002090600302019050610841611a28565b6040518060800160405280858152602001600081526020013373ffffffffffffffffffffffffffffffffffffffff16815260200160011515815250905080600260003373ffffffffffffffffffffffffffffffffffffffff1673ffffffffffffffffffffffffffffffffffffffff16815260200190815260200160002060008201518160000190805190602001906108da929190611a9a565b506020820151816001015560408201518160020160006101000a81548173ffffffffffffffffffffffffffffffffffffffff021916908373ffffffffffffffffffffffffffffffffffffffff16021790555060608201518160020160146101000a81548160ff021916908315150217905550905050816001018190806001815401808255809150509060018203906000526020600020906003020160009091929091909150600082015181600001908051906020019061099b929190611a9a565b506020820151816001015560408201518160020160006101000a81548173ffffffffffffffffffffffffffffffffffffffff021916908373ffffffffffffffffffffffffffffffffffffffff16021790555060608201518160020160146101000a81548160ff02191690831515021790555050505084826000019080519060200190610a28929190611b1a565b5060016003805490500382600201819055506000803373ffffffffffffffffffffffffffffffffffffffff1673ffffffffffffffffffffffffffffffffffffffff168152602001908152602001600020829080600181540180825580915050906001820390600052602060002090600302016000909192909190915060008201816000019080546001816001161561010002031660029004610acb929190611b9a565b506001820181600101908054610ae2929190611c21565b50600282015481600201555050506003829080600181540180825580915050906001820390600052602060002090600302016000909192909190915060008201816000019080546001816001161561010002031660029004610b45929190611b9a565b506001820181600101908054610b5c929190611c21565b5060028201548160020155505050505092915050565b600060038281548110610b8157fe5b9060005260206000209060030201600101805490509050919050565b60038181548110610baa57fe5b9060005260206000209060030201600091509050806000018054600181600116156101000203166002900480601f016020809104026020016040519081016040528092919081815260200182805460018160011615610100020316600290048015610c565780601f10610c2b57610100808354040283529160200191610c56565b820191906000526020600020905b815481529060010190602001808311610c3957829003601f168201915b5050505050908060020154905082565b6000610c70611a28565b600260003373ffffffffffffffffffffffffffffffffffffffff1673ffffffffffffffffffffffffffffffffffffffff168152602001908152602001600020604051806080016040529081600082018054600181600116156101000203166002900480601f016020809104026020016040519081016040528092919081815260200182805460018160011615610100020316600290048015610d535780601f10610d2857610100808354040283529160200191610d53565b820191906000526020600020905b815481529060010190602001808311610d3657829003601f168201915b50505050508152602001600182015481526020016002820160009054906101000a900473ffffffffffffffffffffffffffffffffffffffff1673ffffffffffffffffffffffffffffffffffffffff1673ffffffffffffffffffffffffffffffffffffffff1681526020016002820160149054906101000a900460ff1615151515815250509050806060015191505090565b600080905060008090505b8451811015610fd057610e00611a28565b60026000878481518110610e1057fe5b602002602001015173ffffffffffffffffffffffffffffffffffffffff1673ffffffffffffffffffffffffffffffffffffffff168152602001908152602001600020604051806080016040529081600082018054600181600116156101000203166002900480601f016020809104026020016040519081016040528092919081815260200182805460018160011615610100020316600290048015610ef65780601f10610ecb57610100808354040283529160200191610ef6565b820191906000526020600020905b815481529060010190602001808311610ed957829003601f168201915b50505050508152602001600182015481526020016002820160009054906101000a900473ffffffffffffffffffffffffffffffffffffffff1673ffffffffffffffffffffffffffffffffffffffff1673ffffffffffffffffffffffffffffffffffffffff1681526020016002820160149054906101000a900460ff1615151515815250509050848281518110610f8857fe5b6020026020010151816020018181510391508181525050610fa981856117a4565b50848281518110610fb657fe5b602002602001015183019250508080600101915050610def565b5080600260003373ffffffffffffffffffffffffffffffffffffffff1673ffffffffffffffffffffffffffffffffffffffff1681526020019081526020016000206001016000828254019250508190555050505050565b61102f611a28565b600260003373ffffffffffffffffffffffffffffffffffffffff1673ffffffffffffffffffffffffffffffffffffffff168152602001908152602001600020604051806080016040529081600082018054600181600116156101000203166002900480601f0160208091040260200160405190810160405280929190818152602001828054600181600116156101000203166002900480156111125780601f106110e757610100808354040283529160200191611112565b820191906000526020600020905b8154815290600101906020018083116110f557829003601f168201915b50505050508152602001600182015481526020016002820160009054906101000a900473ffffffffffffffffffffffffffffffffffffffff1673ffffffffffffffffffffffffffffffffffffffff1673ffffffffffffffffffffffffffffffffffffffff1681526020016002820160149054906101000a900460ff1615151515815250509050818160000181905250600181606001901515908115158152505080600260003373ffffffffffffffffffffffffffffffffffffffff1673ffffffffffffffffffffffffffffffffffffffff168152602001908152602001600020600082015181600001908051906020019061120e929190611a9a565b506020820151816001015560408201518160020160006101000a81548173ffffffffffffffffffffffffffffffffffffffff021916908373ffffffffffffffffffffffffffffffffffffffff16021790555060608201518160020160146101000a81548160ff0219169083151502179055509050505050565b8073ffffffffffffffffffffffffffffffffffffffff166108fc349081150290604051600060405180830381858888f193505050501580156112cd573d6000803e3d6000fd5b50670de0b6b3a764000034816112df57fe5b04600160003373ffffffffffffffffffffffffffffffffffffffff1673ffffffffffffffffffffffffffffffffffffffff16815260200190815260200160002060008282540392505081905550670de0b6b3a7640000348161133d57fe5b04600160008373ffffffffffffffffffffffffffffffffffffffff1673ffffffffffffffffffffffffffffffffffffffff1681526020019081526020016000206000828254019250508190555050565b60006003828154811061139c57fe5b9060005260206000209060030201600201549050919050565b6000600380549050905090565b600381815481106113cf57fe5b906000526020600020906003020160010182908060018154018082558091505090600182039060005260206000209060030201600090919290919091506000820151816000019080519060200190611428929190611a9a565b506020820151816001015560408201518160020160006101000a81548173ffffffffffffffffffffffffffffffffffffffff021916908373ffffffffffffffffffffffffffffffffffffffff16021790555060608201518160020160146101000a81548160ff0219169083151502179055505050508160026000846040015173ffffffffffffffffffffffffffffffffffffffff1673ffffffffffffffffffffffffffffffffffffffff16815260200190815260200160002060008201518160000190805190602001906114fd929190611a9a565b506020820151816001015560408201518160020160006101000a81548173ffffffffffffffffffffffffffffffffffffffff021916908373ffffffffffffffffffffffffffffffffffffffff16021790555060608201518160020160146101000a81548160ff0219169083151502179055509050505050565b6002602052806000526040600020600091509050806000018054600181600116156101000203166002900480601f0160208091040260200160405190810160405280929190818152602001828054600181600116156101000203166002900480156116225780601f106115f757610100808354040283529160200191611622565b820191906000526020600020905b81548152906001019060200180831161160557829003601f168201915b5050505050908060010154908060020160009054906101000a900473ffffffffffffffffffffffffffffffffffffffff16908060020160149054906101000a900460ff16905084565b60008060008373ffffffffffffffffffffffffffffffffffffffff1673ffffffffffffffffffffffffffffffffffffffff168152602001908152602001600020805490509050919050565b60016020528060005260406000206000915090505481565b600060205281600052604060002081815481106116e757fe5b906000526020600020906003020160009150915050806000018054600181600116156101000203166002900480601f0160208091040260200160405190810160405280929190818152602001828054600181600116156101000203166002900480156117945780601f1061176957610100808354040283529160200191611794565b820191906000526020600020905b81548152906001019060200180831161177757829003601f168201915b5050505050908060020154905082565b600080600090505b600383815481106117b957fe5b906000526020600020906003020160010180549050811015611a1c57836040015173ffffffffffffffffffffffffffffffffffffffff16600384815481106117fd57fe5b9060005260206000209060030201600101828154811061181957fe5b906000526020600020906003020160020160009054906101000a900473ffffffffffffffffffffffffffffffffffffffff1673ffffffffffffffffffffffffffffffffffffffff161415611a0f57836003848154811061187557fe5b9060005260206000209060030201600101828154811061189157fe5b906000526020600020906003020160008201518160000190805190602001906118bb929190611a9a565b506020820151816001015560408201518160020160006101000a81548173ffffffffffffffffffffffffffffffffffffffff021916908373ffffffffffffffffffffffffffffffffffffffff16021790555060608201518160020160146101000a81548160ff0219169083151502179055509050508360026000866040015173ffffffffffffffffffffffffffffffffffffffff1673ffffffffffffffffffffffffffffffffffffffff1681526020019081526020016000206000820151816000019080519060200190611990929190611a9a565b506020820151816001015560408201518160020160006101000a81548173ffffffffffffffffffffffffffffffffffffffff021916908373ffffffffffffffffffffffffffffffffffffffff16021790555060608201518160020160146101000a81548160ff0219169083151502179055509050506001915050611a22565b80806001019150506117ac565b50600090505b92915050565b60405180608001604052806060815260200160008152602001600073ffffffffffffffffffffffffffffffffffffffff1681526020016000151581525090565b815481835581811115611a9557600302816003028360005260206000209182019101611a949190611d3f565b5b505050565b828054600181600116156101000203166002900490600052602060002090601f016020900481019282601f10611adb57805160ff1916838001178555611b09565b82800160010185558215611b09579182015b82811115611b08578251825591602001919060010190611aed565b5b509050611b169190611d86565b5090565b828054600181600116156101000203166002900490600052602060002090601f016020900481019282601f10611b5b57805160ff1916838001178555611b89565b82800160010185558215611b89579182015b82811115611b88578251825591602001919060010190611b6d565b5b509050611b969190611d86565b5090565b828054600181600116156101000203166002900490600052602060002090601f016020900481019282601f10611bd35780548555611c10565b82800160010185558215611c1057600052602060002091601f016020900482015b82811115611c0f578254825591600101919060010190611bf4565b5b509050611c1d9190611d86565b5090565b828054828255906000526020600020906003028101928215611d2e5760005260206000209160030282015b82811115611d2d57828260008201816000019080546001816001161561010002031660029004611c7d929190611b9a565b50600182015481600101556002820160009054906101000a900473ffffffffffffffffffffffffffffffffffffffff168160020160006101000a81548173ffffffffffffffffffffffffffffffffffffffff021916908373ffffffffffffffffffffffffffffffffffffffff1602179055506002820160149054906101000a900460ff168160020160146101000a81548160ff021916908315150217905550505091600301919060030190611c4c565b5b509050611d3b9190611dab565b5090565b611d8391905b80821115611d7f5760008082016000611d5e9190611e1d565b600182016000611d6e9190611e65565b600282016000905550600301611d45565b5090565b90565b611da891905b80821115611da4576000816000905550600101611d8c565b5090565b90565b611e1a91905b80821115611e165760008082016000611dca9190611e1d565b60018201600090556002820160006101000a81549073ffffffffffffffffffffffffffffffffffffffff02191690556002820160146101000a81549060ff021916905550600301611db1565b5090565b90565b50805460018160011615610100020316600290046000825580601f10611e435750611e62565b601f016020900490600052602060002090810190611e619190611d86565b5b50565b5080546000825560030290600052602060002090810190611e869190611dab565b50565b600081359050611e98816127f8565b92915050565b600081359050611ead8161280f565b92915050565b600082601f830112611ec457600080fd5b8135611ed7611ed282612661565b612634565b91508181835260208401935060208101905083856020840282011115611efc57600080fd5b60005b83811015611f2c5781611f128882611e89565b845260208401935060208301925050600181019050611eff565b5050505092915050565b600082601f830112611f4757600080fd5b8135611f5a611f5582612689565b612634565b91508181835260208401935060208101905083856020840282011115611f7f57600080fd5b60005b83811015611faf5781611f958882612102565b845260208401935060208301925050600181019050611f82565b5050505092915050565b600081359050611fc881612826565b92915050565b600082601f830112611fdf57600080fd5b8135611ff2611fed826126b1565b612634565b9150808252602083016020830185838301111561200e57600080fd5b6120198382846127a5565b50505092915050565b600082601f83011261203357600080fd5b8135612046612041826126dd565b612634565b9150808252602083016020830185838301111561206257600080fd5b61206d8382846127a5565b50505092915050565b60006080828403121561208857600080fd5b6120926080612634565b9050600082013567ffffffffffffffff8111156120ae57600080fd5b6120ba84828501611fce565b60008301525060206120ce84828501612102565b60208301525060406120e284828501611e89565b60408301525060606120f684828501611fb9565b60608301525092915050565b6000813590506121118161283d565b92915050565b60006020828403121561212957600080fd5b600061213784828501611e89565b91505092915050565b60006020828403121561215257600080fd5b600061216084828501611e9e565b91505092915050565b6000806040838503121561217c57600080fd5b600061218a85828601611e89565b925050602061219b85828601612102565b9150509250929050565b6000806000606084860312156121ba57600080fd5b600084013567ffffffffffffffff8111156121d457600080fd5b6121e086828701611eb3565b935050602084013567ffffffffffffffff8111156121fd57600080fd5b61220986828701611f36565b925050604061221a86828701612102565b9150509250925092565b60006020828403121561223657600080fd5b600082013567ffffffffffffffff81111561225057600080fd5b61225c84828501612022565b91505092915050565b6000806040838503121561227857600080fd5b600083013567ffffffffffffffff81111561229257600080fd5b61229e85828601612022565b925050602083013567ffffffffffffffff8111156122bb57600080fd5b6122c785828601612022565b9150509250929050565b600080604083850312156122e457600080fd5b600083013567ffffffffffffffff8111156122fe57600080fd5b61230a85828601612076565b925050602061231b85828601612102565b9150509250929050565b60006020828403121561233757600080fd5b600061234584828501612102565b91505092915050565b6000806040838503121561236157600080fd5b600061236f85828601612102565b925050602061238085828601612102565b9150509250929050565b61239381612741565b82525050565b6123a281612741565b82525050565b6123b181612765565b82525050565b6123c081612765565b82525050565b6123cf81612771565b82525050565b60006123e082612714565b6123ea8185612730565b93506123fa8185602086016127b4565b612403816127e7565b840191505092915050565b600061241982612709565b612423818561271f565b93506124338185602086016127b4565b61243c816127e7565b840191505092915050565b600061245282612709565b61245c8185612730565b935061246c8185602086016127b4565b612475816127e7565b840191505092915050565b6000608083016000830151848203600086015261249d828261240e565b91505060208301516124b260208601826124e3565b5060408301516124c5604086018261238a565b5060608301516124d860608601826123a8565b508091505092915050565b6124ec8161279b565b82525050565b6124fb8161279b565b82525050565b600060208201905061251660008301846123b7565b92915050565b600060208201905061253160008301846123c6565b92915050565b600060208201905081810360008301526125518184612447565b905092915050565b6000602082019050818103600083015261257381846123d5565b905092915050565b600060408201905081810360008301526125958185612447565b90506125a460208301846124f2565b9392505050565b600060808201905081810360008301526125c58187612447565b90506125d460208301866124f2565b6125e16040830185612399565b6125ee60608301846123b7565b95945050505050565b600060208201905081810360008301526126118184612480565b905092915050565b600060208201905061262e60008301846124f2565b92915050565b6000604051905081810181811067ffffffffffffffff8211171561265757600080fd5b8060405250919050565b600067ffffffffffffffff82111561267857600080fd5b602082029050602081019050919050565b600067ffffffffffffffff8211156126a057600080fd5b602082029050602081019050919050565b600067ffffffffffffffff8211156126c857600080fd5b601f19601f8301169050602081019050919050565b600067ffffffffffffffff8211156126f457600080fd5b601f19601f8301169050602081019050919050565b600081519050919050565b600081519050919050565b600082825260208201905092915050565b600082825260208201905092915050565b600061274c8261277b565b9050919050565b600061275e8261277b565b9050919050565b60008115159050919050565b6000819050919050565b600073ffffffffffffffffffffffffffffffffffffffff82169050919050565b6000819050919050565b82818337600083830152505050565b60005b838110156127d25780820151818401526020810190506127b7565b838111156127e1576000848401525b50505050565b6000601f19601f8301169050919050565b61280181612741565b811461280c57600080fd5b50565b61281881612753565b811461282357600080fd5b50565b61282f81612765565b811461283a57600080fd5b50565b6128468161279b565b811461285157600080fd5b5056fea365627a7a72315820ba89c7d9a584a5381cffadba79b61338fcf4ca33b4cd95139e2d6cebae1d95a86c6578706572696d656e74616cf564736f6c63430005100040",
  "source": "pragma experimental ABIEncoderV2;\n\n// Uncomment for console.log support\n// import \"@nomiclabs/buidler/console.sol\";\n\n\ncontract PaymentHub {\n\n    // Mapping for finding a user's groups\n    mapping (address => Group[]) public userToGroups;\n    mapping (address => int256) public userToBalance;\n    mapping (address => Member) public userToMember;\n\n    Group[] public groups; // The contract stores all groups, serves as a hub. Various groups will not interact with each other\n\n\tstring public memberName = string(userToMember[msg.sender].name);\n\n    struct Member {\n        string name;\n        uint balance;\n        address addy;\n\t\tbool nameSet;\n    }\n\n    struct Group {\n        string name;\n        Member[] friends;\n        uint256 id;\n    }\n\n    constructor() public {\n        // This data structure found at\n        // https://bit.ly/3azD3fx\n        createGroup(\"PayPals\", \"Creator\");\n        createGroup(\"PaymentPals\", \"Creator\");\n        Member memory member = Member(\"Cofounder\", 200, address(0x6A46eF78714f530e995369B03BB9F471583D114D), false);\n        Member memory member2 = Member(\"Investor\", 10000, address(0x2C10f237735e65e777D33348475000d9FAe0b7Dd), false);\n        addFriend(member, 0);\n        addFriend(member, 2); // For some reason PaymentPals is group 2, not 1?\n        addFriend(member2, 2);\n    }\n\n\tfunction getName() view external returns(string memory){\n\t\tMember memory member = userToMember[msg.sender];\n\t\treturn member.name;\n\t}\n\n\tfunction setName(string memory _name) public {\n\t\tMember memory member = userToMember[msg.sender];\n\t\tmember.name = _name;\n\t\tmember.nameSet = true;\n\t\tuserToMember[msg.sender] = member;\n\t}\n\n    function createGroup(string memory _groupName, string memory _groupOwnerName) public returns(uint) {\n        groups.length++;\n        Group storage group = groups[groups.length - 1];\n\t\t\n        Member memory member = Member(_groupOwnerName, 0, msg.sender, true);\n\t\tuserToMember[msg.sender] = member;\n        group.friends.push(member); // Add the first member, which is the creator\n\n        group.name = _groupName; // Manually set the group name\n        group.id = groups.length - 1;\n\n        userToGroups[msg.sender].push(group);\n\n        groups.push(group);\n    }\n\n    function getGroup(uint _gid) public view returns (uint) {\n        return groups[_gid].id;\n    }\n\n    // Mainly for testing, can be removed later\n    function getGroupSize() public view returns (uint) {\n        return groups.length;\n    }\n\n    // Mainly for testing, can be removed later\n    function friendInGroup(uint _gid, uint _fid) public view returns (Member memory) {\n        return groups[_gid].friends[_fid];\n    }\n\n    // Mainly for testing, can be removed later\n    function numFriendsInGroup(uint _gid) public view returns (uint) {\n        return groups[_gid].friends.length;\n    }\n\n    function addFriend(Member memory _newFriend, uint _groupID) public {\n        groups[_groupID].friends.push(_newFriend);\n        userToMember[_newFriend.addy] = _newFriend;\n    }\n\n    function payFriend(address payable  _friend) external payable {\n        _friend.transfer(msg.value);\n        userToBalance[msg.sender] -= int(msg.value/1000000000000000000);\n        userToBalance[_friend] += int(msg.value/1000000000000000000);\n    }\n\n    function getNumUserGroups(address _add) public view returns (uint){\n        return userToGroups[_add].length;\n    }\n\n\tfunction isNameSet() public view returns(bool){\n\t\tMember memory member = userToMember[msg.sender];\n\t\treturn member.nameSet;\n\t}\n\n    function updateMember(Member memory member, uint _gid) internal returns (bool) {\n        for (uint i = 0; i < groups[_gid].friends.length; i++) {\n            if(groups[_gid].friends[i].addy == member.addy) {\n                groups[_gid].friends[i] = member;\n                userToMember[member.addy] = member;\n                return true;\n            }\n        }\n        return false;\n    }\n\n\n    // consider renaming to payForFriends a\n    function transaction(address[] memory _payedFor, uint[] memory _amounts, uint _gid) public {\n        uint total = 0;\n        for (uint i = 0; i < _payedFor.length; i++) {\n            Member memory member = userToMember[_payedFor[i]];\n            member.balance -= _amounts[i];\n            updateMember(member, _gid);\n            total += _amounts[i];\n        }\n        userToMember[msg.sender].balance += total;\n    }\n\n}\n",
  "sourcePath": "/home/kc/Development/CS481A3/the-payment-pals/contracts/PaymentHub.sol",
  "compiler": {
    "name": "solc",
    "version": "0.5.16+commit.9c3226ce.Emscripten.clang"
  },
  "schemaVersion": "3.0.22",
  "updatedAt": "2020-05-04T06:07:00.115Z",
  "networkType": "ethereum",
  "devdoc": {
    "methods": {}
  },
  "userdoc": {
    "methods": {}
  }
}