{
  "contractName": "PaymentHub",
  "abi": [
    {
      "inputs": [],
      "payable": false,
      "stateMutability": "nonpayable",
      "type": "constructor"
    },
    {
      "constant": true,
      "inputs": [
        {
          "internalType": "uint256",
          "name": "",
          "type": "uint256"
        }
      ],
      "name": "groups",
      "outputs": [
        {
          "internalType": "string",
          "name": "name",
          "type": "string"
        },
        {
          "internalType": "uint256",
          "name": "id",
          "type": "uint256"
        }
      ],
      "payable": false,
      "stateMutability": "view",
      "type": "function"
    },
    {
      "constant": true,
      "inputs": [],
      "name": "memberName",
      "outputs": [
        {
          "internalType": "string",
          "name": "",
          "type": "string"
        }
      ],
      "payable": false,
      "stateMutability": "view",
      "type": "function"
    },
    {
      "constant": true,
      "inputs": [
        {
          "internalType": "address",
          "name": "",
          "type": "address"
        }
      ],
      "name": "userToBalance",
      "outputs": [
        {
          "internalType": "int256",
          "name": "",
          "type": "int256"
        }
      ],
      "payable": false,
      "stateMutability": "view",
      "type": "function"
    },
    {
      "constant": true,
      "inputs": [
        {
          "internalType": "address",
          "name": "",
          "type": "address"
        },
        {
          "internalType": "uint256",
          "name": "",
          "type": "uint256"
        }
      ],
      "name": "userToGroups",
      "outputs": [
        {
          "internalType": "string",
          "name": "name",
          "type": "string"
        },
        {
          "internalType": "uint256",
          "name": "id",
          "type": "uint256"
        }
      ],
      "payable": false,
      "stateMutability": "view",
      "type": "function"
    },
    {
      "constant": true,
      "inputs": [
        {
          "internalType": "address",
          "name": "",
          "type": "address"
        }
      ],
      "name": "userToMember",
      "outputs": [
        {
          "internalType": "string",
          "name": "name",
          "type": "string"
        },
        {
          "internalType": "int256",
          "name": "balance",
          "type": "int256"
        },
        {
          "internalType": "address",
          "name": "addy",
          "type": "address"
        },
        {
          "internalType": "bool",
          "name": "nameSet",
          "type": "bool"
        }
      ],
      "payable": false,
      "stateMutability": "view",
      "type": "function"
    },
    {
      "constant": true,
      "inputs": [],
      "name": "getName",
      "outputs": [
        {
          "internalType": "string",
          "name": "",
          "type": "string"
        }
      ],
      "payable": false,
      "stateMutability": "view",
      "type": "function"
    },
    {
      "constant": false,
      "inputs": [
        {
          "internalType": "string",
          "name": "_name",
          "type": "string"
        }
      ],
      "name": "setName",
      "outputs": [],
      "payable": false,
      "stateMutability": "nonpayable",
      "type": "function"
    },
    {
      "constant": false,
      "inputs": [
        {
          "internalType": "string",
          "name": "_groupName",
          "type": "string"
        },
        {
          "internalType": "string",
          "name": "_groupOwnerName",
          "type": "string"
        }
      ],
      "name": "createGroup",
      "outputs": [
        {
          "internalType": "uint256",
          "name": "",
          "type": "uint256"
        }
      ],
      "payable": false,
      "stateMutability": "nonpayable",
      "type": "function"
    },
    {
      "constant": true,
      "inputs": [
        {
          "internalType": "uint256",
          "name": "_gid",
          "type": "uint256"
        }
      ],
      "name": "getGroup",
      "outputs": [
        {
          "internalType": "uint256",
          "name": "",
          "type": "uint256"
        }
      ],
      "payable": false,
      "stateMutability": "view",
      "type": "function"
    },
    {
      "constant": true,
      "inputs": [],
      "name": "getGroupSize",
      "outputs": [
        {
          "internalType": "uint256",
          "name": "",
          "type": "uint256"
        }
      ],
      "payable": false,
      "stateMutability": "view",
      "type": "function"
    },
    {
      "constant": true,
      "inputs": [
        {
          "internalType": "uint256",
          "name": "_gid",
          "type": "uint256"
        },
        {
          "internalType": "uint256",
          "name": "_fid",
          "type": "uint256"
        }
      ],
      "name": "friendInGroup",
      "outputs": [
        {
          "components": [
            {
              "internalType": "string",
              "name": "name",
              "type": "string"
            },
            {
              "internalType": "int256",
              "name": "balance",
              "type": "int256"
            },
            {
              "internalType": "address",
              "name": "addy",
              "type": "address"
            },
            {
              "internalType": "bool",
              "name": "nameSet",
              "type": "bool"
            }
          ],
          "internalType": "struct PaymentHub.Member",
          "name": "",
          "type": "tuple"
        }
      ],
      "payable": false,
      "stateMutability": "view",
      "type": "function"
    },
    {
      "constant": true,
      "inputs": [
        {
          "internalType": "uint256",
          "name": "_gid",
          "type": "uint256"
        }
      ],
      "name": "numFriendsInGroup",
      "outputs": [
        {
          "internalType": "uint256",
          "name": "",
          "type": "uint256"
        }
      ],
      "payable": false,
      "stateMutability": "view",
      "type": "function"
    },
    {
      "constant": false,
      "inputs": [
        {
          "components": [
            {
              "internalType": "string",
              "name": "name",
              "type": "string"
            },
            {
              "internalType": "int256",
              "name": "balance",
              "type": "int256"
            },
            {
              "internalType": "address",
              "name": "addy",
              "type": "address"
            },
            {
              "internalType": "bool",
              "name": "nameSet",
              "type": "bool"
            }
          ],
          "internalType": "struct PaymentHub.Member",
          "name": "_newFriend",
          "type": "tuple"
        },
        {
          "internalType": "uint256",
          "name": "_groupID",
          "type": "uint256"
        }
      ],
      "name": "addFriend",
      "outputs": [],
      "payable": false,
      "stateMutability": "nonpayable",
      "type": "function"
    },
    {
      "constant": false,
      "inputs": [
        {
          "internalType": "address payable",
          "name": "_friend",
          "type": "address"
        },
        {
          "internalType": "uint256",
          "name": "_gid",
          "type": "uint256"
        }
      ],
      "name": "payFriend",
      "outputs": [],
      "payable": true,
      "stateMutability": "payable",
      "type": "function"
    },
    {
      "constant": true,
      "inputs": [
        {
          "internalType": "address",
          "name": "_add",
          "type": "address"
        }
      ],
      "name": "getNumUserGroups",
      "outputs": [
        {
          "internalType": "uint256",
          "name": "",
          "type": "uint256"
        }
      ],
      "payable": false,
      "stateMutability": "view",
      "type": "function"
    },
    {
      "constant": true,
      "inputs": [],
      "name": "isNameSet",
      "outputs": [
        {
          "internalType": "bool",
          "name": "",
          "type": "bool"
        }
      ],
      "payable": false,
      "stateMutability": "view",
      "type": "function"
    },
    {
      "constant": false,
      "inputs": [
        {
          "internalType": "address[]",
          "name": "_payedFor",
          "type": "address[]"
        },
        {
          "internalType": "int256[]",
          "name": "_amounts",
          "type": "int256[]"
        }
      ],
      "name": "transaction",
      "outputs": [],
      "payable": false,
      "stateMutability": "nonpayable",
      "type": "function"
    }
  ],
  "bytecode": "0x6080604052600260003373ffffffffffffffffffffffffffffffffffffffff1673ffffffffffffffffffffffffffffffffffffffff168152602001908152602001600020600001600490805460018160011615610100020316600290046200006992919062000740565b503480156200007757600080fd5b50620000f46040518060400160405280600781526020017f50617950616c73000000000000000000000000000000000000000000000000008152506040518060400160405280600781526020017f43726561746f7200000000000000000000000000000000000000000000000000815250620002d460201b60201c565b50620001716040518060400160405280600b81526020017f5061796d656e7450616c730000000000000000000000000000000000000000008152506040518060400160405280600781526020017f43726561746f7200000000000000000000000000000000000000000000000000815250620002d460201b60201c565b506200017c620007ce565b60405180608001604052806040518060400160405280600981526020017f436f666f756e6465720000000000000000000000000000000000000000000000815250815260200160c88152602001736a46ef78714f530e995369b03bb9f471583d114d73ffffffffffffffffffffffffffffffffffffffff1681526020016000151581525090506200020c620007ce565b60405180608001604052806040518060400160405280600881526020017f496e766573746f7200000000000000000000000000000000000000000000000081525081526020016127108152602001732c10f237735e65e777d33348475000d9fae0b7dd73ffffffffffffffffffffffffffffffffffffffff168152602001600015158152509050620002a68260006200065e60201b60201c565b620002b98260026200065e60201b60201c565b620002cc8160026200065e60201b60201c565b505062000c63565b600060038054809190600101620002ec91906200080e565b5060006003600160038054905003815481106200030557fe5b906000526020600020906003020190506200031f620007ce565b6040518060800160405280858152602001600081526020013373ffffffffffffffffffffffffffffffffffffffff16815260200160001515815250905080600260003373ffffffffffffffffffffffffffffffffffffffff1673ffffffffffffffffffffffffffffffffffffffff1681526020019081526020016000206000820151816000019080519060200190620003ba92919062000843565b506020820151816001015560408201518160020160006101000a81548173ffffffffffffffffffffffffffffffffffffffff021916908373ffffffffffffffffffffffffffffffffffffffff16021790555060608201518160020160146101000a81548160ff02191690831515021790555090505081600101819080600181540180825580915050906001820390600052602060002090600302016000909192909190915060008201518160000190805190602001906200047d92919062000843565b506020820151816001015560408201518160020160006101000a81548173ffffffffffffffffffffffffffffffffffffffff021916908373ffffffffffffffffffffffffffffffffffffffff16021790555060608201518160020160146101000a81548160ff021916908315150217905550505050848260000190805190602001906200050c929190620008ca565b5060016003805490500382600201819055506000803373ffffffffffffffffffffffffffffffffffffffff1673ffffffffffffffffffffffffffffffffffffffff168152602001908152602001600020829080600181540180825580915050906001820390600052602060002090600302016000909192909190915060008201816000019080546001816001161561010002031660029004620005b192919062000951565b506001820181600101908054620005ca929190620009df565b506002820154816002015550505060038290806001815401808255809150509060018203906000526020600020906003020160009091929091909150600082018160000190805460018160011615610100020316600290046200062f92919062000951565b50600182018160010190805462000648929190620009df565b5060028201548160020155505050505092915050565b600381815481106200066c57fe5b906000526020600020906003020160010182908060018154018082558091505090600182039060005260206000209060030201600090919290919091506000820151816000019080519060200190620006c792919062000843565b506020820151816001015560408201518160020160006101000a81548173ffffffffffffffffffffffffffffffffffffffff021916908373ffffffffffffffffffffffffffffffffffffffff16021790555060608201518160020160146101000a81548160ff0219169083151502179055505050505050565b828054600181600116156101000203166002900490600052602060002090601f016020900481019282601f106200077b5780548555620007bb565b82800160010185558215620007bb57600052602060002091601f016020900482015b82811115620007ba5782548255916001019190600101906200079d565b5b509050620007ca919062000b04565b5090565b60405180608001604052806060815260200160008152602001600073ffffffffffffffffffffffffffffffffffffffff1681526020016000151581525090565b8154818355818111156200083e576003028160030283600052602060002091820191016200083d919062000b2c565b5b505050565b828054600181600116156101000203166002900490600052602060002090601f016020900481019282601f106200088657805160ff1916838001178555620008b7565b82800160010185558215620008b7579182015b82811115620008b657825182559160200191906001019062000899565b5b509050620008c6919062000b04565b5090565b828054600181600116156101000203166002900490600052602060002090601f016020900481019282601f106200090d57805160ff19168380011785556200093e565b828001600101855582156200093e579182015b828111156200093d57825182559160200191906001019062000920565b5b5090506200094d919062000b04565b5090565b828054600181600116156101000203166002900490600052602060002090601f016020900481019282601f106200098c5780548555620009cc565b82800160010185558215620009cc57600052602060002091601f016020900482015b82811115620009cb578254825591600101919060010190620009ae565b5b509050620009db919062000b04565b5090565b82805482825590600052602060002090600302810192821562000af15760005260206000209160030282015b8281111562000af05782826000820181600001908054600181600116156101000203166002900462000a3f92919062000951565b50600182015481600101556002820160009054906101000a900473ffffffffffffffffffffffffffffffffffffffff168160020160006101000a81548173ffffffffffffffffffffffffffffffffffffffff021916908373ffffffffffffffffffffffffffffffffffffffff1602179055506002820160149054906101000a900460ff168160020160146101000a81548160ff02191690831515021790555050509160030191906003019062000a0b565b5b50905062000b00919062000b7a565b5090565b62000b2991905b8082111562000b2557600081600090555060010162000b0b565b5090565b90565b62000b7791905b8082111562000b73576000808201600062000b4f919062000bf1565b60018201600062000b61919062000c3d565b60028201600090555060030162000b33565b5090565b90565b62000bee91905b8082111562000bea576000808201600062000b9d919062000bf1565b60018201600090556002820160006101000a81549073ffffffffffffffffffffffffffffffffffffffff02191690556002820160146101000a81549060ff02191690555060030162000b81565b5090565b90565b50805460018160011615610100020316600290046000825580601f1062000c19575062000c3a565b601f01602090049060005260206000209081019062000c39919062000b04565b5b50565b508054600082556003029060005260206000209081019062000c60919062000b7a565b50565b6129228062000c736000396000f3fe6080604052600436106100fe5760003560e01c8063a47514db11610095578063d5953ae911610064578063d5953ae91461034f578063d67c68881461038f578063dc33be0e146103cc578063e5bed59e14610409578063f698b7cc14610432576100fe565b8063a47514db14610293578063c47f0027146102be578063ceb60654146102e7578063d1a154a314610324576100fe565b806317d7de7c116100d157806317d7de7c146101b05780631e4a97dd146101db57806342c91d091461021857806396324bd414610255576100fe565b806302dbc2c714610103578063047adfee1461012c57806307c21383146101485780630fa4ff1514610173575b600080fd5b34801561010f57600080fd5b5061012a60048036036101259190810190612345565b610470565b005b610146600480360361014191908101906121b4565b61054f565b005b34801561015457600080fd5b5061015d6108cd565b60405161016a91906125ab565b60405180910390f35b34801561017f57600080fd5b5061019a600480360361019591908101906123c2565b61096b565b6040516101a7919061266b565b60405180910390f35b3480156101bc57600080fd5b506101c5610ada565b6040516101d291906125cd565b60405180910390f35b3480156101e757600080fd5b5061020260048036036101fd91908101906122d9565b610c58565b60405161020f919061268d565b60405180910390f35b34801561022457600080fd5b5061023f600480360361023a9190810190612399565b610fcf565b60405161024c919061268d565b60405180910390f35b34801561026157600080fd5b5061027c60048036036102779190810190612399565b610ffa565b60405161028a92919061263b565b60405180910390f35b34801561029f57600080fd5b506102a86110c3565b6040516102b59190612575565b60405180910390f35b3480156102ca57600080fd5b506102e560048036036102e09190810190612298565b611241565b005b3480156102f357600080fd5b5061030e60048036036103099190810190612399565b6114a1565b60405161031b919061268d565b60405180910390f35b34801561033057600080fd5b506103396114c9565b604051610346919061268d565b60405180910390f35b34801561035b57600080fd5b506103766004803603610371919081019061218b565b6114d6565b60405161038694939291906125ef565b60405180910390f35b34801561039b57600080fd5b506103b660048036036103b1919081019061218b565b6115cb565b6040516103c3919061268d565b60405180910390f35b3480156103d857600080fd5b506103f360048036036103ee919081019061218b565b611616565b6040516104009190612590565b60405180910390f35b34801561041557600080fd5b50610430600480360361042b919081019061222c565b61162e565b005b34801561043e57600080fd5b50610459600480360361045491908101906121f0565b61172d565b60405161046792919061263b565b60405180910390f35b6003818154811061047d57fe5b9060005260206000209060030201600101829080600181540180825580915050906001820390600052602060002090600302016000909192909190915060008201518160000190805190602001906104d6929190611a87565b506020820151816001015560408201518160020160006101000a81548173ffffffffffffffffffffffffffffffffffffffff021916908373ffffffffffffffffffffffffffffffffffffffff16021790555060608201518160020160146101000a81548160ff0219169083151502179055505050505050565b8173ffffffffffffffffffffffffffffffffffffffff166108fc349081150290604051600060405180830381858888f19350505050158015610595573d6000803e3d6000fd5b5061059e611b07565b600260003373ffffffffffffffffffffffffffffffffffffffff1673ffffffffffffffffffffffffffffffffffffffff168152602001908152602001600020604051806080016040529081600082018054600181600116156101000203166002900480601f0160208091040260200160405190810160405280929190818152602001828054600181600116156101000203166002900480156106815780601f1061065657610100808354040283529160200191610681565b820191906000526020600020905b81548152906001019060200180831161066457829003601f168201915b50505050508152602001600182015481526020016002820160009054906101000a900473ffffffffffffffffffffffffffffffffffffffff1673ffffffffffffffffffffffffffffffffffffffff1673ffffffffffffffffffffffffffffffffffffffff1681526020016002820160149054906101000a900460ff1615151515815250509050670de0b6b3a7640000348161071857fe5b048160200181815103915081815250506107328183611803565b50600260008473ffffffffffffffffffffffffffffffffffffffff1673ffffffffffffffffffffffffffffffffffffffff168152602001908152602001600020604051806080016040529081600082018054600181600116156101000203166002900480601f0160208091040260200160405190810160405280929190818152602001828054600181600116156101000203166002900480156108165780601f106107eb57610100808354040283529160200191610816565b820191906000526020600020905b8154815290600101906020018083116107f957829003601f168201915b50505050508152602001600182015481526020016002820160009054906101000a900473ffffffffffffffffffffffffffffffffffffffff1673ffffffffffffffffffffffffffffffffffffffff1673ffffffffffffffffffffffffffffffffffffffff1681526020016002820160149054906101000a900460ff1615151515815250509050670de0b6b3a764000034816108ad57fe5b048160200181815101915081815250506108c78183611803565b50505050565b60048054600181600116156101000203166002900480601f0160208091040260200160405190810160405280929190818152602001828054600181600116156101000203166002900480156109635780601f1061093857610100808354040283529160200191610963565b820191906000526020600020905b81548152906001019060200180831161094657829003601f168201915b505050505081565b610973611b07565b6003838154811061098057fe5b9060005260206000209060030201600101828154811061099c57fe5b9060005260206000209060030201604051806080016040529081600082018054600181600116156101000203166002900480601f016020809104026020016040519081016040528092919081815260200182805460018160011615610100020316600290048015610a4e5780601f10610a2357610100808354040283529160200191610a4e565b820191906000526020600020905b815481529060010190602001808311610a3157829003601f168201915b50505050508152602001600182015481526020016002820160009054906101000a900473ffffffffffffffffffffffffffffffffffffffff1673ffffffffffffffffffffffffffffffffffffffff1673ffffffffffffffffffffffffffffffffffffffff1681526020016002820160149054906101000a900460ff161515151581525050905092915050565b6060610ae4611b07565b600260003373ffffffffffffffffffffffffffffffffffffffff1673ffffffffffffffffffffffffffffffffffffffff168152602001908152602001600020604051806080016040529081600082018054600181600116156101000203166002900480601f016020809104026020016040519081016040528092919081815260200182805460018160011615610100020316600290048015610bc75780601f10610b9c57610100808354040283529160200191610bc7565b820191906000526020600020905b815481529060010190602001808311610baa57829003601f168201915b50505050508152602001600182015481526020016002820160009054906101000a900473ffffffffffffffffffffffffffffffffffffffff1673ffffffffffffffffffffffffffffffffffffffff1673ffffffffffffffffffffffffffffffffffffffff1681526020016002820160149054906101000a900460ff1615151515815250509050806000015191505090565b600060038054809190600101610c6e9190611b47565b506000600360016003805490500381548110610c8657fe5b90600052602060002090600302019050610c9e611b07565b6040518060800160405280858152602001600081526020013373ffffffffffffffffffffffffffffffffffffffff16815260200160001515815250905080600260003373ffffffffffffffffffffffffffffffffffffffff1673ffffffffffffffffffffffffffffffffffffffff1681526020019081526020016000206000820151816000019080519060200190610d37929190611a87565b506020820151816001015560408201518160020160006101000a81548173ffffffffffffffffffffffffffffffffffffffff021916908373ffffffffffffffffffffffffffffffffffffffff16021790555060608201518160020160146101000a81548160ff0219169083151502179055509050508160010181908060018154018082558091505090600182039060005260206000209060030201600090919290919091506000820151816000019080519060200190610df8929190611a87565b506020820151816001015560408201518160020160006101000a81548173ffffffffffffffffffffffffffffffffffffffff021916908373ffffffffffffffffffffffffffffffffffffffff16021790555060608201518160020160146101000a81548160ff02191690831515021790555050505084826000019080519060200190610e85929190611b79565b5060016003805490500382600201819055506000803373ffffffffffffffffffffffffffffffffffffffff1673ffffffffffffffffffffffffffffffffffffffff168152602001908152602001600020829080600181540180825580915050906001820390600052602060002090600302016000909192909190915060008201816000019080546001816001161561010002031660029004610f28929190611bf9565b506001820181600101908054610f3f929190611c80565b50600282015481600201555050506003829080600181540180825580915050906001820390600052602060002090600302016000909192909190915060008201816000019080546001816001161561010002031660029004610fa2929190611bf9565b506001820181600101908054610fb9929190611c80565b5060028201548160020155505050505092915050565b600060038281548110610fde57fe5b9060005260206000209060030201600101805490509050919050565b6003818154811061100757fe5b9060005260206000209060030201600091509050806000018054600181600116156101000203166002900480601f0160208091040260200160405190810160405280929190818152602001828054600181600116156101000203166002900480156110b35780601f10611088576101008083540402835291602001916110b3565b820191906000526020600020905b81548152906001019060200180831161109657829003601f168201915b5050505050908060020154905082565b60006110cd611b07565b600260003373ffffffffffffffffffffffffffffffffffffffff1673ffffffffffffffffffffffffffffffffffffffff168152602001908152602001600020604051806080016040529081600082018054600181600116156101000203166002900480601f0160208091040260200160405190810160405280929190818152602001828054600181600116156101000203166002900480156111b05780601f10611185576101008083540402835291602001916111b0565b820191906000526020600020905b81548152906001019060200180831161119357829003601f168201915b50505050508152602001600182015481526020016002820160009054906101000a900473ffffffffffffffffffffffffffffffffffffffff1673ffffffffffffffffffffffffffffffffffffffff1673ffffffffffffffffffffffffffffffffffffffff1681526020016002820160149054906101000a900460ff1615151515815250509050806060015191505090565b611249611b07565b600260003373ffffffffffffffffffffffffffffffffffffffff1673ffffffffffffffffffffffffffffffffffffffff168152602001908152602001600020604051806080016040529081600082018054600181600116156101000203166002900480601f01602080910402602001604051908101604052809291908181526020018280546001816001161561010002031660029004801561132c5780601f106113015761010080835404028352916020019161132c565b820191906000526020600020905b81548152906001019060200180831161130f57829003601f168201915b50505050508152602001600182015481526020016002820160009054906101000a900473ffffffffffffffffffffffffffffffffffffffff1673ffffffffffffffffffffffffffffffffffffffff1673ffffffffffffffffffffffffffffffffffffffff1681526020016002820160149054906101000a900460ff1615151515815250509050818160000181905250600181606001901515908115158152505080600260003373ffffffffffffffffffffffffffffffffffffffff1673ffffffffffffffffffffffffffffffffffffffff1681526020019081526020016000206000820151816000019080519060200190611428929190611a87565b506020820151816001015560408201518160020160006101000a81548173ffffffffffffffffffffffffffffffffffffffff021916908373ffffffffffffffffffffffffffffffffffffffff16021790555060608201518160020160146101000a81548160ff0219169083151502179055509050505050565b6000600382815481106114b057fe5b9060005260206000209060030201600201549050919050565b6000600380549050905090565b6002602052806000526040600020600091509050806000018054600181600116156101000203166002900480601f0160208091040260200160405190810160405280929190818152602001828054600181600116156101000203166002900480156115825780601f1061155757610100808354040283529160200191611582565b820191906000526020600020905b81548152906001019060200180831161156557829003601f168201915b5050505050908060010154908060020160009054906101000a900473ffffffffffffffffffffffffffffffffffffffff16908060020160149054906101000a900460ff16905084565b60008060008373ffffffffffffffffffffffffffffffffffffffff1673ffffffffffffffffffffffffffffffffffffffff168152602001908152602001600020805490509050919050565b60016020528060005260406000206000915090505481565b600080905060008090505b83518110156116da5782818151811061164e57fe5b60200260200101516001600086848151811061166657fe5b602002602001015173ffffffffffffffffffffffffffffffffffffffff1673ffffffffffffffffffffffffffffffffffffffff168152602001908152602001600020600082825403925050819055508281815181106116c157fe5b6020026020010151820191508080600101915050611639565b5080600160003373ffffffffffffffffffffffffffffffffffffffff1673ffffffffffffffffffffffffffffffffffffffff16815260200190815260200160002060008282540192505081905550505050565b6000602052816000526040600020818154811061174657fe5b906000526020600020906003020160009150915050806000018054600181600116156101000203166002900480601f0160208091040260200160405190810160405280929190818152602001828054600181600116156101000203166002900480156117f35780601f106117c8576101008083540402835291602001916117f3565b820191906000526020600020905b8154815290600101906020018083116117d657829003601f168201915b5050505050908060020154905082565b600080600090505b6003838154811061181857fe5b906000526020600020906003020160010180549050811015611a7b57836040015173ffffffffffffffffffffffffffffffffffffffff166003848154811061185c57fe5b9060005260206000209060030201600101828154811061187857fe5b906000526020600020906003020160020160009054906101000a900473ffffffffffffffffffffffffffffffffffffffff1673ffffffffffffffffffffffffffffffffffffffff161415611a6e5783600384815481106118d457fe5b906000526020600020906003020160010182815481106118f057fe5b9060005260206000209060030201600082015181600001908051906020019061191a929190611a87565b506020820151816001015560408201518160020160006101000a81548173ffffffffffffffffffffffffffffffffffffffff021916908373ffffffffffffffffffffffffffffffffffffffff16021790555060608201518160020160146101000a81548160ff0219169083151502179055509050508360026000866040015173ffffffffffffffffffffffffffffffffffffffff1673ffffffffffffffffffffffffffffffffffffffff16815260200190815260200160002060008201518160000190805190602001906119ef929190611a87565b506020820151816001015560408201518160020160006101000a81548173ffffffffffffffffffffffffffffffffffffffff021916908373ffffffffffffffffffffffffffffffffffffffff16021790555060608201518160020160146101000a81548160ff0219169083151502179055509050506001915050611a81565b808060010191505061180b565b50600090505b92915050565b828054600181600116156101000203166002900490600052602060002090601f016020900481019282601f10611ac857805160ff1916838001178555611af6565b82800160010185558215611af6579182015b82811115611af5578251825591602001919060010190611ada565b5b509050611b039190611d9e565b5090565b60405180608001604052806060815260200160008152602001600073ffffffffffffffffffffffffffffffffffffffff1681526020016000151581525090565b815481835581811115611b7457600302816003028360005260206000209182019101611b739190611dc3565b5b505050565b828054600181600116156101000203166002900490600052602060002090601f016020900481019282601f10611bba57805160ff1916838001178555611be8565b82800160010185558215611be8579182015b82811115611be7578251825591602001919060010190611bcc565b5b509050611bf59190611d9e565b5090565b828054600181600116156101000203166002900490600052602060002090601f016020900481019282601f10611c325780548555611c6f565b82800160010185558215611c6f57600052602060002091601f016020900482015b82811115611c6e578254825591600101919060010190611c53565b5b509050611c7c9190611d9e565b5090565b828054828255906000526020600020906003028101928215611d8d5760005260206000209160030282015b82811115611d8c57828260008201816000019080546001816001161561010002031660029004611cdc929190611bf9565b50600182015481600101556002820160009054906101000a900473ffffffffffffffffffffffffffffffffffffffff168160020160006101000a81548173ffffffffffffffffffffffffffffffffffffffff021916908373ffffffffffffffffffffffffffffffffffffffff1602179055506002820160149054906101000a900460ff168160020160146101000a81548160ff021916908315150217905550505091600301919060030190611cab565b5b509050611d9a9190611e0a565b5090565b611dc091905b80821115611dbc576000816000905550600101611da4565b5090565b90565b611e0791905b80821115611e035760008082016000611de29190611e7c565b600182016000611df29190611ec4565b600282016000905550600301611dc9565b5090565b90565b611e7991905b80821115611e755760008082016000611e299190611e7c565b60018201600090556002820160006101000a81549073ffffffffffffffffffffffffffffffffffffffff02191690556002820160146101000a81549060ff021916905550600301611e10565b5090565b90565b50805460018160011615610100020316600290046000825580601f10611ea25750611ec1565b601f016020900490600052602060002090810190611ec09190611d9e565b5b50565b5080546000825560030290600052602060002090810190611ee59190611e0a565b50565b600081359050611ef78161286c565b92915050565b600081359050611f0c81612883565b92915050565b600082601f830112611f2357600080fd5b8135611f36611f31826126d5565b6126a8565b91508181835260208401935060208101905083856020840282011115611f5b57600080fd5b60005b83811015611f8b5781611f718882611ee8565b845260208401935060208301925050600181019050611f5e565b5050505092915050565b600082601f830112611fa657600080fd5b8135611fb9611fb4826126fd565b6126a8565b91508181835260208401935060208101905083856020840282011115611fde57600080fd5b60005b8381101561200e5781611ff4888261202d565b845260208401935060208301925050600181019050611fe1565b5050505092915050565b6000813590506120278161289a565b92915050565b60008135905061203c816128b1565b92915050565b600082601f83011261205357600080fd5b813561206661206182612725565b6126a8565b9150808252602083016020830185838301111561208257600080fd5b61208d838284612819565b50505092915050565b600082601f8301126120a757600080fd5b81356120ba6120b582612751565b6126a8565b915080825260208301602083018583830111156120d657600080fd5b6120e1838284612819565b50505092915050565b6000608082840312156120fc57600080fd5b61210660806126a8565b9050600082013567ffffffffffffffff81111561212257600080fd5b61212e84828501612042565b60008301525060206121428482850161202d565b602083015250604061215684828501611ee8565b604083015250606061216a84828501612018565b60608301525092915050565b600081359050612185816128c8565b92915050565b60006020828403121561219d57600080fd5b60006121ab84828501611ee8565b91505092915050565b600080604083850312156121c757600080fd5b60006121d585828601611efd565b92505060206121e685828601612176565b9150509250929050565b6000806040838503121561220357600080fd5b600061221185828601611ee8565b925050602061222285828601612176565b9150509250929050565b6000806040838503121561223f57600080fd5b600083013567ffffffffffffffff81111561225957600080fd5b61226585828601611f12565b925050602083013567ffffffffffffffff81111561228257600080fd5b61228e85828601611f95565b9150509250929050565b6000602082840312156122aa57600080fd5b600082013567ffffffffffffffff8111156122c457600080fd5b6122d084828501612096565b91505092915050565b600080604083850312156122ec57600080fd5b600083013567ffffffffffffffff81111561230657600080fd5b61231285828601612096565b925050602083013567ffffffffffffffff81111561232f57600080fd5b61233b85828601612096565b9150509250929050565b6000806040838503121561235857600080fd5b600083013567ffffffffffffffff81111561237257600080fd5b61237e858286016120ea565b925050602061238f85828601612176565b9150509250929050565b6000602082840312156123ab57600080fd5b60006123b984828501612176565b91505092915050565b600080604083850312156123d557600080fd5b60006123e385828601612176565b92505060206123f485828601612176565b9150509250929050565b612407816127b5565b82525050565b612416816127b5565b82525050565b612425816127d9565b82525050565b612434816127d9565b82525050565b612443816127e5565b82525050565b612452816127e5565b82525050565b600061246382612788565b61246d81856127a4565b935061247d818560208601612828565b6124868161285b565b840191505092915050565b600061249c8261277d565b6124a68185612793565b93506124b6818560208601612828565b6124bf8161285b565b840191505092915050565b60006124d58261277d565b6124df81856127a4565b93506124ef818560208601612828565b6124f88161285b565b840191505092915050565b600060808301600083015184820360008601526125208282612491565b9150506020830151612535602086018261243a565b50604083015161254860408601826123fe565b50606083015161255b606086018261241c565b508091505092915050565b61256f8161280f565b82525050565b600060208201905061258a600083018461242b565b92915050565b60006020820190506125a56000830184612449565b92915050565b600060208201905081810360008301526125c581846124ca565b905092915050565b600060208201905081810360008301526125e78184612458565b905092915050565b6000608082019050818103600083015261260981876124ca565b90506126186020830186612449565b612625604083018561240d565b612632606083018461242b565b95945050505050565b6000604082019050818103600083015261265581856124ca565b90506126646020830184612566565b9392505050565b600060208201905081810360008301526126858184612503565b905092915050565b60006020820190506126a26000830184612566565b92915050565b6000604051905081810181811067ffffffffffffffff821117156126cb57600080fd5b8060405250919050565b600067ffffffffffffffff8211156126ec57600080fd5b602082029050602081019050919050565b600067ffffffffffffffff82111561271457600080fd5b602082029050602081019050919050565b600067ffffffffffffffff82111561273c57600080fd5b601f19601f8301169050602081019050919050565b600067ffffffffffffffff82111561276857600080fd5b601f19601f8301169050602081019050919050565b600081519050919050565b600081519050919050565b600082825260208201905092915050565b600082825260208201905092915050565b60006127c0826127ef565b9050919050565b60006127d2826127ef565b9050919050565b60008115159050919050565b6000819050919050565b600073ffffffffffffffffffffffffffffffffffffffff82169050919050565b6000819050919050565b82818337600083830152505050565b60005b8381101561284657808201518184015260208101905061282b565b83811115612855576000848401525b50505050565b6000601f19601f8301169050919050565b612875816127b5565b811461288057600080fd5b50565b61288c816127c7565b811461289757600080fd5b50565b6128a3816127d9565b81146128ae57600080fd5b50565b6128ba816127e5565b81146128c557600080fd5b50565b6128d18161280f565b81146128dc57600080fd5b5056fea365627a7a72315820af4d2ddcba64e33853f90c1428452abc25c5d01c673dcc1c0f95f3d81a2920ed6c6578706572696d656e74616cf564736f6c63430005100040",
  "source": "pragma experimental ABIEncoderV2;\n\ncontract PaymentHub {\n\n    // Mapping for finding a user's groups\n    mapping (address => Group[]) public userToGroups;\n    mapping (address => int256) public userToBalance;\n    mapping (address => Member) public userToMember;\n\n    Group[] public groups; // The contract stores all groups, serves as a hub. Various groups will not interact with each other\n\n\tstring public memberName = string(userToMember[msg.sender].name);\n\n    struct Member {\n        string name;\n        int balance;\n        address addy;\n\t\tbool nameSet;\n    }\n\n    struct Group {\n        string name;\n        Member[] friends;\n        uint256 id;\n    }\n\n    constructor() public {\n        // This data structure found at\n        // https://bit.ly/3azD3fx\n        createGroup(\"PayPals\", \"Creator\");\n        createGroup(\"PaymentPals\", \"Creator\");\n        Member memory member = Member(\"Cofounder\", 200, address(0x6A46eF78714f530e995369B03BB9F471583D114D), false);\n        Member memory member2 = Member(\"Investor\", 10000, address(0x2C10f237735e65e777D33348475000d9FAe0b7Dd), false);\n        addFriend(member, 0);\n        addFriend(member, 2); // For some reason PaymentPals is group 2, not 1?\n        addFriend(member2, 2);\n    }\n\n\tfunction getName() view external returns(string memory){\n\t\tMember memory member = userToMember[msg.sender];\n\t\treturn member.name;\n\t}\n\n\tfunction setName(string memory _name) public {\n\t\tMember memory member = userToMember[msg.sender];\n\t\tmember.name = _name;\n\t\tmember.nameSet = true;\n\t\tuserToMember[msg.sender] = member;\n\t}\n\n    function createGroup(string memory _groupName, string memory _groupOwnerName) public returns(uint) {\n        groups.length++;\n        Group storage group = groups[groups.length - 1];\n\t\t\n        Member memory member = Member(_groupOwnerName, 0, msg.sender, false);\n\t\tuserToMember[msg.sender] = member;\n        group.friends.push(member); // Add the first member, which is the creator\n\n        group.name = _groupName; // Manually set the group name\n        group.id = groups.length - 1;\n\n        userToGroups[msg.sender].push(group);\n\n        groups.push(group);\n    }\n\n    function getGroup(uint _gid) public view returns (uint) {\n        return groups[_gid].id;\n    }\n\n    // Mainly for testing, can be removed later\n    function getGroupSize() public view returns (uint) {\n        return groups.length;\n    }\n\n    // Mainly for testing, can be removed later\n    function friendInGroup(uint _gid, uint _fid) public view returns (Member memory) {\n        return groups[_gid].friends[_fid];\n    }\n\n    // Mainly for testing, can be removed later\n    function numFriendsInGroup(uint _gid) public view returns (uint) {\n        return groups[_gid].friends.length;\n    }\n\n    function addFriend(Member memory _newFriend, uint _groupID) public {\n        groups[_groupID].friends.push(_newFriend);\n    }\n\n    function payFriend(address payable _friend, uint _gid) external payable {\n        _friend.transfer(msg.value);\n        Member memory member = userToMember[msg.sender];\n        member.balance -= int(msg.value/1000000000000000000);\n        updateMember(member, _gid);\n\n        member = userToMember[_friend];\n        member.balance += int(msg.value/1000000000000000000);\n        updateMember(member, _gid);\n    }\n\n    function getNumUserGroups(address _add) public view returns (uint){\n        return userToGroups[_add].length;\n    }\n\n\tfunction isNameSet() public view returns(bool){\n\t\tMember memory member = userToMember[msg.sender];\n\t\treturn member.nameSet;\n\t}\n\n    function updateMember(Member memory member, uint _gid) internal returns (bool) {\n        for (uint i = 0; i < groups[_gid].friends.length; i++) {\n            if(groups[_gid].friends[i].addy == member.addy) {\n                groups[_gid].friends[i] = member;\n                userToMember[member.addy] = member;\n                return true;\n            }\n        }\n        return false;\n    }\n\n    // consider renaming to payForFriends\n    function transaction(address[] memory _payedFor, int[] memory _amounts) public {\n        int total = 0;\n        for (uint i = 0; i < _payedFor.length; i++) {\n            userToBalance[_payedFor[i]] -= _amounts[i];\n            total += _amounts[i];\n        }\n        userToBalance[msg.sender] += total;\n    }\n\n}\n",
  "sourcePath": "/home/kc/Development/CS481A3/the-payment-pals/contracts/PaymentHub.sol",
  "compiler": {
    "name": "solc",
    "version": "0.5.16+commit.9c3226ce.Emscripten.clang"
  },
  "schemaVersion": "3.0.22",
  "updatedAt": "2020-05-05T19:28:46.072Z",
  "networkType": "ethereum",
  "devdoc": {
    "methods": {}
  },
  "userdoc": {
    "methods": {}
  }
}