{
  "contractName": "PaymentHub",
  "abi": [
    {
      "inputs": [],
      "payable": false,
      "stateMutability": "nonpayable",
      "type": "constructor"
    },
    {
      "constant": true,
      "inputs": [
        {
          "internalType": "uint256",
          "name": "",
          "type": "uint256"
        }
      ],
      "name": "groups",
      "outputs": [
        {
          "internalType": "string",
          "name": "name",
          "type": "string"
        },
        {
          "internalType": "uint256",
          "name": "id",
          "type": "uint256"
        }
      ],
      "payable": false,
      "stateMutability": "view",
      "type": "function"
    },
    {
      "constant": true,
      "inputs": [],
      "name": "memberName",
      "outputs": [
        {
          "internalType": "string",
          "name": "",
          "type": "string"
        }
      ],
      "payable": false,
      "stateMutability": "view",
      "type": "function"
    },
    {
      "constant": true,
      "inputs": [
        {
          "internalType": "address",
          "name": "",
          "type": "address"
        }
      ],
      "name": "userToBalance",
      "outputs": [
        {
          "internalType": "int256",
          "name": "",
          "type": "int256"
        }
      ],
      "payable": false,
      "stateMutability": "view",
      "type": "function"
    },
    {
      "constant": true,
      "inputs": [
        {
          "internalType": "address",
          "name": "",
          "type": "address"
        },
        {
          "internalType": "uint256",
          "name": "",
          "type": "uint256"
        }
      ],
      "name": "userToGroups",
      "outputs": [
        {
          "internalType": "string",
          "name": "name",
          "type": "string"
        },
        {
          "internalType": "uint256",
          "name": "id",
          "type": "uint256"
        }
      ],
      "payable": false,
      "stateMutability": "view",
      "type": "function"
    },
    {
      "constant": true,
      "inputs": [
        {
          "internalType": "address",
          "name": "",
          "type": "address"
        }
      ],
      "name": "userToMember",
      "outputs": [
        {
          "internalType": "string",
          "name": "name",
          "type": "string"
        },
        {
          "internalType": "uint256",
          "name": "balance",
          "type": "uint256"
        },
        {
          "internalType": "address",
          "name": "addy",
          "type": "address"
        },
        {
          "internalType": "bool",
          "name": "nameSet",
          "type": "bool"
        }
      ],
      "payable": false,
      "stateMutability": "view",
      "type": "function"
    },
    {
      "constant": true,
      "inputs": [],
      "name": "getName",
      "outputs": [
        {
          "internalType": "string",
          "name": "",
          "type": "string"
        }
      ],
      "payable": false,
      "stateMutability": "view",
      "type": "function"
    },
    {
      "constant": false,
      "inputs": [
        {
          "internalType": "string",
          "name": "_name",
          "type": "string"
        }
      ],
      "name": "setName",
      "outputs": [],
      "payable": false,
      "stateMutability": "nonpayable",
      "type": "function"
    },
    {
      "constant": false,
      "inputs": [
        {
          "internalType": "string",
          "name": "_groupName",
          "type": "string"
        },
        {
          "internalType": "string",
          "name": "_groupOwnerName",
          "type": "string"
        }
      ],
      "name": "createGroup",
      "outputs": [
        {
          "internalType": "uint256",
          "name": "",
          "type": "uint256"
        }
      ],
      "payable": false,
      "stateMutability": "nonpayable",
      "type": "function"
    },
    {
      "constant": true,
      "inputs": [
        {
          "internalType": "uint256",
          "name": "_gid",
          "type": "uint256"
        }
      ],
      "name": "getGroup",
      "outputs": [
        {
          "internalType": "uint256",
          "name": "",
          "type": "uint256"
        }
      ],
      "payable": false,
      "stateMutability": "view",
      "type": "function"
    },
    {
      "constant": true,
      "inputs": [],
      "name": "getGroupSize",
      "outputs": [
        {
          "internalType": "uint256",
          "name": "",
          "type": "uint256"
        }
      ],
      "payable": false,
      "stateMutability": "view",
      "type": "function"
    },
    {
      "constant": true,
      "inputs": [
        {
          "internalType": "uint256",
          "name": "_gid",
          "type": "uint256"
        },
        {
          "internalType": "uint256",
          "name": "_fid",
          "type": "uint256"
        }
      ],
      "name": "friendInGroup",
      "outputs": [
        {
          "components": [
            {
              "internalType": "string",
              "name": "name",
              "type": "string"
            },
            {
              "internalType": "uint256",
              "name": "balance",
              "type": "uint256"
            },
            {
              "internalType": "address",
              "name": "addy",
              "type": "address"
            },
            {
              "internalType": "bool",
              "name": "nameSet",
              "type": "bool"
            }
          ],
          "internalType": "struct PaymentHub.Member",
          "name": "",
          "type": "tuple"
        }
      ],
      "payable": false,
      "stateMutability": "view",
      "type": "function"
    },
    {
      "constant": true,
      "inputs": [
        {
          "internalType": "uint256",
          "name": "_gid",
          "type": "uint256"
        }
      ],
      "name": "numFriendsInGroup",
      "outputs": [
        {
          "internalType": "uint256",
          "name": "",
          "type": "uint256"
        }
      ],
      "payable": false,
      "stateMutability": "view",
      "type": "function"
    },
    {
      "constant": false,
      "inputs": [
        {
          "components": [
            {
              "internalType": "string",
              "name": "name",
              "type": "string"
            },
            {
              "internalType": "uint256",
              "name": "balance",
              "type": "uint256"
            },
            {
              "internalType": "address",
              "name": "addy",
              "type": "address"
            },
            {
              "internalType": "bool",
              "name": "nameSet",
              "type": "bool"
            }
          ],
          "internalType": "struct PaymentHub.Member",
          "name": "_newFriend",
          "type": "tuple"
        },
        {
          "internalType": "uint256",
          "name": "_groupID",
          "type": "uint256"
        }
      ],
      "name": "addFriend",
      "outputs": [],
      "payable": false,
      "stateMutability": "nonpayable",
      "type": "function"
    },
    {
      "constant": false,
      "inputs": [
        {
          "internalType": "address payable",
          "name": "_friend",
          "type": "address"
        }
      ],
      "name": "payFriend",
      "outputs": [],
      "payable": true,
      "stateMutability": "payable",
      "type": "function"
    },
    {
      "constant": true,
      "inputs": [
        {
          "internalType": "address",
          "name": "_add",
          "type": "address"
        }
      ],
      "name": "getNumUserGroups",
      "outputs": [
        {
          "internalType": "uint256",
          "name": "",
          "type": "uint256"
        }
      ],
      "payable": false,
      "stateMutability": "view",
      "type": "function"
    },
    {
      "constant": true,
      "inputs": [],
      "name": "isNameSet",
      "outputs": [
        {
          "internalType": "bool",
          "name": "",
          "type": "bool"
        }
      ],
      "payable": false,
      "stateMutability": "view",
      "type": "function"
    },
    {
      "constant": false,
      "inputs": [
        {
          "internalType": "address[]",
          "name": "_payedFor",
          "type": "address[]"
        },
        {
          "internalType": "uint256[]",
          "name": "_amounts",
          "type": "uint256[]"
        },
        {
          "internalType": "uint256",
          "name": "_gid",
          "type": "uint256"
        }
      ],
      "name": "transaction",
      "outputs": [],
      "payable": false,
      "stateMutability": "nonpayable",
      "type": "function"
    }
  ],
  "bytecode": "0x6080604090815233600090815260026020819052919020805462000036926004929160001961010060018316150201160462000593565b503480156200004457600080fd5b50620000956040518060400160405280600781526020016650617950616c7360c81b8152506040518060400160405280600781526020016621b932b0ba37b960c91b815250620001ef60201b60201c565b50620000ea6040518060400160405280600b81526020016a5061796d656e7450616c7360a81b8152506040518060400160405280600781526020016621b932b0ba37b960c91b815250620001ef60201b60201c565b50620000f56200061f565b506040805160c0810182526009608082019081526821b7b337bab73232b960b91b60a0830152815260c86020820152736a46ef78714f530e995369b03bb9f471583d114d9181019190915260006060820152620001516200061f565b506040805160c0810182526008608082019081526724b73b32b9ba37b960c11b60a083015281526127106020820152732c10f237735e65e777d33348475000d9fae0b7dd91810191909152600060608201819052620001bb9083906001600160e01b036200047116565b620001d18260026001600160e01b036200047116565b620001e78160026001600160e01b036200047116565b5050620008d4565b6003805460009162000205906001830162000652565b50600380546000919060001981019081106200021d57fe5b90600052602060002090600302019050620002376200061f565b506040805160808101825284815260006020808301829052338385018190526001606085015282526002815292902081518051929384936200027d928492019062000686565b506020828101516001808401919091556040840151600290930180546060909501511515600160a01b0260ff60a01b196001600160a01b039095166001600160a01b03199096169590951793909316939093179091558382018054928301808255600091825290829020845180519294869460039091029092019262000307928492019062000686565b5060208281015160018301556040830151600290920180546060909401511515600160a01b0260ff60a01b196001600160a01b039094166001600160a01b0319909516949094179290921692909217905586516200036b9250849188019062000686565b5060038054600019908101600285810191909155336000908152602081815260408220805460018082018084559285529290932088549196899694020193620003c593859387939081161561010002909101160462000593565b5060018281018054620003dc9284019190620006f9565b5060029182015490820155600380546001818101808455600084905287549095508794929093027fc2575a0e9e593c00f959f8c92f12db2869c3395a3b0502d05e2516446f71f85b0192620004469284928692610100918116159190910260001901160462000593565b50600182810180546200045d9284019190620006f9565b506002918201549101555091949350505050565b600381815481106200047f57fe5b6000918252602080832060039283020160019081018054918201808255908552938290208651805188959390930290910192620004c29284929091019062000686565b506020828101516001830155604080840151600293840180546060909601516001600160a01b03199096166001600160a01b039283161760ff60a01b1916600160a01b96151596909602959095179094558681015190931660009081529181529190208451805186945091926200053f9284929091019062000686565b50602082015160018201556040820151600290910180546060909301511515600160a01b0260ff60a01b196001600160a01b039093166001600160a01b031990941693909317919091169190911790555050565b828054600181600116156101000203166002900490600052602060002090601f016020900481019282601f10620005ce57805485556200060d565b828001600101855582156200060d57600052602060002091601f016020900482015b828111156200060d578254825591600101919060010190620005f0565b506200061b929150620007c6565b5090565b6040518060800160405280606081526020016000815260200160006001600160a01b031681526020016000151581525090565b8154818355818111156200068157600302816003028360005260206000209182019101620006819190620007e6565b505050565b828054600181600116156101000203166002900490600052602060002090601f016020900481019282601f10620006c957805160ff19168380011785556200060d565b828001600101855582156200060d579182015b828111156200060d578251825591602001919060010190620006dc565b828054828255906000526020600020906003028101928215620007b85760005260206000209160030282015b82811115620007b8578254839083906200075690829084906002600019610100600184161502019091160462000593565b5060018281015490820155600291820180549290910180546001600160a01b0319166001600160a01b0390931692909217808355905460ff600160a01b918290041615150260ff60a01b19909116179055600392830192919091019062000725565b506200061b92915062000825565b620007e391905b808211156200061b5760008155600101620007cd565b90565b620007e391905b808211156200061b57600062000804828262000866565b62000814600183016000620008b1565b5060006002820155600301620007ed565b620007e391905b808211156200061b57600062000843828262000866565b50600060018201556002810180546001600160a81b03191690556003016200082c565b50805460018160011615610100020316600290046000825580601f106200088e5750620008ae565b601f016020900490600052602060002090810190620008ae9190620007c6565b50565b5080546000825560030290600052602060002090810190620008ae919062000825565b611ee480620008e46000396000f3fe6080604052600436106100fe5760003560e01c8063c47f002711610095578063d32a6dd711610064578063d32a6dd714610297578063d5953ae9146102b7578063d67c6888146102e7578063dc33be0e14610307578063f698b7cc14610327576100fe565b8063c47f00271461022f578063c9ae91731461024f578063ceb6065414610262578063d1a154a314610282576100fe565b806342c91d09116100d157806342c91d091461019d57806396324bd4146101bd578063a47514db146101eb578063a66052c11461020d576100fe565b806307c21383146101035780630fa4ff151461012e57806317d7de7c1461015b5780631e4a97dd14610170575b600080fd5b34801561010f57600080fd5b50610118610347565b6040516101259190611c99565b60405180910390f35b34801561013a57600080fd5b5061014e610149366004611b68565b6103d5565b6040516101259190611d61565b34801561016757600080fd5b506101186104eb565b34801561017c57600080fd5b5061019061018b366004611ab5565b6105d3565b6040516101259190611c8b565b3480156101a957600080fd5b506101906101b8366004611b4a565b610842565b3480156101c957600080fd5b506101dd6101d8366004611b4a565b61086b565b604051610125929190611cfe565b3480156101f757600080fd5b50610200610921565b6040516101259190611c7d565b34801561021957600080fd5b5061022d610228366004611a04565b610a09565b005b34801561023b57600080fd5b5061022d61024a366004611a80565b610d03565b61022d61025d3660046119a4565b610e6e565b34801561026e57600080fd5b5061019061027d366004611b4a565b610ee1565b34801561028e57600080fd5b50610190610f09565b3480156102a357600080fd5b5061022d6102b2366004611b14565b610f0f565b3480156102c357600080fd5b506102d76102d23660046119a4565b610fd8565b6040516101259493929190611d1e565b3480156102f357600080fd5b506101906103023660046119a4565b611094565b34801561031357600080fd5b506101906103223660046119a4565b6110af565b34801561033357600080fd5b506101dd6103423660046119ca565b6110c1565b6004805460408051602060026001851615610100026000190190941693909304601f810184900484028201840190925281815292918301828280156103cd5780601f106103a2576101008083540402835291602001916103cd565b820191906000526020600020905b8154815290600101906020018083116103b057829003601f168201915b505050505081565b6103dd6114ac565b600383815481106103ea57fe5b9060005260206000209060030201600101828154811061040657fe5b600091825260209182902060408051600393909302909101805460026001821615610100026000190190911604601f8101859004909402830160a090810190925260808301848152929390928492909184918401828280156104a95780601f1061047e576101008083540402835291602001916104a9565b820191906000526020600020905b81548152906001019060200180831161048c57829003601f168201915b5050509183525050600182015460208201526002909101546001600160a01b0381166040830152600160a01b900460ff16151560609091015290505b92915050565b60606104f56114ac565b336000908152600260208181526040928390208351815460a0601f600019610100600185161502019092169590950490810184900490930281018401909452608084018281529092849284918401828280156105925780601f1061056757610100808354040283529160200191610592565b820191906000526020600020905b81548152906001019060200180831161057557829003601f168201915b5050509183525050600182015460208201526002909101546001600160a01b0381166040830152600160a01b900460ff161515606090910152519150505b90565b600380546000916105e790600183016114df565b50600380546000919060001981019081106105fe57fe5b906000526020600020906003020190506106166114ac565b5060408051608081018252848152600060208083018290523383850181905260016060850152825260028152929020815180519293849361065a9284920190611510565b506020828101516001808401919091556040840151600290930180546060909501511515600160a01b0260ff60a01b196001600160a01b039095166001600160a01b0319909616959095179390931693909317909155838201805492830180825560009182529082902084518051929486946003909102909201926106e29284920190611510565b5060208281015160018301556040830151600290920180546060909401511515600160a01b0260ff60a01b196001600160a01b039094166001600160a01b03199095169490941792909216929092179055865161074492508491880190611510565b506003805460001990810160028581019190915533600090815260208181526040822080546001808201808455928552929093208854919689969402019361079c93859387939081161561010002909101160461158e565b50600182810180546107b19284019190611603565b5060029182015490820155600380546001818101808455600084905287549095508794929093027fc2575a0e9e593c00f959f8c92f12db2869c3395a3b0502d05e2516446f71f85b01926108199284928692610100918116159190910260001901160461158e565b506001828101805461082e9284019190611603565b506002918201549101555091949350505050565b60006003828154811061085157fe5b600091825260209091206001600390920201015492915050565b6003818154811061087857fe5b60009182526020918290206003919091020180546040805160026001841615610100026000190190931692909204601f8101859004850283018501909152808252919350918391908301828280156109115780601f106108e657610100808354040283529160200191610911565b820191906000526020600020905b8154815290600101906020018083116108f457829003601f168201915b5050505050908060020154905082565b600061092b6114ac565b336000908152600260208181526040928390208351815460a0601f600019610100600185161502019092169590950490810184900490930281018401909452608084018281529092849284918401828280156109c85780601f1061099d576101008083540402835291602001916109c8565b820191906000526020600020905b8154815290600101906020018083116109ab57829003601f168201915b5050509183525050600182015460208201526002909101546001600160a01b0381166040830152600160a01b900460ff161515606091820152015192915050565b6000610a136114ac565b60005b8551811015610b715760026000878381518110610a2f57fe5b6020908102919091018101516001600160a01b031682528181019290925260409081016000208151815460026001821615610100026000190190911604601f8101859004909402810160a0908101909352608081018481529093919284928491840182828015610ae05780601f10610ab557610100808354040283529160200191610ae0565b820191906000526020600020905b815481529060010190602001808311610ac357829003601f168201915b5050509183525050600182015460208201526002909101546001600160a01b0381166040830152600160a01b900460ff1615156060909101528551909250859082908110610b2a57fe5b6020026020010151826020018181510391508181525050610b4b8285611148565b50848181518110610b5857fe5b6020026020010151830192508080600101915050610a16565b50336000908152600260208181526040928390208351815460a0601f60001961010060018516150201909216959095049081018490049093028101840190945260808401828152909284928491840182828015610c0f5780601f10610be457610100808354040283529160200191610c0f565b820191906000526020600020905b815481529060010190602001808311610bf257829003601f168201915b505050918352505060018201546020808301919091526002909201546001600160a01b038116604080840191909152600160a01b90910460ff161515606092830152838301805187019052805191820190526025808252929350610c7c929091611e7d9083013983611309565b610cae6040518060400160405280600781526020016629b2b73232b91d60c91b815250826000015183602001516113a3565b6000610cba8285611148565b9050610cfb6040518060400160405280601981526020017f526573756c74206f66207570646174696e67206d656d626572000000000000008152508261144d565b505050505050565b610d0b6114ac565b336000908152600260208181526040928390208351815460a0601f60001961010060018516150201909216959095049081018490049093028101840190945260808401828152909284928491840182828015610da85780601f10610d7d57610100808354040283529160200191610da8565b820191906000526020600020905b815481529060010190602001808311610d8b57829003601f168201915b50505091835250506001828101546020808401919091526002938401546001600160a01b038116604080860191909152600160a01b90910460ff1615156060948501528786529285019190915233600090815292815291208251805193945084939192610e1a92849290910190611510565b50602082015160018201556040820151600290910180546060909301511515600160a01b0260ff60a01b196001600160a01b039093166001600160a01b031990941693909317919091169190911790555050565b6040516001600160a01b038216903480156108fc02916000818181858888f19350505050158015610ea3573d6000803e3d6000fd5b50336000908152600160205260408082208054670de0b6b3a76400003404908190039091556001600160a01b03939093168252902080549091019055565b600060038281548110610ef057fe5b9060005260206000209060030201600201549050919050565b60035490565b60038181548110610f1c57fe5b6000918252602080832060039283020160019081018054918201808255908552938290208651805188959390930290910192610f5d92849290910190611510565b506020828101516001830155604080840151600293840180546060909601516001600160a01b03199096166001600160a01b039283161760ff60a01b1916600160a01b9615159690960295909517909455868101519093166000908152918152919020845180518694509192610e1a92849290910190611510565b600260208181526000928352604092839020805484516001821615610100026000190190911693909304601f81018390048302840183019094528383529283918301828280156110695780601f1061103e57610100808354040283529160200191611069565b820191906000526020600020905b81548152906001019060200180831161104c57829003601f168201915b5050505060018301546002909301549192916001600160a01b0381169150600160a01b900460ff1684565b6001600160a01b031660009081526020819052604090205490565b60016020526000908152604090205481565b600060205281600052604060002081815481106110da57fe5b60009182526020918290206003919091020180546040805160026001841615610100026000190190931692909204601f8101859004850283018501909152808252919450925083918301828280156109115780601f106108e657610100808354040283529160200191610911565b6000805b6003838154811061115957fe5b9060005260206000209060030201600101805490508110156112ff5783604001516001600160a01b03166003848154811061119057fe5b906000526020600020906003020160010182815481106111ac57fe5b60009182526020909120600260039092020101546001600160a01b031614156112f75783600384815481106111dd57fe5b906000526020600020906003020160010182815481106111f957fe5b90600052602060002090600302016000820151816000019080519060200190611223929190611510565b506020828101516001830155604080840151600293840180546060909601516001600160a01b03199096166001600160a01b039283161760ff60a01b1916600160a01b961515969096029590951790945587810151909316600090815291815291902085518051879361129a928492910190611510565b5060208201516001808301919091556040830151600290920180546060909401511515600160a01b0260ff60a01b196001600160a01b039094166001600160a01b0319909516949094179290921692909217905591506104e59050565b60010161114c565b5060009392505050565b60006a636f6e736f6c652e6c6f676001600160a01b03168383604051602401611333929190611cfe565b60408051601f198184030181529181526020820180516001600160e01b03166309710a9d60e41b179052516113689190611c6a565b600060405180830381855afa9150503d8060008114610cfb576040519150601f19603f3d011682016040523d82523d6000602084013e610cfb565b60006a636f6e736f6c652e6c6f676001600160a01b03168484846040516024016113cf93929190611cca565b60408051601f198184030181529181526020820180516001600160e01b031663f362ca5960e01b179052516114049190611c6a565b600060405180830381855afa9150503d806000811461143f576040519150601f19603f3d011682016040523d82523d6000602084013e611444565b606091505b50505050505050565b60006a636f6e736f6c652e6c6f676001600160a01b03168383604051602401611477929190611caa565b60408051601f198184030181529181526020820180516001600160e01b031663c3b5563560e01b179052516113689190611c6a565b6040518060800160405280606081526020016000815260200160006001600160a01b031681526020016000151581525090565b81548183558181111561150b5760030281600302836000526020600020918201910161150b91906116c9565b505050565b828054600181600116156101000203166002900490600052602060002090601f016020900481019282601f1061155157805160ff191683800117855561157e565b8280016001018555821561157e579182015b8281111561157e578251825591602001919060010190611563565b5061158a929150611701565b5090565b828054600181600116156101000203166002900490600052602060002090601f016020900481019282601f106115c7578054855561157e565b8280016001018555821561157e57600052602060002091601f016020900482015b8281111561157e5782548255916001019190600101906115e8565b8280548282559060005260206000209060030281019282156116bd5760005260206000209160030282015b828111156116bd5782548390839061165c90829084906002600019610100600184161502019091160461158e565b5060018281015490820155600291820180549290910180546001600160a01b0319166001600160a01b0390931692909217808355905460ff600160a01b918290041615150260ff60a01b19909116179055600392830192919091019061162e565b5061158a92915061171b565b6105d091905b8082111561158a5760006116e38282611757565b6116f160018301600061179e565b50600060028201556003016116cf565b6105d091905b8082111561158a5760008155600101611707565b6105d091905b8082111561158a5760006117358282611757565b50600060018201556002810180546001600160a81b0319169055600301611721565b50805460018160011615610100020316600290046000825580601f1061177d575061179b565b601f01602090049060005260206000209081019061179b9190611701565b50565b508054600082556003029060005260206000209081019061179b919061171b565b80356104e581611e56565b600082601f8301126117db57600080fd5b81356117ee6117e982611d99565b611d72565b9150818183526020840193506020810190508385602084028201111561181357600080fd5b60005b8381101561183f578161182988826117bf565b8452506020928301929190910190600101611816565b5050505092915050565b600082601f83011261185a57600080fd5b81356118686117e982611d99565b9150818183526020840193506020810190508385602084028201111561188d57600080fd5b60005b8381101561183f57816118a38882611999565b8452506020928301929190910190600101611890565b80356104e581611e6a565b600082601f8301126118d557600080fd5b81356118e36117e982611dba565b915080825260208301602083018583830111156118ff57600080fd5b61190a838284611e10565b50505092915050565b60006080828403121561192557600080fd5b61192f6080611d72565b9050813567ffffffffffffffff81111561194857600080fd5b611954848285016118c4565b825250602061196584848301611999565b6020830152506040611979848285016117bf565b604083015250606061198d848285016118b9565b60608301525092915050565b80356104e581611e73565b6000602082840312156119b657600080fd5b60006119c284846117bf565b949350505050565b600080604083850312156119dd57600080fd5b60006119e985856117bf565b92505060206119fa85828601611999565b9150509250929050565b600080600060608486031215611a1957600080fd5b833567ffffffffffffffff811115611a3057600080fd5b611a3c868287016117ca565b935050602084013567ffffffffffffffff811115611a5957600080fd5b611a6586828701611849565b9250506040611a7686828701611999565b9150509250925092565b600060208284031215611a9257600080fd5b813567ffffffffffffffff811115611aa957600080fd5b6119c2848285016118c4565b60008060408385031215611ac857600080fd5b823567ffffffffffffffff811115611adf57600080fd5b611aeb858286016118c4565b925050602083013567ffffffffffffffff811115611b0857600080fd5b6119fa858286016118c4565b60008060408385031215611b2757600080fd5b823567ffffffffffffffff811115611b3e57600080fd5b6119e985828601611913565b600060208284031215611b5c57600080fd5b60006119c28484611999565b60008060408385031215611b7b57600080fd5b60006119e98585611999565b611b9081611df4565b82525050565b611b9081611dff565b6000611baa82611de2565b611bb48185611de6565b9350611bc4818560208601611e1c565b9290920192915050565b611b90816105d0565b6000611be282611de2565b611bec8185611deb565b9350611bfc818560208601611e1c565b611c0581611e4c565b9093019392505050565b8051608080845260009190840190611c278282611bd7565b9150506020830151611c3c6020860182611bce565b506040830151611c4f6040860182611b87565b506060830151611c626060860182611b96565b509392505050565b6000611c768284611b9f565b9392505050565b602081016104e58284611b96565b602081016104e58284611bce565b60208082528101611c768184611bd7565b60408082528101611cbb8185611bd7565b9050611c766020830184611b96565b60608082528101611cdb8186611bd7565b90508181036020830152611cef8185611bd7565b90506119c26040830184611bce565b60408082528101611d0f8185611bd7565b9050611c766020830184611bce565b60808082528101611d2f8187611bd7565b9050611d3e6020830186611bce565b611d4b6040830185611b87565b611d586060830184611b96565b95945050505050565b60208082528101611c768184611c0f565b60405181810167ffffffffffffffff81118282101715611d9157600080fd5b604052919050565b600067ffffffffffffffff821115611db057600080fd5b5060209081020190565b600067ffffffffffffffff821115611dd157600080fd5b506020601f91909101601f19160190565b5190565b919050565b90815260200190565b60006104e582611e04565b151590565b6001600160a01b031690565b82818337506000910152565b60005b83811015611e37578181015183820152602001611e1f565b83811115611e46576000848401525b50505050565b601f01601f191690565b611e5f81611df4565b811461179b57600080fd5b611e5f81611dff565b611e5f816105d056fe546f74616c206265696e6720616464656420746f2073656e64657227732062616c616e6365a365627a7a723158204540233b052d71cf3d33aa3ed25323de61d485afd95482d310127e37140d20326c6578706572696d656e74616cf564736f6c63430005100040",
  "source": "pragma experimental ABIEncoderV2;\n\n// Uncomment for console.log support\nimport \"@nomiclabs/buidler/console.sol\";\n\n\ncontract PaymentHub {\n\n    // Mapping for finding a user's groups\n    mapping (address => Group[]) public userToGroups;\n    mapping (address => int256) public userToBalance;\n    mapping (address => Member) public userToMember;\n\n    Group[] public groups; // The contract stores all groups, serves as a hub. Various groups will not interact with each other\n\n\tstring public memberName = string(userToMember[msg.sender].name);\n\n    struct Member {\n        string name;\n        uint balance;\n        address addy;\n\t\tbool nameSet;\n    }\n\n    struct Group {\n        string name;\n        Member[] friends;\n        uint256 id;\n    }\n\n    constructor() public {\n        // This data structure found at\n        // https://bit.ly/3azD3fx\n        createGroup(\"PayPals\", \"Creator\");\n        createGroup(\"PaymentPals\", \"Creator\");\n        Member memory member = Member(\"Cofounder\", 200, address(0x6A46eF78714f530e995369B03BB9F471583D114D), false);\n        Member memory member2 = Member(\"Investor\", 10000, address(0x2C10f237735e65e777D33348475000d9FAe0b7Dd), false);\n        addFriend(member, 0);\n        addFriend(member, 2); // For some reason PaymentPals is group 2, not 1?\n        addFriend(member2, 2);\n    }\n\n\tfunction getName() view external returns(string memory){\n\t\tMember memory member = userToMember[msg.sender];\n\t\treturn member.name;\n\t}\n\n\tfunction setName(string memory _name) public {\n\t\tMember memory member = userToMember[msg.sender];\n\t\tmember.name = _name;\n\t\tmember.nameSet = true;\n\t\tuserToMember[msg.sender] = member;\n\t}\n\n    function createGroup(string memory _groupName, string memory _groupOwnerName) public returns(uint) {\n        groups.length++;\n        Group storage group = groups[groups.length - 1];\n\t\t\n        Member memory member = Member(_groupOwnerName, 0, msg.sender, true);\n\t\tuserToMember[msg.sender] = member;\n        group.friends.push(member); // Add the first member, which is the creator\n\n        group.name = _groupName; // Manually set the group name\n        group.id = groups.length - 1;\n\n        userToGroups[msg.sender].push(group);\n\n        groups.push(group);\n    }\n\n    function getGroup(uint _gid) public view returns (uint) {\n        return groups[_gid].id;\n    }\n\n    // Mainly for testing, can be removed later\n    function getGroupSize() public view returns (uint) {\n        return groups.length;\n    }\n\n    // Mainly for testing, can be removed later\n    function friendInGroup(uint _gid, uint _fid) public view returns (Member memory) {\n        return groups[_gid].friends[_fid];\n    }\n\n    // Mainly for testing, can be removed later\n    function numFriendsInGroup(uint _gid) public view returns (uint) {\n        return groups[_gid].friends.length;\n    }\n\n    function addFriend(Member memory _newFriend, uint _groupID) public {\n        groups[_groupID].friends.push(_newFriend);\n        userToMember[_newFriend.addy] = _newFriend;\n    }\n\n    function payFriend(address payable  _friend) external payable {\n        _friend.transfer(msg.value);\n        userToBalance[msg.sender] -= int(msg.value/1000000000000000000);\n        userToBalance[_friend] += int(msg.value/1000000000000000000);\n    }\n\n    function getNumUserGroups(address _add) public view returns (uint){\n        return userToGroups[_add].length;\n    }\n\n\tfunction isNameSet() public view returns(bool){\n\t\tMember memory member = userToMember[msg.sender];\n\t\treturn member.nameSet;\n\t}\n\n    function updateMember(Member memory member, uint _gid) internal returns (bool) {\n        for (uint i = 0; i < groups[_gid].friends.length; i++) {\n            if(groups[_gid].friends[i].addy == member.addy) {\n                groups[_gid].friends[i] = member;\n                userToMember[member.addy] = member;\n                return true;\n            }\n        }\n        return false;\n    }\n\n\n    // consider renaming to payForFriends a\n    function transaction(address[] memory _payedFor, uint[] memory _amounts, uint _gid) public {\n        uint total = 0;\n        Member memory member;\n        for (uint i = 0; i < _payedFor.length; i++) {\n            member = userToMember[_payedFor[i]];\n            member.balance -= _amounts[i];\n            updateMember(member, _gid);\n            total += _amounts[i];\n        }\n        member = userToMember[msg.sender];\n        member.balance += total;\n        console.log(\"Total being added to sender's balance\", total);\n        console.log(\"Sender:\", member.name, member.balance);\n        bool result = updateMember(member, _gid);\n        console.log(\"Result of updating member\", result);\n    }\n\n}\n",
  "sourcePath": "/home/kc/Development/CS481A3/the-payment-pals/contracts/PaymentHub.sol",
  "compiler": {
    "name": "solc",
    "version": "0.5.16+commit.9c3226ce.Emscripten.clang"
  },
  "schemaVersion": "3.0.22",
  "updatedAt": "2020-05-04T19:46:29.992Z",
  "networkType": "ethereum",
  "devdoc": {
    "methods": {}
  },
  "userdoc": {
    "methods": {}
  }
}