{
  "contractName": "PaymentHub",
  "abi": [
    {
      "inputs": [],
      "payable": false,
      "stateMutability": "nonpayable",
      "type": "constructor"
    },
    {
      "constant": true,
      "inputs": [
        {
          "internalType": "uint256",
          "name": "",
          "type": "uint256"
        }
      ],
      "name": "groups",
      "outputs": [
        {
          "internalType": "string",
          "name": "name",
          "type": "string"
        },
        {
          "internalType": "uint256",
          "name": "id",
          "type": "uint256"
        }
      ],
      "payable": false,
      "stateMutability": "view",
      "type": "function"
    },
    {
      "constant": true,
      "inputs": [],
      "name": "memberName",
      "outputs": [
        {
          "internalType": "string",
          "name": "",
          "type": "string"
        }
      ],
      "payable": false,
      "stateMutability": "view",
      "type": "function"
    },
    {
      "constant": true,
      "inputs": [
        {
          "internalType": "address",
          "name": "",
          "type": "address"
        }
      ],
      "name": "userToBalance",
      "outputs": [
        {
          "internalType": "int256",
          "name": "",
          "type": "int256"
        }
      ],
      "payable": false,
      "stateMutability": "view",
      "type": "function"
    },
    {
      "constant": true,
      "inputs": [
        {
          "internalType": "address",
          "name": "",
          "type": "address"
        },
        {
          "internalType": "uint256",
          "name": "",
          "type": "uint256"
        }
      ],
      "name": "userToGroups",
      "outputs": [
        {
          "internalType": "string",
          "name": "name",
          "type": "string"
        },
        {
          "internalType": "uint256",
          "name": "id",
          "type": "uint256"
        }
      ],
      "payable": false,
      "stateMutability": "view",
      "type": "function"
    },
    {
      "constant": true,
      "inputs": [
        {
          "internalType": "address",
          "name": "",
          "type": "address"
        }
      ],
      "name": "userToMember",
      "outputs": [
        {
          "internalType": "string",
          "name": "name",
          "type": "string"
        },
        {
          "internalType": "int256",
          "name": "balance",
          "type": "int256"
        },
        {
          "internalType": "address",
          "name": "addy",
          "type": "address"
        },
        {
          "internalType": "bool",
          "name": "nameSet",
          "type": "bool"
        }
      ],
      "payable": false,
      "stateMutability": "view",
      "type": "function"
    },
    {
      "constant": true,
      "inputs": [],
      "name": "getName",
      "outputs": [
        {
          "internalType": "string",
          "name": "",
          "type": "string"
        }
      ],
      "payable": false,
      "stateMutability": "view",
      "type": "function"
    },
    {
      "constant": false,
      "inputs": [
        {
          "internalType": "string",
          "name": "_name",
          "type": "string"
        }
      ],
      "name": "setName",
      "outputs": [],
      "payable": false,
      "stateMutability": "nonpayable",
      "type": "function"
    },
    {
      "constant": false,
      "inputs": [
        {
          "internalType": "string",
          "name": "_groupName",
          "type": "string"
        },
        {
          "internalType": "string",
          "name": "_groupOwnerName",
          "type": "string"
        }
      ],
      "name": "createGroup",
      "outputs": [
        {
          "internalType": "uint256",
          "name": "",
          "type": "uint256"
        }
      ],
      "payable": false,
      "stateMutability": "nonpayable",
      "type": "function"
    },
    {
      "constant": true,
      "inputs": [
        {
          "internalType": "uint256",
          "name": "_gid",
          "type": "uint256"
        }
      ],
      "name": "getGroup",
      "outputs": [
        {
          "internalType": "uint256",
          "name": "",
          "type": "uint256"
        }
      ],
      "payable": false,
      "stateMutability": "view",
      "type": "function"
    },
    {
      "constant": true,
      "inputs": [],
      "name": "getGroupSize",
      "outputs": [
        {
          "internalType": "uint256",
          "name": "",
          "type": "uint256"
        }
      ],
      "payable": false,
      "stateMutability": "view",
      "type": "function"
    },
    {
      "constant": true,
      "inputs": [
        {
          "internalType": "uint256",
          "name": "_gid",
          "type": "uint256"
        },
        {
          "internalType": "uint256",
          "name": "_fid",
          "type": "uint256"
        }
      ],
      "name": "friendInGroup",
      "outputs": [
        {
          "components": [
            {
              "internalType": "string",
              "name": "name",
              "type": "string"
            },
            {
              "internalType": "int256",
              "name": "balance",
              "type": "int256"
            },
            {
              "internalType": "address",
              "name": "addy",
              "type": "address"
            },
            {
              "internalType": "bool",
              "name": "nameSet",
              "type": "bool"
            }
          ],
          "internalType": "struct PaymentHub.Member",
          "name": "",
          "type": "tuple"
        }
      ],
      "payable": false,
      "stateMutability": "view",
      "type": "function"
    },
    {
      "constant": true,
      "inputs": [
        {
          "internalType": "uint256",
          "name": "_gid",
          "type": "uint256"
        }
      ],
      "name": "numFriendsInGroup",
      "outputs": [
        {
          "internalType": "uint256",
          "name": "",
          "type": "uint256"
        }
      ],
      "payable": false,
      "stateMutability": "view",
      "type": "function"
    },
    {
      "constant": false,
      "inputs": [
        {
          "components": [
            {
              "internalType": "string",
              "name": "name",
              "type": "string"
            },
            {
              "internalType": "int256",
              "name": "balance",
              "type": "int256"
            },
            {
              "internalType": "address",
              "name": "addy",
              "type": "address"
            },
            {
              "internalType": "bool",
              "name": "nameSet",
              "type": "bool"
            }
          ],
          "internalType": "struct PaymentHub.Member",
          "name": "_newFriend",
          "type": "tuple"
        },
        {
          "internalType": "uint256",
          "name": "_groupID",
          "type": "uint256"
        }
      ],
      "name": "addFriend",
      "outputs": [],
      "payable": false,
      "stateMutability": "nonpayable",
      "type": "function"
    },
    {
      "constant": false,
      "inputs": [
        {
          "internalType": "address payable",
          "name": "_friend",
          "type": "address"
        }
      ],
      "name": "payFriend",
      "outputs": [],
      "payable": true,
      "stateMutability": "payable",
      "type": "function"
    },
    {
      "constant": true,
      "inputs": [
        {
          "internalType": "address",
          "name": "_add",
          "type": "address"
        }
      ],
      "name": "getNumUserGroups",
      "outputs": [
        {
          "internalType": "uint256",
          "name": "",
          "type": "uint256"
        }
      ],
      "payable": false,
      "stateMutability": "view",
      "type": "function"
    },
    {
      "constant": true,
      "inputs": [],
      "name": "isNameSet",
      "outputs": [
        {
          "internalType": "bool",
          "name": "",
          "type": "bool"
        }
      ],
      "payable": false,
      "stateMutability": "view",
      "type": "function"
    },
    {
      "constant": false,
      "inputs": [
        {
          "internalType": "address[]",
          "name": "_payedFor",
          "type": "address[]"
        },
        {
          "internalType": "int256[]",
          "name": "_amounts",
          "type": "int256[]"
        },
        {
          "internalType": "uint256",
          "name": "_gid",
          "type": "uint256"
        }
      ],
      "name": "transaction",
      "outputs": [],
      "payable": false,
      "stateMutability": "nonpayable",
      "type": "function"
    }
  ],
  "bytecode": "0x6080604090815233600090815260026020819052919020805462000036926004929160001961010060018316150201160462000593565b503480156200004457600080fd5b50620000956040518060400160405280600781526020016650617950616c7360c81b8152506040518060400160405280600781526020016621b932b0ba37b960c91b815250620001ef60201b60201c565b50620000ea6040518060400160405280600b81526020016a5061796d656e7450616c7360a81b8152506040518060400160405280600781526020016621b932b0ba37b960c91b815250620001ef60201b60201c565b50620000f56200061f565b506040805160c0810182526009608082019081526821b7b337bab73232b960b91b60a0830152815260c86020820152736a46ef78714f530e995369b03bb9f471583d114d9181019190915260006060820152620001516200061f565b506040805160c0810182526008608082019081526724b73b32b9ba37b960c11b60a083015281526127106020820152732c10f237735e65e777d33348475000d9fae0b7dd91810191909152600060608201819052620001bb9083906001600160e01b036200047116565b620001d18260026001600160e01b036200047116565b620001e78160026001600160e01b036200047116565b5050620008d4565b6003805460009162000205906001830162000652565b50600380546000919060001981019081106200021d57fe5b90600052602060002090600302019050620002376200061f565b506040805160808101825284815260006020808301829052338385018190526001606085015282526002815292902081518051929384936200027d928492019062000686565b506020828101516001808401919091556040840151600290930180546060909501511515600160a01b0260ff60a01b196001600160a01b039095166001600160a01b03199096169590951793909316939093179091558382018054928301808255600091825290829020845180519294869460039091029092019262000307928492019062000686565b5060208281015160018301556040830151600290920180546060909401511515600160a01b0260ff60a01b196001600160a01b039094166001600160a01b0319909516949094179290921692909217905586516200036b9250849188019062000686565b5060038054600019908101600285810191909155336000908152602081815260408220805460018082018084559285529290932088549196899694020193620003c593859387939081161561010002909101160462000593565b5060018281018054620003dc9284019190620006f9565b5060029182015490820155600380546001818101808455600084905287549095508794929093027fc2575a0e9e593c00f959f8c92f12db2869c3395a3b0502d05e2516446f71f85b0192620004469284928692610100918116159190910260001901160462000593565b50600182810180546200045d9284019190620006f9565b506002918201549101555091949350505050565b600381815481106200047f57fe5b6000918252602080832060039283020160019081018054918201808255908552938290208651805188959390930290910192620004c29284929091019062000686565b506020828101516001830155604080840151600293840180546060909601516001600160a01b03199096166001600160a01b039283161760ff60a01b1916600160a01b96151596909602959095179094558681015190931660009081529181529190208451805186945091926200053f9284929091019062000686565b50602082015160018201556040820151600290910180546060909301511515600160a01b0260ff60a01b196001600160a01b039093166001600160a01b031990941693909317919091169190911790555050565b828054600181600116156101000203166002900490600052602060002090601f016020900481019282601f10620005ce57805485556200060d565b828001600101855582156200060d57600052602060002091601f016020900482015b828111156200060d578254825591600101919060010190620005f0565b506200061b929150620007c6565b5090565b6040518060800160405280606081526020016000815260200160006001600160a01b031681526020016000151581525090565b8154818355818111156200068157600302816003028360005260206000209182019101620006819190620007e6565b505050565b828054600181600116156101000203166002900490600052602060002090601f016020900481019282601f10620006c957805160ff19168380011785556200060d565b828001600101855582156200060d579182015b828111156200060d578251825591602001919060010190620006dc565b828054828255906000526020600020906003028101928215620007b85760005260206000209160030282015b82811115620007b8578254839083906200075690829084906002600019610100600184161502019091160462000593565b5060018281015490820155600291820180549290910180546001600160a01b0319166001600160a01b0390931692909217808355905460ff600160a01b918290041615150260ff60a01b19909116179055600392830192919091019062000725565b506200061b92915062000825565b620007e391905b808211156200061b5760008155600101620007cd565b90565b620007e391905b808211156200061b57600062000804828262000866565b62000814600183016000620008b1565b5060006002820155600301620007ed565b620007e391905b808211156200061b57600062000843828262000866565b50600060018201556002810180546001600160a81b03191690556003016200082c565b50805460018160011615610100020316600290046000825580601f106200088e5750620008ae565b601f016020900490600052602060002090810190620008ae9190620007c6565b50565b5080546000825560030290600052602060002090810190620008ae919062000825565b611bf080620008e46000396000f3fe6080604052600436106100fe5760003560e01c8063a47514db11610095578063d1a154a311610064578063d1a154a3146102a2578063d5953ae9146102b7578063d67c6888146102e7578063dc33be0e14610307578063f698b7cc14610327576100fe565b8063a47514db1461022d578063c47f00271461024f578063c9ae91731461026f578063ceb6065414610282576100fe565b80631e4a97dd116100d15780631e4a97dd1461019257806342c91d09146101bf5780638fd69931146101df57806396324bd4146101ff576100fe565b806302dbc2c71461010357806307c21383146101255780630fa4ff151461015057806317d7de7c1461017d575b600080fd5b34801561010f57600080fd5b5061012361011e3660046118d9565b610347565b005b34801561013157600080fd5b5061013a610464565b6040516101479190611a1c565b60405180910390f35b34801561015c57600080fd5b5061017061016b36600461192d565b6104f2565b6040516101479190611a97565b34801561018957600080fd5b5061013a610608565b34801561019e57600080fd5b506101b26101ad36600461187a565b6106f0565b6040516101479190611a0e565b3480156101cb57600080fd5b506101b26101da36600461190f565b61095f565b3480156101eb57600080fd5b506101236101fa3660046117c9565b610988565b34801561020b57600080fd5b5061021f61021a36600461190f565b610bea565b604051610147929190611a77565b34801561023957600080fd5b50610242610ca0565b6040516101479190611a00565b34801561025b57600080fd5b5061012361026a366004611845565b610d88565b61012361027d366004611769565b610e9f565b34801561028e57600080fd5b506101b261029d36600461190f565b610f12565b3480156102ae57600080fd5b506101b2610f3a565b3480156102c357600080fd5b506102d76102d2366004611769565b610f40565b6040516101479493929190611a34565b3480156102f357600080fd5b506101b2610302366004611769565b610ffc565b34801561031357600080fd5b506101b2610322366004611769565b611017565b34801561033357600080fd5b5061021f61034236600461178f565b611029565b6003818154811061035457fe5b600091825260208083206003928302016001908101805491820180825590855293829020865180518895939093029091019261039592849290910190611271565b506020828101516001830155604080840151600293840180546060909601516001600160a01b03199096166001600160a01b039283161760ff60a01b1916600160a01b961515969096029590951790945586810151909316600090815291815291902084518051869450919261041092849290910190611271565b50602082015160018201556040820151600290910180546060909301511515600160a01b0260ff60a01b196001600160a01b039093166001600160a01b031990941693909317919091169190911790555050565b6004805460408051602060026001851615610100026000190190941693909304601f810184900484028201840190925281815292918301828280156104ea5780601f106104bf576101008083540402835291602001916104ea565b820191906000526020600020905b8154815290600101906020018083116104cd57829003601f168201915b505050505081565b6104fa6112ef565b6003838154811061050757fe5b9060005260206000209060030201600101828154811061052357fe5b600091825260209182902060408051600393909302909101805460026001821615610100026000190190911604601f8101859004909402830160a090810190925260808301848152929390928492909184918401828280156105c65780601f1061059b576101008083540402835291602001916105c6565b820191906000526020600020905b8154815290600101906020018083116105a957829003601f168201915b5050509183525050600182015460208201526002909101546001600160a01b0381166040830152600160a01b900460ff16151560609091015290505b92915050565b60606106126112ef565b336000908152600260208181526040928390208351815460a0601f600019610100600185161502019092169590950490810184900490930281018401909452608084018281529092849284918401828280156106af5780601f10610684576101008083540402835291602001916106af565b820191906000526020600020905b81548152906001019060200180831161069257829003601f168201915b5050509183525050600182015460208201526002909101546001600160a01b0381166040830152600160a01b900460ff161515606090910152519150505b90565b600380546000916107049060018301611322565b506003805460009190600019810190811061071b57fe5b906000526020600020906003020190506107336112ef565b506040805160808101825284815260006020808301829052338385018190526001606085015282526002815292902081518051929384936107779284920190611271565b506020828101516001808401919091556040840151600290930180546060909501511515600160a01b0260ff60a01b196001600160a01b039095166001600160a01b0319909616959095179390931693909317909155838201805492830180825560009182529082902084518051929486946003909102909201926107ff9284920190611271565b5060208281015160018301556040830151600290920180546060909401511515600160a01b0260ff60a01b196001600160a01b039094166001600160a01b03199095169490941792909216929092179055865161086192508491880190611271565b50600380546000199081016002858101919091553360009081526020818152604082208054600180820180845592855292909320885491968996940201936108b9938593879390811615610100029091011604611353565b50600182810180546108ce92840191906113c8565b5060029182015490820155600380546001818101808455600084905287549095508794929093027fc2575a0e9e593c00f959f8c92f12db2869c3395a3b0502d05e2516446f71f85b019261093692849286926101009181161591909102600019011604611353565b506001828101805461094b92840191906113c8565b506002918201549101555091949350505050565b60006003828154811061096e57fe5b600091825260209091206001600390920201015492915050565b60006109926112ef565b60005b8551811015610af057600260008783815181106109ae57fe5b6020908102919091018101516001600160a01b031682528181019290925260409081016000208151815460026001821615610100026000190190911604601f8101859004909402810160a0908101909352608081018481529093919284928491840182828015610a5f5780601f10610a3457610100808354040283529160200191610a5f565b820191906000526020600020905b815481529060010190602001808311610a4257829003601f168201915b5050509183525050600182015460208201526002909101546001600160a01b0381166040830152600160a01b900460ff1615156060909101528551909250859082908110610aa957fe5b6020026020010151826020018181510391508181525050610aca82856110b0565b50848181518110610ad757fe5b6020026020010151830192508080600101915050610995565b50336000908152600260208181526040928390208351815460a0601f60001961010060018516150201909216959095049081018490049093028101840190945260808401828152909284928491840182828015610b8e5780601f10610b6357610100808354040283529160200191610b8e565b820191906000526020600020905b815481529060010190602001808311610b7157829003601f168201915b505050918352505060018201546020808301919091526002909201546001600160a01b0381166040830152600160a01b900460ff161515606090910152810180518401905290506000610be182856110b0565b50505050505050565b60038181548110610bf757fe5b60009182526020918290206003919091020180546040805160026001841615610100026000190190931692909204601f810185900485028301850190915280825291935091839190830182828015610c905780601f10610c6557610100808354040283529160200191610c90565b820191906000526020600020905b815481529060010190602001808311610c7357829003601f168201915b5050505050908060020154905082565b6000610caa6112ef565b336000908152600260208181526040928390208351815460a0601f60001961010060018516150201909216959095049081018490049093028101840190945260808401828152909284928491840182828015610d475780601f10610d1c57610100808354040283529160200191610d47565b820191906000526020600020905b815481529060010190602001808311610d2a57829003601f168201915b5050509183525050600182015460208201526002909101546001600160a01b0381166040830152600160a01b900460ff161515606091820152015192915050565b610d906112ef565b336000908152600260208181526040928390208351815460a0601f60001961010060018516150201909216959095049081018490049093028101840190945260808401828152909284928491840182828015610e2d5780601f10610e0257610100808354040283529160200191610e2d565b820191906000526020600020905b815481529060010190602001808311610e1057829003601f168201915b50505091835250506001828101546020808401919091526002938401546001600160a01b038116604080860191909152600160a01b90910460ff161515606094850152878652928501919091523360009081529281529120825180519394508493919261041092849290910190611271565b6040516001600160a01b038216903480156108fc02916000818181858888f19350505050158015610ed4573d6000803e3d6000fd5b50336000908152600160205260408082208054670de0b6b3a76400003404908190039091556001600160a01b03939093168252902080549091019055565b600060038281548110610f2157fe5b9060005260206000209060030201600201549050919050565b60035490565b600260208181526000928352604092839020805484516001821615610100026000190190911693909304601f8101839004830284018301909452838352928391830182828015610fd15780601f10610fa657610100808354040283529160200191610fd1565b820191906000526020600020905b815481529060010190602001808311610fb457829003601f168201915b5050505060018301546002909301549192916001600160a01b0381169150600160a01b900460ff1684565b6001600160a01b031660009081526020819052604090205490565b60016020526000908152604090205481565b6000602052816000526040600020818154811061104257fe5b60009182526020918290206003919091020180546040805160026001841615610100026000190190931692909204601f810185900485028301850190915280825291945092508391830182828015610c905780601f10610c6557610100808354040283529160200191610c90565b6000805b600383815481106110c157fe5b9060005260206000209060030201600101805490508110156112675783604001516001600160a01b0316600384815481106110f857fe5b9060005260206000209060030201600101828154811061111457fe5b60009182526020909120600260039092020101546001600160a01b0316141561125f57836003848154811061114557fe5b9060005260206000209060030201600101828154811061116157fe5b9060005260206000209060030201600082015181600001908051906020019061118b929190611271565b506020828101516001830155604080840151600293840180546060909601516001600160a01b03199096166001600160a01b039283161760ff60a01b1916600160a01b9615159690960295909517909455878101519093166000908152918152919020855180518793611202928492910190611271565b5060208201516001808301919091556040830151600290920180546060909401511515600160a01b0260ff60a01b196001600160a01b039094166001600160a01b0319909516949094179290921692909217905591506106029050565b6001016110b4565b5060009392505050565b828054600181600116156101000203166002900490600052602060002090601f016020900481019282601f106112b257805160ff19168380011785556112df565b828001600101855582156112df579182015b828111156112df5782518255916020019190600101906112c4565b506112eb92915061148e565b5090565b6040518060800160405280606081526020016000815260200160006001600160a01b031681526020016000151581525090565b81548183558181111561134e5760030281600302836000526020600020918201910161134e91906114a8565b505050565b828054600181600116156101000203166002900490600052602060002090601f016020900481019282601f1061138c57805485556112df565b828001600101855582156112df57600052602060002091601f016020900482015b828111156112df5782548255916001019190600101906113ad565b8280548282559060005260206000209060030281019282156114825760005260206000209160030282015b8281111561148257825483908390611421908290849060026000196101006001841615020190911604611353565b5060018281015490820155600291820180549290910180546001600160a01b0319166001600160a01b0390931692909217808355905460ff600160a01b918290041615150260ff60a01b1990911617905560039283019291909101906113f3565b506112eb9291506114e0565b6106ed91905b808211156112eb5760008155600101611494565b6106ed91905b808211156112eb5760006114c2828261151c565b6114d0600183016000611563565b50600060028201556003016114ae565b6106ed91905b808211156112eb5760006114fa828261151c565b50600060018201556002810180546001600160a81b03191690556003016114e6565b50805460018160011615610100020316600290046000825580601f106115425750611560565b601f016020900490600052602060002090810190611560919061148e565b50565b508054600082556003029060005260206000209081019061156091906114e0565b803561060281611b87565b600082601f8301126115a057600080fd5b81356115b36115ae82611acf565b611aa8565b915081818352602084019350602081019050838560208402820111156115d857600080fd5b60005b8381101561160457816115ee8882611584565b84525060209283019291909101906001016115db565b5050505092915050565b600082601f83011261161f57600080fd5b813561162d6115ae82611acf565b9150818183526020840193506020810190508385602084028201111561165257600080fd5b60005b8381101561160457816116688882611689565b8452506020928301929190910190600101611655565b803561060281611b9b565b803561060281611ba4565b600082601f8301126116a557600080fd5b81356116b36115ae82611af0565b915080825260208301602083018583830111156116cf57600080fd5b6116da838284611b41565b50505092915050565b6000608082840312156116f557600080fd5b6116ff6080611aa8565b9050813567ffffffffffffffff81111561171857600080fd5b61172484828501611694565b825250602061173584848301611689565b602083015250604061174984828501611584565b604083015250606061175d8482850161167e565b60608301525092915050565b60006020828403121561177b57600080fd5b60006117878484611584565b949350505050565b600080604083850312156117a257600080fd5b60006117ae8585611584565b92505060206117bf85828601611689565b9150509250929050565b6000806000606084860312156117de57600080fd5b833567ffffffffffffffff8111156117f557600080fd5b6118018682870161158f565b935050602084013567ffffffffffffffff81111561181e57600080fd5b61182a8682870161160e565b925050604061183b86828701611689565b9150509250925092565b60006020828403121561185757600080fd5b813567ffffffffffffffff81111561186e57600080fd5b61178784828501611694565b6000806040838503121561188d57600080fd5b823567ffffffffffffffff8111156118a457600080fd5b6118b085828601611694565b925050602083013567ffffffffffffffff8111156118cd57600080fd5b6117bf85828601611694565b600080604083850312156118ec57600080fd5b823567ffffffffffffffff81111561190357600080fd5b6117ae858286016116e3565b60006020828403121561192157600080fd5b60006117878484611689565b6000806040838503121561194057600080fd5b60006117ae8585611689565b61195581611b25565b82525050565b61195581611b30565b611955816106ed565b600061197882611b18565b6119828185611b1c565b9350611992818560208601611b4d565b61199b81611b7d565b9093019392505050565b80516080808452600091908401906119bd828261196d565b91505060208301516119d26020860182611964565b5060408301516119e5604086018261194c565b5060608301516119f8606086018261195b565b509392505050565b60208101610602828461195b565b602081016106028284611964565b60208082528101611a2d818461196d565b9392505050565b60808082528101611a45818761196d565b9050611a546020830186611964565b611a61604083018561194c565b611a6e606083018461195b565b95945050505050565b60408082528101611a88818561196d565b9050611a2d6020830184611964565b60208082528101611a2d81846119a5565b60405181810167ffffffffffffffff81118282101715611ac757600080fd5b604052919050565b600067ffffffffffffffff821115611ae657600080fd5b5060209081020190565b600067ffffffffffffffff821115611b0757600080fd5b506020601f91909101601f19160190565b5190565b90815260200190565b600061060282611b35565b151590565b6001600160a01b031690565b82818337506000910152565b60005b83811015611b68578181015183820152602001611b50565b83811115611b77576000848401525b50505050565b601f01601f191690565b611b9081611b25565b811461156057600080fd5b611b9081611b30565b611b90816106ed56fea365627a7a723158207d3eeace845d90e7613b2bd0ad0558e7cb4c5a5d587e27b363ca014339a397af6c6578706572696d656e74616cf564736f6c63430005100040",
  "source": "pragma experimental ABIEncoderV2;\n\n// Uncomment for console.log support\nimport \"@nomiclabs/buidler/console.sol\";\n\n\ncontract PaymentHub {\n\n    // Mapping for finding a user's groups\n    mapping (address => Group[]) public userToGroups;\n    mapping (address => int256) public userToBalance;\n    mapping (address => Member) public userToMember;\n\n    Group[] public groups; // The contract stores all groups, serves as a hub. Various groups will not interact with each other\n\n\tstring public memberName = string(userToMember[msg.sender].name);\n\n    struct Member {\n        string name;\n        int balance;\n        address addy;\n\t\tbool nameSet;\n    }\n\n    struct Group {\n        string name;\n        Member[] friends;\n        uint256 id;\n    }\n\n    constructor() public {\n        // This data structure found at\n        // https://bit.ly/3azD3fx\n        createGroup(\"PayPals\", \"Creator\");\n        createGroup(\"PaymentPals\", \"Creator\");\n        Member memory member = Member(\"Cofounder\", 200, address(0x6A46eF78714f530e995369B03BB9F471583D114D), false);\n        Member memory member2 = Member(\"Investor\", 10000, address(0x2C10f237735e65e777D33348475000d9FAe0b7Dd), false);\n        addFriend(member, 0);\n        addFriend(member, 2); // For some reason PaymentPals is group 2, not 1?\n        addFriend(member2, 2);\n    }\n\n\tfunction getName() view external returns(string memory){\n\t\tMember memory member = userToMember[msg.sender];\n\t\treturn member.name;\n\t}\n\n\tfunction setName(string memory _name) public {\n\t\tMember memory member = userToMember[msg.sender];\n\t\tmember.name = _name;\n\t\tmember.nameSet = true;\n\t\tuserToMember[msg.sender] = member;\n\t}\n\n    function createGroup(string memory _groupName, string memory _groupOwnerName) public returns(uint) {\n        groups.length++;\n        Group storage group = groups[groups.length - 1];\n\t\t\n        Member memory member = Member(_groupOwnerName, 0, msg.sender, true);\n\t\tuserToMember[msg.sender] = member;\n        group.friends.push(member); // Add the first member, which is the creator\n\n        group.name = _groupName; // Manually set the group name\n        group.id = groups.length - 1;\n\n        userToGroups[msg.sender].push(group);\n\n        groups.push(group);\n    }\n\n    function getGroup(uint _gid) public view returns (uint) {\n        return groups[_gid].id;\n    }\n\n    // Mainly for testing, can be removed later\n    function getGroupSize() public view returns (uint) {\n        return groups.length;\n    }\n\n    // Mainly for testing, can be removed later\n    function friendInGroup(uint _gid, uint _fid) public view returns (Member memory) {\n        return groups[_gid].friends[_fid];\n    }\n\n    // Mainly for testing, can be removed later\n    function numFriendsInGroup(uint _gid) public view returns (uint) {\n        return groups[_gid].friends.length;\n    }\n\n    function addFriend(Member memory _newFriend, uint _groupID) public {\n        groups[_groupID].friends.push(_newFriend);\n        userToMember[_newFriend.addy] = _newFriend;\n    }\n\n    function payFriend(address payable  _friend) external payable {\n        _friend.transfer(msg.value);\n        userToBalance[msg.sender] -= int(msg.value/1000000000000000000);\n        userToBalance[_friend] += int(msg.value/1000000000000000000);\n    }\n\n    function getNumUserGroups(address _add) public view returns (uint){\n        return userToGroups[_add].length;\n    }\n\n\tfunction isNameSet() public view returns(bool){\n\t\tMember memory member = userToMember[msg.sender];\n\t\treturn member.nameSet;\n\t}\n\n    function updateMember(Member memory member, uint _gid) internal returns (bool) {\n        for (uint i = 0; i < groups[_gid].friends.length; i++) {\n            if(groups[_gid].friends[i].addy == member.addy) {\n                groups[_gid].friends[i] = member;\n                userToMember[member.addy] = member;\n                return true;\n            }\n        }\n        return false;\n    }\n\n\n    // consider renaming to payForFriends a\n    function transaction(address[] memory _payedFor, int[] memory _amounts, uint _gid) public {\n        int total = 0;\n        Member memory member;\n        for (uint i = 0; i < _payedFor.length; i++) {\n            member = userToMember[_payedFor[i]];\n            member.balance -= _amounts[i];\n            updateMember(member, _gid);\n            total += _amounts[i];\n        }\n        member = userToMember[msg.sender];\n        member.balance += total;\n        //console.log(\"Total being added to sender's balance\", total);\n        //console.log(\"Sender:\", member.name, member.balance);\n        bool result = updateMember(member, _gid);\n        //console.log(\"Result of updating member\", result);\n    }\n\n}\n",
  "sourcePath": "/home/kc/Development/CS481A3/the-payment-pals/contracts/PaymentHub.sol",
  "compiler": {
    "name": "solc",
    "version": "0.5.16+commit.9c3226ce.Emscripten.clang"
  },
  "schemaVersion": "3.0.22",
  "updatedAt": "2020-05-07T06:11:06.947Z",
  "networkType": "ethereum",
  "devdoc": {
    "methods": {}
  },
  "userdoc": {
    "methods": {}
  }
}