{
  "contractName": "PaymentHub",
  "abi": [
    {
      "inputs": [],
      "payable": false,
      "stateMutability": "nonpayable",
      "type": "constructor"
    },
    {
      "constant": true,
      "inputs": [
        {
          "internalType": "uint256",
          "name": "",
          "type": "uint256"
        }
      ],
      "name": "groups",
      "outputs": [
        {
          "internalType": "string",
          "name": "name",
          "type": "string"
        },
        {
          "internalType": "uint256",
          "name": "id",
          "type": "uint256"
        }
      ],
      "payable": false,
      "stateMutability": "view",
      "type": "function"
    },
    {
      "constant": true,
      "inputs": [],
      "name": "memberName",
      "outputs": [
        {
          "internalType": "string",
          "name": "",
          "type": "string"
        }
      ],
      "payable": false,
      "stateMutability": "view",
      "type": "function"
    },
    {
      "constant": true,
      "inputs": [
        {
          "internalType": "address",
          "name": "",
          "type": "address"
        }
      ],
      "name": "userToBalance",
      "outputs": [
        {
          "internalType": "int256",
          "name": "",
          "type": "int256"
        }
      ],
      "payable": false,
      "stateMutability": "view",
      "type": "function"
    },
    {
      "constant": true,
      "inputs": [
        {
          "internalType": "address",
          "name": "",
          "type": "address"
        },
        {
          "internalType": "uint256",
          "name": "",
          "type": "uint256"
        }
      ],
      "name": "userToGroups",
      "outputs": [
        {
          "internalType": "string",
          "name": "name",
          "type": "string"
        },
        {
          "internalType": "uint256",
          "name": "id",
          "type": "uint256"
        }
      ],
      "payable": false,
      "stateMutability": "view",
      "type": "function"
    },
    {
      "constant": true,
      "inputs": [
        {
          "internalType": "address",
          "name": "",
          "type": "address"
        }
      ],
      "name": "userToMember",
      "outputs": [
        {
          "internalType": "string",
          "name": "name",
          "type": "string"
        },
        {
          "internalType": "int256",
          "name": "balance",
          "type": "int256"
        },
        {
          "internalType": "address",
          "name": "addy",
          "type": "address"
        },
        {
          "internalType": "bool",
          "name": "nameSet",
          "type": "bool"
        }
      ],
      "payable": false,
      "stateMutability": "view",
      "type": "function"
    },
    {
      "constant": true,
      "inputs": [],
      "name": "getName",
      "outputs": [
        {
          "internalType": "string",
          "name": "",
          "type": "string"
        }
      ],
      "payable": false,
      "stateMutability": "view",
      "type": "function"
    },
    {
      "constant": false,
      "inputs": [
        {
          "internalType": "string",
          "name": "_name",
          "type": "string"
        }
      ],
      "name": "setName",
      "outputs": [],
      "payable": false,
      "stateMutability": "nonpayable",
      "type": "function"
    },
    {
      "constant": false,
      "inputs": [
        {
          "internalType": "string",
          "name": "_groupName",
          "type": "string"
        },
        {
          "internalType": "string",
          "name": "_groupOwnerName",
          "type": "string"
        }
      ],
      "name": "createGroup",
      "outputs": [
        {
          "internalType": "uint256",
          "name": "",
          "type": "uint256"
        }
      ],
      "payable": false,
      "stateMutability": "nonpayable",
      "type": "function"
    },
    {
      "constant": true,
      "inputs": [
        {
          "internalType": "uint256",
          "name": "_gid",
          "type": "uint256"
        }
      ],
      "name": "getGroup",
      "outputs": [
        {
          "internalType": "uint256",
          "name": "",
          "type": "uint256"
        }
      ],
      "payable": false,
      "stateMutability": "view",
      "type": "function"
    },
    {
      "constant": true,
      "inputs": [],
      "name": "getGroupSize",
      "outputs": [
        {
          "internalType": "uint256",
          "name": "",
          "type": "uint256"
        }
      ],
      "payable": false,
      "stateMutability": "view",
      "type": "function"
    },
    {
      "constant": true,
      "inputs": [
        {
          "internalType": "uint256",
          "name": "_gid",
          "type": "uint256"
        },
        {
          "internalType": "uint256",
          "name": "_fid",
          "type": "uint256"
        }
      ],
      "name": "friendInGroup",
      "outputs": [
        {
          "components": [
            {
              "internalType": "string",
              "name": "name",
              "type": "string"
            },
            {
              "internalType": "int256",
              "name": "balance",
              "type": "int256"
            },
            {
              "internalType": "address",
              "name": "addy",
              "type": "address"
            },
            {
              "internalType": "bool",
              "name": "nameSet",
              "type": "bool"
            }
          ],
          "internalType": "struct PaymentHub.Member",
          "name": "",
          "type": "tuple"
        }
      ],
      "payable": false,
      "stateMutability": "view",
      "type": "function"
    },
    {
      "constant": true,
      "inputs": [
        {
          "internalType": "uint256",
          "name": "_gid",
          "type": "uint256"
        }
      ],
      "name": "numFriendsInGroup",
      "outputs": [
        {
          "internalType": "uint256",
          "name": "",
          "type": "uint256"
        }
      ],
      "payable": false,
      "stateMutability": "view",
      "type": "function"
    },
    {
      "constant": false,
      "inputs": [
        {
          "components": [
            {
              "internalType": "string",
              "name": "name",
              "type": "string"
            },
            {
              "internalType": "int256",
              "name": "balance",
              "type": "int256"
            },
            {
              "internalType": "address",
              "name": "addy",
              "type": "address"
            },
            {
              "internalType": "bool",
              "name": "nameSet",
              "type": "bool"
            }
          ],
          "internalType": "struct PaymentHub.Member",
          "name": "_newFriend",
          "type": "tuple"
        },
        {
          "internalType": "uint256",
          "name": "_groupID",
          "type": "uint256"
        }
      ],
      "name": "addFriend",
      "outputs": [],
      "payable": false,
      "stateMutability": "nonpayable",
      "type": "function"
    },
    {
      "constant": false,
      "inputs": [
        {
          "internalType": "address payable",
          "name": "_friend",
          "type": "address"
        }
      ],
      "name": "payFriend",
      "outputs": [],
      "payable": true,
      "stateMutability": "payable",
      "type": "function"
    },
    {
      "constant": true,
      "inputs": [
        {
          "internalType": "address",
          "name": "_add",
          "type": "address"
        }
      ],
      "name": "getNumUserGroups",
      "outputs": [
        {
          "internalType": "uint256",
          "name": "",
          "type": "uint256"
        }
      ],
      "payable": false,
      "stateMutability": "view",
      "type": "function"
    },
    {
      "constant": true,
      "inputs": [],
      "name": "isNameSet",
      "outputs": [
        {
          "internalType": "bool",
          "name": "",
          "type": "bool"
        }
      ],
      "payable": false,
      "stateMutability": "view",
      "type": "function"
    },
    {
      "constant": false,
      "inputs": [
        {
          "internalType": "address[]",
          "name": "_payedFor",
          "type": "address[]"
        },
        {
          "internalType": "int256[]",
          "name": "_amounts",
          "type": "int256[]"
        }
      ],
      "name": "transaction",
      "outputs": [],
      "payable": false,
      "stateMutability": "nonpayable",
      "type": "function"
    }
  ],
  "bytecode": "0x6080604052600260003373ffffffffffffffffffffffffffffffffffffffff1673ffffffffffffffffffffffffffffffffffffffff168152602001908152602001600020600001600490805460018160011615610100020316600290046200006992919062000740565b503480156200007757600080fd5b50620000f46040518060400160405280600781526020017f50617950616c73000000000000000000000000000000000000000000000000008152506040518060400160405280600781526020017f43726561746f7200000000000000000000000000000000000000000000000000815250620002d460201b60201c565b50620001716040518060400160405280600b81526020017f5061796d656e7450616c730000000000000000000000000000000000000000008152506040518060400160405280600781526020017f43726561746f7200000000000000000000000000000000000000000000000000815250620002d460201b60201c565b506200017c620007ce565b60405180608001604052806040518060400160405280600981526020017f436f666f756e6465720000000000000000000000000000000000000000000000815250815260200160c88152602001736a46ef78714f530e995369b03bb9f471583d114d73ffffffffffffffffffffffffffffffffffffffff1681526020016000151581525090506200020c620007ce565b60405180608001604052806040518060400160405280600881526020017f496e766573746f7200000000000000000000000000000000000000000000000081525081526020016127108152602001732c10f237735e65e777d33348475000d9fae0b7dd73ffffffffffffffffffffffffffffffffffffffff168152602001600015158152509050620002a68260006200065e60201b60201c565b620002b98260026200065e60201b60201c565b620002cc8160026200065e60201b60201c565b505062000c63565b600060038054809190600101620002ec91906200080e565b5060006003600160038054905003815481106200030557fe5b906000526020600020906003020190506200031f620007ce565b6040518060800160405280858152602001600081526020013373ffffffffffffffffffffffffffffffffffffffff16815260200160001515815250905080600260003373ffffffffffffffffffffffffffffffffffffffff1673ffffffffffffffffffffffffffffffffffffffff1681526020019081526020016000206000820151816000019080519060200190620003ba92919062000843565b506020820151816001015560408201518160020160006101000a81548173ffffffffffffffffffffffffffffffffffffffff021916908373ffffffffffffffffffffffffffffffffffffffff16021790555060608201518160020160146101000a81548160ff02191690831515021790555090505081600101819080600181540180825580915050906001820390600052602060002090600302016000909192909190915060008201518160000190805190602001906200047d92919062000843565b506020820151816001015560408201518160020160006101000a81548173ffffffffffffffffffffffffffffffffffffffff021916908373ffffffffffffffffffffffffffffffffffffffff16021790555060608201518160020160146101000a81548160ff021916908315150217905550505050848260000190805190602001906200050c929190620008ca565b5060016003805490500382600201819055506000803373ffffffffffffffffffffffffffffffffffffffff1673ffffffffffffffffffffffffffffffffffffffff168152602001908152602001600020829080600181540180825580915050906001820390600052602060002090600302016000909192909190915060008201816000019080546001816001161561010002031660029004620005b192919062000951565b506001820181600101908054620005ca929190620009df565b506002820154816002015550505060038290806001815401808255809150509060018203906000526020600020906003020160009091929091909150600082018160000190805460018160011615610100020316600290046200062f92919062000951565b50600182018160010190805462000648929190620009df565b5060028201548160020155505050505092915050565b600381815481106200066c57fe5b906000526020600020906003020160010182908060018154018082558091505090600182039060005260206000209060030201600090919290919091506000820151816000019080519060200190620006c792919062000843565b506020820151816001015560408201518160020160006101000a81548173ffffffffffffffffffffffffffffffffffffffff021916908373ffffffffffffffffffffffffffffffffffffffff16021790555060608201518160020160146101000a81548160ff0219169083151502179055505050505050565b828054600181600116156101000203166002900490600052602060002090601f016020900481019282601f106200077b5780548555620007bb565b82800160010185558215620007bb57600052602060002091601f016020900482015b82811115620007ba5782548255916001019190600101906200079d565b5b509050620007ca919062000b04565b5090565b60405180608001604052806060815260200160008152602001600073ffffffffffffffffffffffffffffffffffffffff1681526020016000151581525090565b8154818355818111156200083e576003028160030283600052602060002091820191016200083d919062000b2c565b5b505050565b828054600181600116156101000203166002900490600052602060002090601f016020900481019282601f106200088657805160ff1916838001178555620008b7565b82800160010185558215620008b7579182015b82811115620008b657825182559160200191906001019062000899565b5b509050620008c6919062000b04565b5090565b828054600181600116156101000203166002900490600052602060002090601f016020900481019282601f106200090d57805160ff19168380011785556200093e565b828001600101855582156200093e579182015b828111156200093d57825182559160200191906001019062000920565b5b5090506200094d919062000b04565b5090565b828054600181600116156101000203166002900490600052602060002090601f016020900481019282601f106200098c5780548555620009cc565b82800160010185558215620009cc57600052602060002091601f016020900482015b82811115620009cb578254825591600101919060010190620009ae565b5b509050620009db919062000b04565b5090565b82805482825590600052602060002090600302810192821562000af15760005260206000209160030282015b8281111562000af05782826000820181600001908054600181600116156101000203166002900462000a3f92919062000951565b50600182015481600101556002820160009054906101000a900473ffffffffffffffffffffffffffffffffffffffff168160020160006101000a81548173ffffffffffffffffffffffffffffffffffffffff021916908373ffffffffffffffffffffffffffffffffffffffff1602179055506002820160149054906101000a900460ff168160020160146101000a81548160ff02191690831515021790555050509160030191906003019062000a0b565b5b50905062000b00919062000b7a565b5090565b62000b2991905b8082111562000b2557600081600090555060010162000b0b565b5090565b90565b62000b7791905b8082111562000b73576000808201600062000b4f919062000bf1565b60018201600062000b61919062000c3d565b60028201600090555060030162000b33565b5090565b90565b62000bee91905b8082111562000bea576000808201600062000b9d919062000bf1565b60018201600090556002820160006101000a81549073ffffffffffffffffffffffffffffffffffffffff02191690556002820160146101000a81549060ff02191690555060030162000b81565b5090565b90565b50805460018160011615610100020316600290046000825580601f1062000c19575062000c3a565b601f01602090049060005260206000209081019062000c39919062000b04565b5b50565b508054600082556003029060005260206000209081019062000c60919062000b7a565b50565b6126328062000c736000396000f3fe6080604052600436106100fe5760003560e01c8063c47f002711610095578063d5953ae911610064578063d5953ae91461034f578063d67c68881461038f578063dc33be0e146103cc578063e5bed59e14610409578063f698b7cc14610432576100fe565b8063c47f0027146102a2578063c9ae9173146102cb578063ceb60654146102e7578063d1a154a314610324576100fe565b80631e4a97dd116100d15780631e4a97dd146101bf57806342c91d09146101fc57806396324bd414610239578063a47514db14610277576100fe565b806302dbc2c71461010357806307c213831461012c5780630fa4ff151461015757806317d7de7c14610194575b600080fd5b34801561010f57600080fd5b5061012a60048036036101259190810190612055565b610470565b005b34801561013857600080fd5b5061014161054f565b60405161014e91906122bb565b60405180910390f35b34801561016357600080fd5b5061017e600480360361017991908101906120d2565b6105ed565b60405161018b919061237b565b60405180910390f35b3480156101a057600080fd5b506101a961075c565b6040516101b691906122dd565b60405180910390f35b3480156101cb57600080fd5b506101e660048036036101e19190810190611fe9565b6108da565b6040516101f3919061239d565b60405180910390f35b34801561020857600080fd5b50610223600480360361021e91908101906120a9565b610c51565b604051610230919061239d565b60405180910390f35b34801561024557600080fd5b50610260600480360361025b91908101906120a9565b610c7c565b60405161026e92919061234b565b60405180910390f35b34801561028357600080fd5b5061028c610d45565b6040516102999190612285565b60405180910390f35b3480156102ae57600080fd5b506102c960048036036102c49190810190611fa8565b610ec3565b005b6102e560048036036102e09190810190611ed7565b611123565b005b3480156102f357600080fd5b5061030e600480360361030991908101906120a9565b611229565b60405161031b919061239d565b60405180910390f35b34801561033057600080fd5b50610339611251565b604051610346919061239d565b60405180910390f35b34801561035b57600080fd5b5061037660048036036103719190810190611eae565b61125e565b60405161038694939291906122ff565b60405180910390f35b34801561039b57600080fd5b506103b660048036036103b19190810190611eae565b611353565b6040516103c3919061239d565b60405180910390f35b3480156103d857600080fd5b506103f360048036036103ee9190810190611eae565b61139e565b60405161040091906122a0565b60405180910390f35b34801561041557600080fd5b50610430600480360361042b9190810190611f3c565b6113b6565b005b34801561043e57600080fd5b5061045960048036036104549190810190611f00565b6116d4565b60405161046792919061234b565b60405180910390f35b6003818154811061047d57fe5b9060005260206000209060030201600101829080600181540180825580915050906001820390600052602060002090600302016000909192909190915060008201518160000190805190602001906104d69291906117aa565b506020820151816001015560408201518160020160006101000a81548173ffffffffffffffffffffffffffffffffffffffff021916908373ffffffffffffffffffffffffffffffffffffffff16021790555060608201518160020160146101000a81548160ff0219169083151502179055505050505050565b60048054600181600116156101000203166002900480601f0160208091040260200160405190810160405280929190818152602001828054600181600116156101000203166002900480156105e55780601f106105ba576101008083540402835291602001916105e5565b820191906000526020600020905b8154815290600101906020018083116105c857829003601f168201915b505050505081565b6105f561182a565b6003838154811061060257fe5b9060005260206000209060030201600101828154811061061e57fe5b9060005260206000209060030201604051806080016040529081600082018054600181600116156101000203166002900480601f0160208091040260200160405190810160405280929190818152602001828054600181600116156101000203166002900480156106d05780601f106106a5576101008083540402835291602001916106d0565b820191906000526020600020905b8154815290600101906020018083116106b357829003601f168201915b50505050508152602001600182015481526020016002820160009054906101000a900473ffffffffffffffffffffffffffffffffffffffff1673ffffffffffffffffffffffffffffffffffffffff1673ffffffffffffffffffffffffffffffffffffffff1681526020016002820160149054906101000a900460ff161515151581525050905092915050565b606061076661182a565b600260003373ffffffffffffffffffffffffffffffffffffffff1673ffffffffffffffffffffffffffffffffffffffff168152602001908152602001600020604051806080016040529081600082018054600181600116156101000203166002900480601f0160208091040260200160405190810160405280929190818152602001828054600181600116156101000203166002900480156108495780601f1061081e57610100808354040283529160200191610849565b820191906000526020600020905b81548152906001019060200180831161082c57829003601f168201915b50505050508152602001600182015481526020016002820160009054906101000a900473ffffffffffffffffffffffffffffffffffffffff1673ffffffffffffffffffffffffffffffffffffffff1673ffffffffffffffffffffffffffffffffffffffff1681526020016002820160149054906101000a900460ff1615151515815250509050806000015191505090565b6000600380548091906001016108f0919061186a565b50600060036001600380549050038154811061090857fe5b9060005260206000209060030201905061092061182a565b6040518060800160405280858152602001600081526020013373ffffffffffffffffffffffffffffffffffffffff16815260200160001515815250905080600260003373ffffffffffffffffffffffffffffffffffffffff1673ffffffffffffffffffffffffffffffffffffffff16815260200190815260200160002060008201518160000190805190602001906109b99291906117aa565b506020820151816001015560408201518160020160006101000a81548173ffffffffffffffffffffffffffffffffffffffff021916908373ffffffffffffffffffffffffffffffffffffffff16021790555060608201518160020160146101000a81548160ff0219169083151502179055509050508160010181908060018154018082558091505090600182039060005260206000209060030201600090919290919091506000820151816000019080519060200190610a7a9291906117aa565b506020820151816001015560408201518160020160006101000a81548173ffffffffffffffffffffffffffffffffffffffff021916908373ffffffffffffffffffffffffffffffffffffffff16021790555060608201518160020160146101000a81548160ff02191690831515021790555050505084826000019080519060200190610b0792919061189c565b5060016003805490500382600201819055506000803373ffffffffffffffffffffffffffffffffffffffff1673ffffffffffffffffffffffffffffffffffffffff168152602001908152602001600020829080600181540180825580915050906001820390600052602060002090600302016000909192909190915060008201816000019080546001816001161561010002031660029004610baa92919061191c565b506001820181600101908054610bc19291906119a3565b50600282015481600201555050506003829080600181540180825580915050906001820390600052602060002090600302016000909192909190915060008201816000019080546001816001161561010002031660029004610c2492919061191c565b506001820181600101908054610c3b9291906119a3565b5060028201548160020155505050505092915050565b600060038281548110610c6057fe5b9060005260206000209060030201600101805490509050919050565b60038181548110610c8957fe5b9060005260206000209060030201600091509050806000018054600181600116156101000203166002900480601f016020809104026020016040519081016040528092919081815260200182805460018160011615610100020316600290048015610d355780601f10610d0a57610100808354040283529160200191610d35565b820191906000526020600020905b815481529060010190602001808311610d1857829003601f168201915b5050505050908060020154905082565b6000610d4f61182a565b600260003373ffffffffffffffffffffffffffffffffffffffff1673ffffffffffffffffffffffffffffffffffffffff168152602001908152602001600020604051806080016040529081600082018054600181600116156101000203166002900480601f016020809104026020016040519081016040528092919081815260200182805460018160011615610100020316600290048015610e325780601f10610e0757610100808354040283529160200191610e32565b820191906000526020600020905b815481529060010190602001808311610e1557829003601f168201915b50505050508152602001600182015481526020016002820160009054906101000a900473ffffffffffffffffffffffffffffffffffffffff1673ffffffffffffffffffffffffffffffffffffffff1673ffffffffffffffffffffffffffffffffffffffff1681526020016002820160149054906101000a900460ff1615151515815250509050806060015191505090565b610ecb61182a565b600260003373ffffffffffffffffffffffffffffffffffffffff1673ffffffffffffffffffffffffffffffffffffffff168152602001908152602001600020604051806080016040529081600082018054600181600116156101000203166002900480601f016020809104026020016040519081016040528092919081815260200182805460018160011615610100020316600290048015610fae5780601f10610f8357610100808354040283529160200191610fae565b820191906000526020600020905b815481529060010190602001808311610f9157829003601f168201915b50505050508152602001600182015481526020016002820160009054906101000a900473ffffffffffffffffffffffffffffffffffffffff1673ffffffffffffffffffffffffffffffffffffffff1673ffffffffffffffffffffffffffffffffffffffff1681526020016002820160149054906101000a900460ff1615151515815250509050818160000181905250600181606001901515908115158152505080600260003373ffffffffffffffffffffffffffffffffffffffff1673ffffffffffffffffffffffffffffffffffffffff16815260200190815260200160002060008201518160000190805190602001906110aa9291906117aa565b506020820151816001015560408201518160020160006101000a81548173ffffffffffffffffffffffffffffffffffffffff021916908373ffffffffffffffffffffffffffffffffffffffff16021790555060608201518160020160146101000a81548160ff0219169083151502179055509050505050565b8073ffffffffffffffffffffffffffffffffffffffff166108fc349081150290604051600060405180830381858888f19350505050158015611169573d6000803e3d6000fd5b50670de0b6b3a7640000348161117b57fe5b04600160003373ffffffffffffffffffffffffffffffffffffffff1673ffffffffffffffffffffffffffffffffffffffff16815260200190815260200160002060008282540392505081905550670de0b6b3a764000034816111d957fe5b04600160008373ffffffffffffffffffffffffffffffffffffffff1673ffffffffffffffffffffffffffffffffffffffff1681526020019081526020016000206000828254019250508190555050565b60006003828154811061123857fe5b9060005260206000209060030201600201549050919050565b6000600380549050905090565b6002602052806000526040600020600091509050806000018054600181600116156101000203166002900480601f01602080910402602001604051908101604052809291908181526020018280546001816001161561010002031660029004801561130a5780601f106112df5761010080835404028352916020019161130a565b820191906000526020600020905b8154815290600101906020018083116112ed57829003601f168201915b5050505050908060010154908060020160009054906101000a900473ffffffffffffffffffffffffffffffffffffffff16908060020160149054906101000a900460ff16905084565b60008060008373ffffffffffffffffffffffffffffffffffffffff1673ffffffffffffffffffffffffffffffffffffffff168152602001908152602001600020805490509050919050565b60016020528060005260406000206000915090505481565b600080905060008090505b835181101561167e576113d261182a565b600260008684815181106113e257fe5b602002602001015173ffffffffffffffffffffffffffffffffffffffff1673ffffffffffffffffffffffffffffffffffffffff1681526020019081526020016000206000018054600181600116156101000203166002900480601f0160208091040260200160405190810160405280929190818152602001828054600181600116156101000203166002900480156114bb5780601f10611490576101008083540402835291602001916114bb565b820191906000526020600020905b81548152906001019060200180831161149e57829003601f168201915b50505050508160000181905250600260008684815181106114d857fe5b602002602001015173ffffffffffffffffffffffffffffffffffffffff1673ffffffffffffffffffffffffffffffffffffffff16815260200190815260200160002060020160009054906101000a900473ffffffffffffffffffffffffffffffffffffffff16816040019073ffffffffffffffffffffffffffffffffffffffff16908173ffffffffffffffffffffffffffffffffffffffff168152505063039387008160200181815250508060026000836040015173ffffffffffffffffffffffffffffffffffffffff1673ffffffffffffffffffffffffffffffffffffffff16815260200190815260200160002060008201518160000190805190602001906115e39291906117aa565b506020820151816001015560408201518160020160006101000a81548173ffffffffffffffffffffffffffffffffffffffff021916908373ffffffffffffffffffffffffffffffffffffffff16021790555060608201518160020160146101000a81548160ff02191690831515021790555090505083828151811061166457fe5b6020026020010151830192505080806001019150506113c1565b5080600260003373ffffffffffffffffffffffffffffffffffffffff1673ffffffffffffffffffffffffffffffffffffffff16815260200190815260200160002060010160008282540192505081905550505050565b600060205281600052604060002081815481106116ed57fe5b906000526020600020906003020160009150915050806000018054600181600116156101000203166002900480601f01602080910402602001604051908101604052809291908181526020018280546001816001161561010002031660029004801561179a5780601f1061176f5761010080835404028352916020019161179a565b820191906000526020600020905b81548152906001019060200180831161177d57829003601f168201915b5050505050908060020154905082565b828054600181600116156101000203166002900490600052602060002090601f016020900481019282601f106117eb57805160ff1916838001178555611819565b82800160010185558215611819579182015b828111156118185782518255916020019190600101906117fd565b5b5090506118269190611ac1565b5090565b60405180608001604052806060815260200160008152602001600073ffffffffffffffffffffffffffffffffffffffff1681526020016000151581525090565b815481835581811115611897576003028160030283600052602060002091820191016118969190611ae6565b5b505050565b828054600181600116156101000203166002900490600052602060002090601f016020900481019282601f106118dd57805160ff191683800117855561190b565b8280016001018555821561190b579182015b8281111561190a5782518255916020019190600101906118ef565b5b5090506119189190611ac1565b5090565b828054600181600116156101000203166002900490600052602060002090601f016020900481019282601f106119555780548555611992565b8280016001018555821561199257600052602060002091601f016020900482015b82811115611991578254825591600101919060010190611976565b5b50905061199f9190611ac1565b5090565b828054828255906000526020600020906003028101928215611ab05760005260206000209160030282015b82811115611aaf578282600082018160000190805460018160011615610100020316600290046119ff92919061191c565b50600182015481600101556002820160009054906101000a900473ffffffffffffffffffffffffffffffffffffffff168160020160006101000a81548173ffffffffffffffffffffffffffffffffffffffff021916908373ffffffffffffffffffffffffffffffffffffffff1602179055506002820160149054906101000a900460ff168160020160146101000a81548160ff0219169083151502179055505050916003019190600301906119ce565b5b509050611abd9190611b2d565b5090565b611ae391905b80821115611adf576000816000905550600101611ac7565b5090565b90565b611b2a91905b80821115611b265760008082016000611b059190611b9f565b600182016000611b159190611be7565b600282016000905550600301611aec565b5090565b90565b611b9c91905b80821115611b985760008082016000611b4c9190611b9f565b60018201600090556002820160006101000a81549073ffffffffffffffffffffffffffffffffffffffff02191690556002820160146101000a81549060ff021916905550600301611b33565b5090565b90565b50805460018160011615610100020316600290046000825580601f10611bc55750611be4565b601f016020900490600052602060002090810190611be39190611ac1565b5b50565b5080546000825560030290600052602060002090810190611c089190611b2d565b50565b600081359050611c1a8161257c565b92915050565b600081359050611c2f81612593565b92915050565b600082601f830112611c4657600080fd5b8135611c59611c54826123e5565b6123b8565b91508181835260208401935060208101905083856020840282011115611c7e57600080fd5b60005b83811015611cae5781611c948882611c0b565b845260208401935060208301925050600181019050611c81565b5050505092915050565b600082601f830112611cc957600080fd5b8135611cdc611cd78261240d565b6123b8565b91508181835260208401935060208101905083856020840282011115611d0157600080fd5b60005b83811015611d315781611d178882611d50565b845260208401935060208301925050600181019050611d04565b5050505092915050565b600081359050611d4a816125aa565b92915050565b600081359050611d5f816125c1565b92915050565b600082601f830112611d7657600080fd5b8135611d89611d8482612435565b6123b8565b91508082526020830160208301858383011115611da557600080fd5b611db0838284612529565b50505092915050565b600082601f830112611dca57600080fd5b8135611ddd611dd882612461565b6123b8565b91508082526020830160208301858383011115611df957600080fd5b611e04838284612529565b50505092915050565b600060808284031215611e1f57600080fd5b611e2960806123b8565b9050600082013567ffffffffffffffff811115611e4557600080fd5b611e5184828501611d65565b6000830152506020611e6584828501611d50565b6020830152506040611e7984828501611c0b565b6040830152506060611e8d84828501611d3b565b60608301525092915050565b600081359050611ea8816125d8565b92915050565b600060208284031215611ec057600080fd5b6000611ece84828501611c0b565b91505092915050565b600060208284031215611ee957600080fd5b6000611ef784828501611c20565b91505092915050565b60008060408385031215611f1357600080fd5b6000611f2185828601611c0b565b9250506020611f3285828601611e99565b9150509250929050565b60008060408385031215611f4f57600080fd5b600083013567ffffffffffffffff811115611f6957600080fd5b611f7585828601611c35565b925050602083013567ffffffffffffffff811115611f9257600080fd5b611f9e85828601611cb8565b9150509250929050565b600060208284031215611fba57600080fd5b600082013567ffffffffffffffff811115611fd457600080fd5b611fe084828501611db9565b91505092915050565b60008060408385031215611ffc57600080fd5b600083013567ffffffffffffffff81111561201657600080fd5b61202285828601611db9565b925050602083013567ffffffffffffffff81111561203f57600080fd5b61204b85828601611db9565b9150509250929050565b6000806040838503121561206857600080fd5b600083013567ffffffffffffffff81111561208257600080fd5b61208e85828601611e0d565b925050602061209f85828601611e99565b9150509250929050565b6000602082840312156120bb57600080fd5b60006120c984828501611e99565b91505092915050565b600080604083850312156120e557600080fd5b60006120f385828601611e99565b925050602061210485828601611e99565b9150509250929050565b612117816124c5565b82525050565b612126816124c5565b82525050565b612135816124e9565b82525050565b612144816124e9565b82525050565b612153816124f5565b82525050565b612162816124f5565b82525050565b600061217382612498565b61217d81856124b4565b935061218d818560208601612538565b6121968161256b565b840191505092915050565b60006121ac8261248d565b6121b681856124a3565b93506121c6818560208601612538565b6121cf8161256b565b840191505092915050565b60006121e58261248d565b6121ef81856124b4565b93506121ff818560208601612538565b6122088161256b565b840191505092915050565b6000608083016000830151848203600086015261223082826121a1565b9150506020830151612245602086018261214a565b506040830151612258604086018261210e565b50606083015161226b606086018261212c565b508091505092915050565b61227f8161251f565b82525050565b600060208201905061229a600083018461213b565b92915050565b60006020820190506122b56000830184612159565b92915050565b600060208201905081810360008301526122d581846121da565b905092915050565b600060208201905081810360008301526122f78184612168565b905092915050565b6000608082019050818103600083015261231981876121da565b90506123286020830186612159565b612335604083018561211d565b612342606083018461213b565b95945050505050565b6000604082019050818103600083015261236581856121da565b90506123746020830184612276565b9392505050565b600060208201905081810360008301526123958184612213565b905092915050565b60006020820190506123b26000830184612276565b92915050565b6000604051905081810181811067ffffffffffffffff821117156123db57600080fd5b8060405250919050565b600067ffffffffffffffff8211156123fc57600080fd5b602082029050602081019050919050565b600067ffffffffffffffff82111561242457600080fd5b602082029050602081019050919050565b600067ffffffffffffffff82111561244c57600080fd5b601f19601f8301169050602081019050919050565b600067ffffffffffffffff82111561247857600080fd5b601f19601f8301169050602081019050919050565b600081519050919050565b600081519050919050565b600082825260208201905092915050565b600082825260208201905092915050565b60006124d0826124ff565b9050919050565b60006124e2826124ff565b9050919050565b60008115159050919050565b6000819050919050565b600073ffffffffffffffffffffffffffffffffffffffff82169050919050565b6000819050919050565b82818337600083830152505050565b60005b8381101561255657808201518184015260208101905061253b565b83811115612565576000848401525b50505050565b6000601f19601f8301169050919050565b612585816124c5565b811461259057600080fd5b50565b61259c816124d7565b81146125a757600080fd5b50565b6125b3816124e9565b81146125be57600080fd5b50565b6125ca816124f5565b81146125d557600080fd5b50565b6125e18161251f565b81146125ec57600080fd5b5056fea365627a7a723158201f27a61608448a01165c355c22729a3ed23a522d8af91aa15d6b5e49c34021356c6578706572696d656e74616cf564736f6c63430005100040",
  "source": "pragma experimental ABIEncoderV2;\n\ncontract PaymentHub {\n\n    // Mapping for finding a user's groups\n    mapping (address => Group[]) public userToGroups;\n    mapping (address => int256) public userToBalance;\n    mapping (address => Member) public userToMember;\n\n    Group[] public groups; // The contract stores all groups, serves as a hub. Various groups will not interact with each other\n\n\tstring public memberName = string(userToMember[msg.sender].name);\n\n    struct Member {\n        string name;\n        int balance;\n        address addy;\n\t\tbool nameSet;\n    }\n\n    struct Group {\n        string name;\n        Member[] friends;\n        uint256 id;\n    }\n\n    constructor() public {\n        // This data structure found at\n        // https://bit.ly/3azD3fx\n        createGroup(\"PayPals\", \"Creator\");\n        createGroup(\"PaymentPals\", \"Creator\");\n        Member memory member = Member(\"Cofounder\", 200, address(0x6A46eF78714f530e995369B03BB9F471583D114D), false);\n        Member memory member2 = Member(\"Investor\", 10000, address(0x2C10f237735e65e777D33348475000d9FAe0b7Dd), false);\n        addFriend(member, 0);\n        addFriend(member, 2); // For some reason PaymentPals is group 2, not 1?\n        addFriend(member2, 2);\n    }\n\n\tfunction getName() view external returns(string memory){\n\t\tMember memory member = userToMember[msg.sender];\n\t\treturn member.name;\n\t}\n\n\tfunction setName(string memory _name) public {\n\t\tMember memory member = userToMember[msg.sender];\n\t\tmember.name = _name;\n\t\tmember.nameSet = true;\n\t\tuserToMember[msg.sender] = member;\n\t}\n\n    function createGroup(string memory _groupName, string memory _groupOwnerName) public returns(uint) {\n        groups.length++;\n        Group storage group = groups[groups.length - 1];\n\t\t\n        Member memory member = Member(_groupOwnerName, 0, msg.sender, false);\n\t\tuserToMember[msg.sender] = member;\n        group.friends.push(member); // Add the first member, which is the creator\n\n        group.name = _groupName; // Manually set the group name\n        group.id = groups.length - 1;\n\n        userToGroups[msg.sender].push(group);\n\n        groups.push(group);\n    }\n\n    function getGroup(uint _gid) public view returns (uint) {\n        return groups[_gid].id;\n    }\n\n    // Mainly for testing, can be removed later\n    function getGroupSize() public view returns (uint) {\n        return groups.length;\n    }\n\n    // Mainly for testing, can be removed later\n    function friendInGroup(uint _gid, uint _fid) public view returns (Member memory) {\n        return groups[_gid].friends[_fid];\n    }\n\n    // Mainly for testing, can be removed later\n    function numFriendsInGroup(uint _gid) public view returns (uint) {\n        return groups[_gid].friends.length;\n    }\n\n    function addFriend(Member memory _newFriend, uint _groupID) public {\n        groups[_groupID].friends.push(_newFriend);\n    }\n\n    function payFriend(address payable  _friend) external payable {\n        _friend.transfer(msg.value);\n        userToBalance[msg.sender] -= int(msg.value/1000000000000000000);\n        userToBalance[_friend] += int(msg.value/1000000000000000000);\n    }\n\n    function getNumUserGroups(address _add) public view returns (uint){\n        return userToGroups[_add].length;\n    }\n\n\tfunction isNameSet() public view returns(bool){\n\t\tMember memory member = userToMember[msg.sender];\n\t\treturn member.nameSet;\n\t}\n\n\n    // consider renaming to payForFriends\n    function transaction(address[] memory _payedFor, int[] memory _amounts) public {\n        int total = 0;\n        for (uint i = 0; i < _payedFor.length; i++) {\n            Member memory member;\n            member.name = userToMember[_payedFor[i]].name;\n            member.addy = userToMember[_payedFor[i]].addy;\n            member.balance = 60000000;\n            userToMember[member.addy] = member;\n            total += _amounts[i];\n        }\n        userToMember[msg.sender].balance += total;\n    }\n\n}\n",
  "sourcePath": "/home/kc/Development/CS481A3/the-payment-pals/contracts/PaymentHub.sol",
  "compiler": {
    "name": "solc",
    "version": "0.5.16+commit.9c3226ce.Emscripten.clang"
  },
  "schemaVersion": "3.0.22",
  "updatedAt": "2020-05-03T21:54:36.090Z",
  "devdoc": {
    "methods": {}
  },
  "userdoc": {
    "methods": {}
  }
}